:100000000C9463030C9480030C9480030C94800381
:100010000C9480030C9480030C9480030C94800354
:100020000C9480030C9480030C94E42D0C94B62E55
:100030000C9445240C9480030C9480030C9480034E
:100040000C9480030C9480030C9480030C94800324
:100050000C9480030C9492240C9480030C948003E1
:100060000C9480030C9480030C9480030C94800304
:100070000C9480030C9480030C9480030C948003F4
:100080000C9480030C9480030C9480030C948003E4
:100090000C9480030C9480030C9480030C948003D4
:1000A0000C9480030C9480030C948003CF03D20340
:1000B000D503D803DB03DE03E10386118911911117
:1000C00096119B11A011A511AA11AF11B411B9116C
:1000D000BE11C011C311C611C911CC11CF11D1115C
:1000E000D611DA18DA180C190C1955197719A71A3C
:1000F0000C1B84191F1A311A311A9E1A0C1B0C1B67
:10010000061BB31AD41ABB1ABE1AC71AC31ACC1AC2
:10011000D71BD71BE91BE91BE01BE91BE91BE91BEC
:10012000D71BD71BE51BE91BE91BE51BB028A6283D
:10013000B328FB28FF28FF28FB28FF28FF28D42806
:10014000FF28DE28E828FF28FF28FF28FF28FB28B3
:10015000FF28FF28FB28FF28C128FF28FF28F828B0
:10016000F828F828F828F828F828F828F828F8288F
:10017000FD28FF28B028A328FF28FF28FF28FF28F4
:10018000FF28FF28FF28FF28FF28FF28FD28FF2839
:10019000FF28FB28FF28F628F628F628F628F62858
:1001A000F628F628F628F628FD28232F4A2F423075
:1001B0004A2F4230962FB92F423010301F3029007D
:1001C0002B00E1003500000000001E0014000400B8
:1001D0001D000000E3001F001A0016001B000000B5
:1001E000015120000800070006000000E000210087
:1001F0001500090019002C00E200220017000A0077
:1002000005000000000000000000000000000000E9
:1002100000000000000000000000000000002300BB
:100220001C000B00110000000000240018000D004D
:1002300010000000E60025000C000E003600000053
:100240002C00260012000F0037000000E4002700F9
:100250001300330038000000E7002A0031002800B6
:10026000340000000000000000000000000000005A
:1002700000003A00C25CC55CC75C000000003B00A7
:10028000CD5CC65CC85C000001003C0026022F0269
:100290002F00000000003D00270230023000000067
:1002A00000003E0000000000000000000000000010
:1002B000000000000000000000000000000000003E
:1002C0000000000000003F002D004B004E00000029
:1002D000000040002E0050004A00000000004100D5
:1002E00052005100000000000000420000004F00DA
:1002F0004D0000000000430000000000000000006E
:1003000000004C00440045000000000000003219CD
:100310000A00047F3F1F643214643214783C1E1EAE
:10032000140A052223252628292A2C2D2F30323382
:100330003536383A3B3D3E4042434547494A4C4EAC
:100340005051535557595A5C5E6062646668696BD8
:100350006D6F71737577797B7D7F81838587898ADE
:100360008C8E90929496989A9C9E9FA1A3A5A7A8E4
:10037000AAACAEAFB1B3B4B6B8B9BBBCBEBFC1C214
:10038000C3C5C6C7C9CACBCCCDCED0D1D2D2D3D4A7
:10039000D5D6D7D7D8D9D9DADADBDBDBDCDCDCDCC5
:1003A000DCDDDDDDDDDCDCDCDCDCDBDBDBDADAD993
:1003B000D9D8D7D7D6D5D4D3D2D2D1D0CECDCCCB15
:1003C000CAC9C7C6C5C3C2C1BFBEBCBBB9B8B6B433
:1003D000B3B1AFAEACAAA8A7A5A3A19F9E9C9A98C3
:1003E000969492908E8C8A89878583817F7D7B7994
:1003F000777573716F6D6B6968666462605E5C5A75
:100400005957555351504E4C4A4947454342403E37
:100410003D3B3A3836353332302F2D2C2A292826C9
:10042000252322FFAA7F554000010101010101019E
:100430000101020202020202020202030303030399
:100440000303030404040404040405050505050668
:100450000606060607070707070808080809090926
:10046000090A0A0A0B0B0B0C0C0C0D0D0D0E0E0ECF
:100470000F0F0F1010111111121213131414151560
:1004800016161717181819191A1A1B1B1C1D1D1ED2
:100490001E1F202021222223242425262627282926
:1004A000292A2B2C2D2D2E2F303132323334353654
:1004B0003738393A3B3C3D3E3F4041424344454654
:1004C0004748494A4C4D4E4F505153545556585930
:1004D0005A5B5D5E5F616264656668696B6C6D6FD7
:1004E0007072737577787A7B7D7E8082838587884A
:1004F0008A8C8E8F91939596989A9C9EA0A2A3A584
:10050000A7A9ABADAFB1B3B5B7BABCBEC0C2C4C684
:10051000C9CBCDCFD1D4D6D8DBDDDFE2E4E7E9EB40
:10052000EEF0F3F5F8FAFDFF0403300000001603C7
:100530004500720067006F0044006F0078002000E3
:1005400045005A00000030035A00530041002000CB
:1005500054006500630068006E006F006C006F005F
:100560006700790020004C006100620073002000E9
:1005700049006E00630000000403090409023B0007
:10058000020100A0FA090400000103010100092191
:10059000110100012240000705810308000A090437
:1005A0000100010300000009211101000122BC002B
:1005B0000705820320000A1201100100000008ED67
:1005C000FE071301000102030105010902A10185D3
:1005D000020901A100050919012905150025019548
:1005E0000575018102950175038101050109300935
:1005F000311581257F9502750881060938158125F9
:100600007F950175088106050C0A38021581257F42
:10061000950175088106C0C005010980A101850307
:1006200019012AB700150126B70095017510810040
:10063000C0050C0901A101850419012AA0021501B8
:1006400026A002950175108100C005010906A101CF
:100650008505050719E029E71500250195087501AD
:1006600081020507190029EF1500250195F0750194
:100670008102050819012905950575019102950169
:1006800075039101C005010906A101050719E029BB
:10069000E71500250195087501810295017508810E
:1006A000010507190029FF150026FF0095067508AA
:1006B000810005081901290595057501910295012B
:1006C00075039101C00011241FBECFEFDAE0DEBF39
:1006D000CDBF12E0A0E0B1E0E8E0F6E602C0059090
:1006E0000D92A237B107D9F724E0A2E7B2E001C02A
:1006F0001D92AD34B207E1F70E94222B0C94023315
:100700000C940000209828982198299822982A98DB
:1007100023982B9852985A9853985B983E984698ED
:100720000895CF93E82F873080F580910A0190914A
:100730000B01892B09F047C0CE2F64E670E080E4FE
:100740000E94FD1490930B0180930A01892BD1F430
:1007500064E670E082E10E94541590930B0180934F
:100760000A01892B79F481E090E001C0880FCA95D5
:10077000EAF764E670E080950E94541590930B01AF
:1007800080930A01CF910C94A91590E0FC01379752
:10079000E730F105C0F4EA5AFF4F0C94DA30209AA2
:1007A000289811C0219A29980EC0229A2A980BC025
:1007B000239A2B9808C0529A5A9805C0539A5B986E
:1007C00002C03E9A4698CF910895CF93873040F566
:1007D00080910A0190910B01892B59F564E670E034
:1007E00081E40E94FD1490930B0180930A01892BF0
:1007F00011F0C0E011C084E690E00E94841597FFDC
:1008000005C090930B0180930A01F3CFC82FC095C8
:1008100010920B0110920A010E94A9158C2F0AC098
:100820009FB18FB1807F869586959370892B809537
:1008300001C080E0CF9108950E94520590E090930E
:100840000B0180930A010E9482038098889A819804
:10085000899A84988C9A85988D9A86988E9A87988A
:100860008F9A0895EF92FF920F931F93CF93DF9388
:1008700080910A0190910B01892B91F08091720275
:100880008F5F8093720281110BC00E94520590E02D
:1008900090930B0180930A01892B11F40E94C404E8
:1008A00004ED13E0C0E0F12C87E0E82EEC0E8C2F75
:1008B0000E9491038E2D0E9491038C2F0E94E503CC
:1008C000F8019081891719F08083D1E001C0D0E050
:1008D0008E2D0E94E503F8019781891719F087830F
:1008E00081E001C080E0D82BFD2A0E948203CF5F07
:1008F0000F5F1F4FC730C1F68F2DDF91CF911F9132
:100900000F91FF90EF900895CF92DF92EF92FF92B8
:100910000F931F93CF93DF936C01062F0E94F71460
:1009200064E670E084E80E94FD14CC2DDD2DE12CFE
:10093000F12C10E0E016F106CCF464E670E088815A
:100940000E94541564E670E089810E94541564E6A3
:1009500070E08A810E94541564E670E08B810E94E9
:1009600054158FEFE81AF80A2496E4CF0E94A915CF
:10097000B801C601DF91CF911F910F91FF90EF90C9
:10098000DF90CF900C94E01156985E9825982D98A2
:1009900026982E9827982F988FEF90E090938900B3
:1009A0008093880090938B0080938A0090938D00B1
:1009B00080938C00259A2D9A2FEF80E792E02150AA
:1009C00080409040E1F700C00000269A2E9A2FEF59
:1009D00080E792E0215080409040E1F700C00000A5
:1009E000279A2F9A2FEF80E792E021508040904085
:1009F000E1F700C0000025982D982FEF80E792E0E6
:100A0000215080409040E1F700C0000026982E98C9
:100A10002FEF80E792E0215080409040E1F700C046
:100A2000000027982F9856985E9825982D9826981C
:100A30002E9827982F98089589EA8093800089E05E
:100A40008093810024982C983F988AB18F7C8AB932
:100A50006E98479A8BB180638BB9769A0E94A322D5
:100A60006093D0037093D1038093D2039093D30308
:100A700067708FEF689FB001112475956795759524
:100A800067957727709389006093880070938B0037
:100A900060938A0070938D0060938C000E94C40460
:100AA0000C943E0980E290E090930B0180930A0140
:100AB0008091730281110EC00E94F71481E080932F
:100AC00073022FEF83ED90E3215080409040E1F7D7
:100AD00000C0000064E670E080E40E94FD14909382
:100AE0000B0180930A01892B09F04EC064E670E087
:100AF00080E00E94541590930B0180930A01892B8A
:100B000009F042C064E670E080E00E9454159093C2
:100B10000B0180930A01892BB9F564E670E08FE33D
:100B20000E94541590930B0180930A01892B61F563
:100B30000E94A91564E670E080E40E94FD14909381
:100B40000B0180930A01892BF9F464E670E08CE0D4
:100B50000E94541590930B0180930A01892BA1F4F4
:100B600064E670E080E00E94541590930B0180933E
:100B70000A01892B49F464E670E08FE30E94541562
:100B800090930B0180930A010E94A91580910A019C
:100B900008951092D0031092D1031092D2031092B4
:100BA000D30384E080618093D0036091D00370917F
:100BB000D1038091D2039091D3030E94A7220C9479
:100BC000B3229C013A9521153F4138F5DC01AA2753
:100BD000B270AC01442754709C012227387094FFF6
:100BE0000FC090FF02C080E101C080E0AB2B09F094
:100BF0008062452B09F08064232B69F080680BC06C
:100C0000892F8170AB2B09F08260452B09F084603D
:100C1000232B09F08860FB0109940895CF93DF939B
:100C2000EC01805E9109089710F0209719F46DE8A7
:100C300078E102C06DE97BE1CE010E94E1058C2FD5
:100C4000DF91CF910C946317CF93DF93EC010E9457
:100C50001218CE01805E9109089710F0209719F4C0
:100C600064E978E102C064EA7BE1CE01DF91CF91D3
:100C70000C94E105CF93DF93EC010E940E06CE01A8
:100C8000DF91CF910C94240681E0089581E00895CE
:100C90000C94460608950C944A061F93CF93DF9355
:100CA00000D000D01F92CDB7DEB749835A836B8343
:100CB0003091F90289819A81311114C0662359F06B
:100CC000222349F00E941521182F682F89819A81CB
:100CD0000E94BC2003C00E94E820182F69817A81FD
:100CE000812F04C00E94152169817A810F900F9095
:100CF0000F900F900F90DF91CF911F910C941B07D5
:100D0000FC01262F408151816281738184810C9482
:100D10004D06CF93DF93EC0160E00E948006BE0198
:100D2000DF91CF910C944B060E947222811102C078
:100D30000E940F230E941F120C941C050C943C0966
:100D4000282F2F7041F0822F90E02A3010F44D961A
:100D500008950697089587E290E0089508950C9409
:100D6000AE0681E008950C94B106CF93C82F0E947F
:100D7000AF068C2F0E94B306CF91089508950E946C
:100D8000C51B0E94BE062FEF84E39CE021508040EB
:100D90009040E1F700C000000C94B8240F931F931B
:100DA000CF93DF93EC0161E00E9480068C01BE01CD
:100DB0000E9448068823A9F1BE01C8010E9493122F
:100DC000882379F1BE01C8010E944913882349F1A3
:100DD000BE01C8010E949B13882319F1BE01C801FE
:100DE0000E94C6148823E9F0BE01C8010E946F1159
:100DF0008823B9F08A81882369F001158CE51807EA
:100E000031F00E3D1C4531F40E940F230AC00E94B0
:100E1000BF0607C0CE01DF91CF911F910F910C94B7
:100E2000440680E0DF91CF911F910F91089580E0FB
:100E300090E00895089524E5829FC0011124FC01EB
:100E400026E0729FE00DF11D1124E60FF11DEE0F5B
:100E5000FF1FE254FE4F859194910895880F991FCA
:100E6000FC01E25FFC4F859194910895CF93DF934D
:100E70000E941B070E945B08EC018115904508F059
:100E800041C0C11580E4D80708F0D6C0C83ED105DE
:100E900010F5C03ED10508F00AC1C83AD10578F472
:100EA000C53AD10508F0A7C0C130D10509F4FFC08B
:100EB00008F4FBC0C430D10508F0F9C0F6C0CF3B40
:100EC000D10508F4A0C0C03CD10508F4EEC0CE01A5
:100ED000805C9109A3C0C11590E2D90758F4C115EF
:100EE00021E0D20708F0E3C0C03FD10508F4DDC01F
:100EF000D065DDC0C11580E3D80708F093C0CE01EE
:100F00009F708CC0C11595E5D90708F043C0C11585
:100F100024E5D20708F0A7C0C11582E5D80708F577
:100F2000C11591E5D90708F08AC0CE0174E0969505
:100F300087957A95E1F783709C2F937021E030E0DC
:100F400002C0220F331F9A95E2F73C68382BCF700E
:100F5000C695C69580E2C89FE0011124C22BD32B11
:100F6000A6C09E01237033278C2F86958695C115C8
:100F7000D34508F069C0C1E0D0E002C0CC0FDD1F4E
:100F80002A95E2F720E2829FC0011124C82BD92BB9
:100F9000DC688DC0C1152AE5D207A0F4C11589E52A
:100FA000D80708F06FC0C11596E5D90708F460C0EE
:100FB000C11528E5D20708F478C0DC2FCC27C06F14
:100FC000D06A75C0C1158BE5D80708F46EC0C1158D
:100FD0009CE5D90708F466C0CE0190568115904271
:100FE00008F063C08D2F8F710E94EF08DD27D0625B
:100FF0008F71D82B5CC0C55AD0E0C85FDD4FC88167
:10100000D0E0D06454C0C85AD0E0CC0FDD1FC65227
:10101000DE4F0990D881C02DD46449C00E942E07AC
:10102000EC0145C0CE019927D3FF03C0EC01D86C79
:101030003EC0EC01D06C3BC0DF70D06A38C0DC2F02
:10104000CC27C16FD06A33C0C1E0D0E002C0CC0F62
:10105000DD1F2A95E2F720E2829FC0011124C82BF0
:10106000D92BDA6824C0DC2FCC27C46FD06A1FC00C
:101070008C2F0E94EF088F71C82FD0E0DC2FCC2777
:10108000D06215C08C2F8F700E94EF0894E0D69527
:10109000C7959A95E1F7CF70D0E0DC2FCC27D069C7
:1010A000C82B05C0DD27D06602C0C0E0D0E0CE016D
:1010B000DF91CF9108958238910569F1B0F48133C1
:1010C000910509F46DC048F48932910509F463C0B3
:1010D0008A32910509F469C008958533910509F4B0
:1010E00055C089339105B9F00895833E910569F1A2
:1010F00038F4803E9105B1F0823E910509F10895E2
:10110000863E9105A9F1873E9105B9F1843E91058E
:1011100009F064C023C020913A0420FD4FC021FD96
:101120004DC0089580913A0480FD44C080913B04F5
:1011300080FF44C080913A0484FD42C083EE4DC0DC
:1011400080913A0482FF38C0F5CF80913A0482FD45
:1011500033C080913B0480FD31C0ECCF80913B04D3
:1011600081FF32C080913A0484FD2AC087EE35C0E9
:1011700080913A0483FF26C0F5CF80913A0483FD25
:1011800021C080913B0481FD1FC0ECCF80913A04C7
:1011900085FD1CC01DC080913A0485FD19C016C094
:1011A00080913A0486FD16C017C080913A0486FDEE
:1011B00013C010C089E311C082EE0FC080EE0DC0D5
:1011C00080E00BC086EE09C084EE07C089E205C04E
:1011D00085E303C08AE201C081E390E00895909125
:1011E0003A0492FF0DC0282F2871283019F4877F08
:1011F000846006C0282F2471243011F48B7F88600E
:1012000093FF0DC0282F2871283119F4877E84613F
:1012100006C0282F2471243111F48B7E886120911F
:101220003B0420FF0DC0382F3871383019F4877F08
:10123000816006C0382F3171313011F48E7F8860A3
:1012400021FF0DC0282F2871283119F4877E816174
:1012500006C0282F2171213111F48E7E886194FD02
:10126000877E0895E82FF0E0EE51FC4F80810895CD
:10127000089508950C9439090C943A090C9439098D
:101280000E941C04E4EDF3E0A2EEB3E011921D9283
:1012900083E0E23EF807D1F78EE00E9464090C94E7
:1012A0009406CF9384ED93E00E943204C82F282F38
:1012B0004EE062EE73E084ED93E00E94DD090E944F
:1012C0009E068C2FCF910895CF93C82F90E00E9457
:1012D00011318093780290937902282FFC019BEFC3
:1012E0008E2F821B8C1710F49193FACFCF91089513
:1012F0000F931F93CF93DF93A62F10927702309115
:101300007802E32FF091790220E0C62FD0E0BBEF06
:101310000BEF10E09E2F931B981700F590819B3FD9
:10132000D9F0492F50E0A91728F0BE01641B750BB6
:10133000AB0106C0B801641B750BAB014C0F5D1F00
:10134000052E000C660B770B4E31510561057105BA
:1013500010F0B08301C021E03196DCCF20937702FA
:10136000DF91CF911F910F910895CF93DF9310924A
:101370007A025091780230917702DB01EC01E52F7F
:10138000F091790290E08E2F851B841778F4899173
:101390006C91681741F060816B3F21F420838C933E
:1013A00031E001C091E031961196EDCF3093770294
:1013B00090937A02DF91CF910895DF92EF92FF929E
:1013C0000F931F93CF93DF93EC018B01E42ED22E6A
:1013D0000E947724AC01609175027091760290931F
:1013E00076028093750290917402292F30E0261BBB
:1013F000370BC901840F951F6BEF70E00E9490308E
:10140000F82E8093740280917702882319F16F2D52
:101410008E2D0E947809DD2069F02F2D4E2DB80108
:10142000CE01DF91CF911F910F91FF90EF90DF9050
:101430000C94B50980917702882379F380917A0220
:101440008111EBCFDF91CF911F910F91FF90EF9022
:10145000DF900895D110E1CFF1CFEF92FF920F937B
:101460001F93CF93DF938B01682F11110AC0442380
:1014700029F0E82FF0E0E85DFB4F6491762F862F8E
:1014800075C0212F30E0E82FF0E0442321F0E85D23
:10149000FB4FE491F0E046E0049FC0011124CFEF40
:1014A000D0E0BE010E9490304BEA4603C001479F46
:1014B000900D1124800F911D800F911D982F990F71
:1014C000890FAE01421B530B4E9FD0014F9FB00DB1
:1014D0005E9FB00D11249B2F189FA0011124452F52
:1014E00055278E01041B150B0E9FA0010F9F500D59
:1014F0001E9F500D11247E01E81AF108E29E800122
:10150000E39E100DF29E100D1124212F3327C21BD4
:10151000D30BCE9F9001CF9F300DDE9F300D112455
:1015200062307105A9F048F46115710569F0613008
:101530007105C9F48B2F752F0DC06430710581F0D2
:1015400058F06630710579F47E2F8B2F932F0DC0E4
:10155000832F7B2F9E2F09C08E2F7B2F952F05C0A9
:101560008E2F732F02C07E2F852F692FDF91CF9191
:101570001F910F91FF90EF90089541E00E942D0A76
:101580000895FC01828120813181982F281708F469
:10159000922F391708F4932F9383391B3183291B1A
:1015A0002083891B828308950895CF93DF93762F3C
:1015B000E901682F842F0E94BD0A798368838A839A
:1015C0001B82DF91CF9108958091F003282F2695FB
:1015D00030E02115310519F48170826005C02B328D
:1015E000310524F0817084658093F003089588E0CC
:1015F00090E00C94A332CF92DF92EF92FF926B01B6
:101600007C010E94E40AB701A60188E090E0FF9007
:10161000EF90DF90CF900C94C132E0EFF3E083E0E5
:10162000808311828FEF8283838314826081718132
:10163000828193810C94FB0A8091F00380FF02C0A9
:101640008695089580E008959091F403933018F4FE
:101650009F5F9093F403882351F06091F0037091A1
:10166000F1038091F2039091F3030C94FB0A089527
:1016700081E00C94240B9091F403992319F091507C
:101680009093F403882351F06091F0037091F1037B
:101690008091F2039091F3030C94FB0A089581E08A
:1016A0000C943B0BEF92FF920F931F93CF93DF931A
:1016B000009110018091F00380FF0BC0C0910F01D9
:1016C00024E0C29FE0011124CB50DC4F7E0110E0EA
:1016D00012C08091110190911201891778F724E0CE
:1016E000829FF0011124EB50FC4F11821082128274
:1016F00013828F5FF2CF101741F0C7010E94C10A19
:101700001F5F84E0E80EF11CF6CF612FCE01DF9160
:10171000CF911F910F91FF90EF900C9484049091C2
:10172000F00390FF14C090911101209112019217C3
:1017300060F434E0939FF0011124EB50FC4F81835F
:101740006083428313829F5FF2CF0C94520B089503
:10175000CF93DF9300D000D0CDB7DEB79091F003E8
:1017600090FF0AC09E012F5F3F4F0E94D50A4B8118
:1017700069818A810E948F0B0F900F900F900F90BC
:10178000DF91CF910895CF93DF93EC01EC81F0E0EE
:10179000ED5DFC4F4491E0EFF3E0628181810E94B6
:1017A000A80B8C818F5F8C83DF91CF910895CF93AD
:1017B000DF93EC01E0EFF3E0438162818C810E94D2
:1017C000A80B8C818F5F8C83DF91CF9108950F934D
:1017D0001F93CF93DF9300D000D0CDB7DEB78C013D
:1017E00080917B0281110AC09E012F5F3F4F4FEF16
:1017F0006FEF0E94D50A8A8180937B02F801848171
:10180000813051F028F0823061F440917B020AC0AF
:1018100080917B0240E007C060917B0240E080E065
:1018200003C040E080E060E00E948F0BF8018481FB
:1018300090E0019663E070E00E94A43084830F90F2
:101840000F900F900F90DF91CF911F910F910895FE
:10185000AF92BF92CF92DF92EF92FF920F931F93BE
:10186000CF93DF9300D000D0CDB7DEB7182FF62E80
:10187000042FE22E9091F00390FF6CC0E92FE695C3
:10188000AE2FB0E0A55FBD4F8C918093D0029E7FBC
:10189000923061F49E012F5F3F4F812F0E94D50A45
:1018A0004B8169818A810E948F0B42C0823019F47A
:1018B0000091F3033DC0863019F41091F10338C054
:1018C0008930D9F38931A1F5E9518E2F8170D82E55
:1018D000E695F0E0ED5DFB4FA590B490C12CBB24E4
:1018E00060911301C61610F52C2D30E0A29EC001A8
:1018F000A39E900DB29E900D112470E00E94903036
:10190000812FD11002C0860F01C0861B909111015A
:10191000290F311D220F331F220F331F2B503C4F35
:10192000402F6F2D0E94D50AC394DACF0E94520B2C
:101930001093F103F092F2030093F303EE2051F0C1
:101940006091F0037091F1038091F2039091F303A1
:101950000E94FB0A0F900F900F900F90DF91CF9194
:101960001F910F91FF90EF90DF90CF90BF90AF90BD
:101970000895E0EFF3E09181282F438162818CE0AC
:10198000890F0C94280C81E00C94B90CE0EFF3E083
:101990009181282F4381628184EF890F0C94280C58
:1019A00081E00C94C60CE0EFF3E062812FEF620F50
:1019B00008F46FEF282F438181810C94280C81E07B
:1019C0000C94D30CE0EFF3E062812FEF621B08F47C
:1019D00060E0282F438181810C94280C81E00C94D5
:1019E000E20CE0EFF3E043812CE0420F08F44FEF0C
:1019F000282F628181810C94280C81E00C94F10CD9
:101A0000E0EFF3E043812CE0421B08F440E0282F94
:101A1000628181810C94280C81E00C94000D20E0FF
:101A20000C94280CFF920F931F93CF93DF93EC013C
:101A3000F12C0FEF10E060911301F616E8F480919D
:101A400011012F2D30E0280F311D220F331F220FDF
:101A5000331F2B503C4F70E0C8010E94A430962FDA
:101A60008C814091F3036091F203F99E800D112463
:101A70000E94D50AF394DFCF0E94520B9A818C8189
:101A800090FF02C08F5F01C081508C83DF91CF91A6
:101A90001F910F91FF900895AF92BF92CF92DF9266
:101AA000EF92FF920F931F93CF93DF93FC018281FC
:101AB00080FF02C00FEF01C001E010E03FE0A32E65
:101AC00080911301181708F043C080911101C12EB5
:101AD000D12CE601C80FD11DCC0FDD1FCC0FDD1FAF
:101AE000CB50DC4F198218821A821B8224E0E22E2E
:101AF000F12CB12C80917D028B0D80312CF06A2D60
:101B00000E948230892F05C087FF03C09091130186
:101B1000890F082E000C990BC816D90691F48091F4
:101B2000F3038E9DA0018F9D500D1124559547956F
:101B3000559547959E016091F2038091F1030E94B3
:101B4000D50AB00EF1E0EF1AF108A1F61F5FB8CF89
:101B50000E94520B80917D02013031F4811102C04C
:101B600080911301815007C090E0019660911301AC
:101B700070E00E94A43080937D02DF91CF911F918D
:101B80000F91FF90EF90DF90CF90BF90AF900895AE
:101B90000F931F93CF938091110190911201891798
:101BA00060F424E0829FF0011124EB50FC4F11827D
:101BB0001082128213828F5FF2CFC0E06091130116
:101BC000C61798F50C2F10E070E0C8010E94A430F1
:101BD000E09111018E0F20917C02022E000C330B3C
:101BE000E82FF0E0EE0FFF1FEE0FFF1F02171307A5
:101BF000A4F080910E01082E000C990B801791071C
:101C000064F09F012B503C4F4091F3036091F2032D
:101C10008091F1030E94D50A06C0EB50FC4F11825F
:101C2000108212821382CF5FC9CF0E94520B209183
:101C30000D0180917C02820F80937C0290910E01B5
:101C4000920F90930E0119165CF4082E000C990B5C
:101C50004091130150E041505109841795071CF041
:101C6000219520930D01CF911F910F9108958F928F
:101C70009F92AF92BF92CF92DF92EF92FF920F931B
:101C80001F93CF93DF93EC014C81042F10E0980158
:101C9000D8010E94E8309B01AC010E94FE306B012C
:101CA0007C01E0E2F0E0E01BF10BA5E5B0E09B0178
:101CB000AC010E94FE304B015C019F01DF010E94DC
:101CC000E0309B01AC010E9409319B01AC012C0D5D
:101CD0003D1D4E1D5F1DC501B4010E94B830822F0D
:101CE000022F2A3228F493E0299F900111240DC07D
:101CF00025E530E0281B3109C901880F991F280FFD
:101D0000391F37FF02C02F5F3F4F35952795122FA0
:101D10001095F12C85E5E82EE01A80911301F81654
:101D2000C0F4F1FC02C08E2D01C0802F90911101F2
:101D30002F2D30E0290F311D220F331F220F331FAB
:101D40002B503C4F412F6091F2030E94D50AF3942F
:101D5000E4CF0E94520B8C81811102C091E003C03C
:101D6000803219F49FEF90930C0190910C01890F30
:101D70008C83DF91CF911F910F91FF90EF90DF90B7
:101D8000CF90BF90AF909F908F9008950F931F9327
:101D9000CF93DF93EC0100E010E080911301282F36
:101DA00030E0021713071CF5909111019801290FDB
:101DB000311D220F331F220F331F2B503C4F8695AE
:101DC00090E04C81081719071CF4442331F002C03D
:101DD000411103C04091F30301C040E06091F20360
:101DE0008091F1030E94D50A0F5F1F4FD6CF0E944A
:101DF000520B8C8190E00196817099278C83DF9142
:101E0000CF911F910F9108958F929F92AF92BF92A1
:101E1000CF92DF92EF92FF920F931F93CF93DF93B6
:101E2000FC01B280948081E0848300E015E09BE4B3
:101E3000A92E88248394EE24EA94F12C3BE4C32E4B
:101E4000D12C80911301081708F08EC0C02FD0E06C
:101E50001C9FF0011D9FF00D1124E258FD4F9110C1
:101E600003C01382128267C02381222389F121508B
:101E700023833481332319F09A2D921B01C0922FB2
:101E80008091F3031C9FF0011D9FF00D1124E25877
:101E9000FD4F899FC0011124B6010E9490306283DA
:101EA000211104C0332311F01482A38222E02B15E8
:101EB00008F441C01C9FF0011D9FF00D1124E25851
:101EC000FD4F8091F10380838091F203818333C0C1
:101ED0000E947E328230914074F582E08B1530F49E
:101EE0000E947E32B7010E94A43002C08091F103AB
:101EF0001C9FF0011D9FF00D1124E258FD4F8083BF
:101F000022E02B1558F40E947E322091F203269590
:101F1000622F70E00E94A430820F02C08091F20311
:101F20001C9FF0011D9FF00D1124E258FD4F81838D
:101F30001282A3828482809111019E01280F311D9B
:101F4000220F331F220F331F2B503C4F1C9FF001D9
:101F50001D9FF00D1124E258FD4F42816181808167
:101F60000E94D50A0F5F6DCFDF91CF911F910F9126
:101F7000FF90EF90DF90CF90BF90AF909F908F90A9
:101F80000C94520BE0EFF3E080818E7F80836081C0
:101F90007181828193810E94FB0A1092D1022FEFFE
:101FA00080E792E0215080409040E1F700C00000BF
:101FB0000C94520BE0EFF3E080818E7F80831092CF
:101FC000D1022FEF80E792E0215080409040E1F76E
:101FD00000C000000C94520B6091F003669570E015
:101FE0004BE050E084E191E00E948E32892B19F49D
:101FF00081E08093D1020E9477249093CA0280935B
:10200000C90208959091F00390FF35C0917081113D
:1020100002C0926006C08B3210F0946502C0880F37
:10202000982B9093F003662351F06091F003709128
:10203000F1038091F2039091F3030E94FB0A6091F7
:10204000F003669570E04BE050E084E191E00E947F
:102050008E32892B19F01092D10202C00E94EC0F2F
:1020600081E08093CC024091F3036091F203809170
:10207000F1030C940F0D0895682F9091F00396953D
:1020800081E0890F8B3208F081E00C94021081E02E
:102090000C943C10682F9091F00396958FEF890F68
:1020A00009F48AE20C94021081E00C944A1061E079
:1020B0000C940210E0EFF3E08081816080838695CC
:1020C0000C9457108091F00380FD0C94C20F0C9477
:1020D0005A1060E00C9402108091CF0281112EC042
:1020E0000E947222811104C00E940F230E940D0BD6
:1020F0000E94F70A6093F0037093F1038093F20358
:102100009093F3036E7F61F40E940D0B0E94F70A17
:102110006093F0037093F1038093F2039093F303C1
:102120000E94E40A1092D1028091F00380FF03C064
:1021300086950E94691081E08093CF020895E0EFB8
:10214000F3E080818160808386950C946910109201
:10215000D10208950F931F93CF93DF938091D10203
:10216000882309F49CC08091D002E091F003E695A9
:10217000E81BE093CB02823049F4F0E0E15EFC4FD3
:10218000E491CE2FD0E003EC1BE059C0863049F437
:10219000F0E0E45EFC4FE491CE2FD0E007ED1BE0D1
:1021A0004EC0893051F4E695F0E0E75EFC4FE491D3
:1021B000CE2FD0E002E11DE042C08F3051F4E69511
:1021C000F0E0EA5EFC4FE491CE2FD0E00CE41DE09D
:1021D00036C0853149F4F0E0ED5EFC4FE491CE2F3E
:1021E000D0E008EC1DE02BC08831D9F0833239F4FF
:1021F000E1E1F3E0C591D49107EE1BE020C0843209
:10220000A9F08532C1F48E2F63E00E947630E92F69
:10221000F0E0E25FFC4FE491CE2FD0E004E01FE05D
:102220000EC0C8E2D0E007E31EE009C0C4EFD1E071
:1022300006EC1EE004C0C0EDD7E004ED1AE080918A
:10224000CC02882389F01092CC020E9477249E0150
:1022500020953095820F931F9093CA028093C902F4
:102260001092CE021092CD028091C9029091CA02C2
:102270000E9483248C179D0790F0E091C902F09191
:10228000CA02CE0FDF1FD093CA02C093C90289ECE5
:1022900092E0F801DF91CF911F910F910994DF91A6
:1022A000CF911F910F910895882311F0FA0101C079
:1022B000FB010994CF93DF93C82FD62F0E941C0BEC
:1022C0008C1740F00E941C0B8D1720F4DF91CF91EA
:1022D0000C9447108C2FDF91CF910C9457100F93D3
:1022E0001F93CF93FB01C281CC2309F463C08C01FF
:1022F0000E94BE218272F801E25CFC45E431F105E6
:1023000008F059C0E35AFF4F0C94DA300E94621073
:1023100006C044E550E167E470E10E945411C0E05A
:102320004AC047E450E164E570E1F7CF40ED5CE07E
:1023300063EC7CE0F2CF43EC5CE060ED7CE0EDCF61
:102340004EEE5CE06FED7CE0E8CF4FED5CE06EEED2
:102350007CE0E3CF4CE05DE06DEF7CE0DECF4DEF65
:102360005CE06CE07DE0D9CF4FE45BE068E37BE0CC
:10237000D4CF48E35BE06FE47BE0CFCF81E017C0D0
:1023800065E082E010C068E086E00DC06EE089E0A4
:102390000AC064E18FE007C067E185E104C088E11D
:1023A00006C062E289E10E945A11B9CF83E20E941D
:1023B0005710B5CFC1E08C2FCF911F910F91089589
:1023C000579A2BB12F773BB130684FB7F894FC0187
:1023D000660F771F660F771F6E0F7F1FE617F707D1
:1023E00089F0819198E03BB9000000C087FF2BB9CC
:1023F000880F000000C000C000C02BB900C09A9533
:1024000091F7ECCF4FBF8FE594E00197F1F700C053
:1024100000000895CF93DF9397FF0DC0FB01228149
:10242000222349F0EC010E943512CE019F770E94D1
:1024300076120E945F1281E0DF91CF9108958CE0C7
:1024400090E00E949B3290E0A0E0B0E080933104E5
:1024500090933204A0933304B093340408956091B0
:1024600031048CE090E00C94AF320E94BE21809346
:1024700035040E94D12180913104813071F048F0FF
:10248000823081F08430A1F486EE0E947A1888E1CF
:102490000DC082EE0E9463170BC088E193E00E949A
:1024A0003A0606C082EE0E94631787E50E947A18FA
:1024B0008FE39CE90197F1F700C000000895809137
:1024C0003104813039F040F0823031F0843051F401
:1024D00088E206C08CE204C082EE0E94121802C09C
:1024E0000E947A18809135040C94CE210F931F938B
:1024F000CF93DF938C01CCE0D0E0C8010C2E02C05A
:10250000969587950A94E2F78F700E94A0060E9424
:102510007A182497CC3F8FEFD80779F7DF91CF91C6
:102520001F910F9108950F931F93CF93DF93EC01A9
:102530008B01FB018281882361F00E94BE21CE01C4
:10254000815E9C458530910520F4809331040E9482
:102550002F12B801CE01DF91CF911F910F910C94F2
:102560000A12AF92BF92CF92DF92EF92FF920F9337
:102570001F93CF93DF937C015B01C42FD22FFC010B
:1025800082818823F9F04093D4020E9477249093AB
:10259000D3028093D20280E28C0F883008F06EC0A4
:1025A000C77081E001C0880FCA95EAF7DF91CF912B
:1025B0001F910F91FF90EF90DF90CF90BF90AF9061
:1025C0000C948D188091D402481335C08091D202AA
:1025D0009091D3020E9483246C01B701C5010E942F
:1025E0007E1EC816D90638F510E21D0FCD17B9F0BA
:1025F00080E28C0F883040F4C77081E001C0880F02
:10260000CA95EAF70E949418183058F581E09D2F7A
:10261000977001C0880F9A95EAF70E948D18802F55
:102620000E947A18183050F5D77081E001C0880FE9
:10263000DA95EAF70AC080E28C0F8830F8F4C770A8
:1026400081E001C0880FCA95EAF7DF91CF911F9111
:102650000F91FF90EF90DF90CF90BF90AF900C94D0
:102660009418802FDF91CF911F910F91FF90EF90E1
:10267000DF90CF90BF90AF900C947A18DF91CF91FC
:102680001F910F91FF90EF90DF90CF90BF90AF9090
:1026900008950F939C01CB01233F4CE5340731F1A2
:1026A00088F4283DFCE53F07D9F0293D4CE5340787
:1026B00079F1273D3C45A9F506E221EE41EE67EDB3
:1026C0007CE52BC0253FFCE53F07E1F0A8F0263F65
:1026D0003C4539F507E225EE46EE66EF7CE51DC088
:1026E00007E225EE45EE68ED7CE517C006E221EE37
:1026F00040EE63EF7CE511C007E225EE44EE64EFA7
:102700007CE50BC006E221EE42EE65EF7CE505C0FC
:1027100008E221E045EE69ED7CE50E94B11280E01F
:1027200008C0FC018281882319F01092D40201C0F4
:1027300081E00F910895CF93DF93EC01FB0182813B
:10274000882309F41FC1C230FCE5DF0708F41BC170
:10275000C6319CE5D90738F09E012A5F3C452930F7
:10276000310508F010C10E94852290933B048093AC
:102770003A04C031ECE5DE0709F4C3C008F041C0FB
:10278000C8308CE5D80709F49AC0F0F4C430ECE501
:10279000DE0709F487C068F4C2308CE5D80709F475
:1027A00077C0C330DC4509F0E3C080913A04826011
:1027B00076C0C630ECE5DE0709F46EC008F07BC0D9
:1027C00080913A0488606BC0CC308CE5D80709F45E
:1027D00085C068F4CA30ECE5DE0709F474C008F07F
:1027E00079C00E94C51B80913A04806858C0CE30E1
:1027F0008CE5D80709F476C008F07FC080913A04D0
:102800008BC0CB3FECE5DE0709F44FC018F5C331B0
:102810008CE5D80709F47DC078F4C131ECE5DE071A
:1028200009F473C0C231DC4509F0A2C00E94C51B87
:1028300080913A048F7733C0C5318CE5D80709F40D
:1028400072C008F486C0CA3FDC4509F091C080918F
:102850003B043EC0CF3FFCE5DF0709F45FC058F4FE
:10286000CD3F9CE5D90709F444C008F43FC08091EE
:102870003B0482602DC0C130FDE5DF0709F475C05F
:1028800008F45DC0C230DD4509F072C080E06EC062
:1028900080913A04816003C080913A048061809302
:1028A0003A0466C080913A0411C080913B04826072
:1028B00080933B045DC080913A048062F0CF8091A8
:1028C0003A048064ECCF80913A0488608460E7CF5A
:1028D0008160EECF80913A048E7FE1CF80913A04FF
:1028E0008D7FDDCF80913A04877FD9CF80913B04E3
:1028F00018C080913B048D7FDBCF80913A048F7E9E
:10290000CECF80913A048F7DCACF80913A048F7BDD
:10291000C6CF80913A04877F8B7FC1CF80913B04E3
:102920008D7F8E7FC5CF80913A0482FB222720F9CC
:1029300091E0922790FB82F990FB83F9B0CF8091D0
:102940003B04982F909591708E7F892B90FB81F995
:10295000AFCF0E94C51B80913A0487FB222720F944
:1029600091E0922790FB87F99ACF81E00E94112392
:1029700080913A0490913B040E9496220E94C51BCC
:1029800080E001C081E0DF91CF910895CF93DF9384
:1029900086319C4541F5EB010E94BE21982F8A812A
:1029A00020911F0130912001882379F09A7A81E0EB
:1029B00009F480E08093D502911102C069E201C060
:1029C00065E3C9010E94AC230AC08091D502811140
:1029D00002C069E201C065E3C9010E94B7230E94F9
:1029E0000F2280E001C081E0DF91CF910895109225
:1029F000B9008CE08093B8000895EF92FF920F9396
:102A00001F93CF93DF93182FEB011092BC0084EA41
:102A10008093BC000E9477247C018091BC0087FDDC
:102A20000EC0CF3F8FEFD807C1F30E9477248E19D5
:102A30009F098C179D0788F38EEF9FEF2EC0809122
:102A4000B900887F883041F08091B900887F80315B
:102A500019F08FEF9FEF21C01093BB0084E88093A3
:102A6000BC000E9477248C018091BC0087FD0CC0C3
:102A7000CF3F8FEFD807C1F30E947724801B910BC3
:102A80008C179D0788F3D8CF8091B900887F883153
:102A900011F08034F1F680E090E0DF91CF911F914A
:102AA0000F91FF90EF9008950F931F93CF93DF93B3
:102AB000EB018093BB0084E88093BC000E947724E4
:102AC0008C018091BC0087FD0EC0CF3F8FEFD807EF
:102AD000C1F30E947724801B910B8C179D0788F30C
:102AE0008EEF9FEF0CC02091B900287F81E090E02D
:102AF000283211F480E090E0919581959109DF9161
:102B0000CF911F910F9108950F931F93CF93DF9350
:102B1000EC0184E88093BC000E9477248C018091B2
:102B2000BC0087FD0EC0CF3F8FEFD807C1F30E94D6
:102B30007724801B910B8C179D0788F38EEF9FEFF6
:102B400003C08091BB0090E0DF91CF911F910F9166
:102B5000089584E98093BC0008959093DB028093EC
:102B6000DA020895E091DA02F091DB02309721F069
:102B70000190F081E02D099480E00895E091DA025F
:102B8000F091DB02309799F020913101222359F026
:102B900020913A0427FF07C0DC012C9111962C9359
:102BA000119725E02C930280F381E02D099408957C
:102BB000E091DA02F091DB02309739F022E0DC019B
:102BC0002C930480F581E02D099408952091D8027A
:102BD0003091D9022817390771F09093D902809368
:102BE000D802E091DA02F091DB02309721F0068002
:102BF000F781E02D099408952091D6023091D702F3
:102C00002817390771F09093D7028093D602E0918C
:102C1000DA02F091DB02309721F00084F185E02D9B
:102C20000994089585B7806885BF85B7806885BF9A
:102C3000089508950C9419160C941A160C941916EC
:102C40000C9419160E9412160E941E160C941C1643
:102C500081E008950C9428160E946E240E94400979
:102C60000E94EA240E946C100C942016AF92BF922E
:102C7000CF92DF92EF92FF920F931F93CF93DF9348
:102C8000CDB7DEB72A970FB6F894DEBF0FBECDBF23
:102C90000E9451090E942A16811111C08FEF898369
:102CA0008A831B820E9477248160782F9D838C8386
:102CB00049815A816B818D810E940C1740C08DED36
:102CC000A82E82E0B82E00E010E0C02E802F0E94D7
:102CD0003209E82EF501D1905F01D82631F40F5F5B
:102CE0001F4F0E30110589F7D9CF8091990381FDCF
:102CF0000E94380980E0FF24F3949D2D9F21D1F09C
:102D00008E83CF82EF2081E009F480E088870E94E3
:102D100077248160782F9A8789874E815F816885C3
:102D20008A850E940C17F801E352FD4F8081F82636
:102D3000F08205C08F5FFF0C8630F9F6D0CF0E947D
:102D4000AA100E9499260E94B2159091DC02891760
:102D5000B1F00E94B2158093DC022A960FB6F89467
:102D6000DEBF0FBECDBFDF91CF911F910F91FF90BE
:102D7000EF90DF90CF90BF90AF900C94B5062A965D
:102D80000FB6F894DEBF0FBECDBFDF91CF911F917C
:102D90000F91FF90EF90DF90CF90BF90AF9008958C
:102DA000DC0111962C9111978C91682F70E041E015
:102DB00050E001C0440F8A95EAF712968C91129761
:102DC00030E0882329F08091FB028823E9F006C0D7
:102DD000F901E551FD4F90819423B1F086E0829F87
:102DE000F001839FF00D1124E60FF71FEE0FFF1F78
:102DF000EE5CFE4F808191818D939C93F901E551AA
:102E0000FD4F8081482B06C0F901E551FD4F4095EB
:102E10008081482340830895CF93DF93CDB7DEB7F9
:102E20002B970FB6F894DEBF0FBECDBF942F4F8304
:102E3000252F588769877A878B874A855B85452B3D
:102E400031F02F3F31F481E09F3F19F403C081E05E
:102E500001C080E080FD04C0CE0107960E94D0161C
:102E6000DE01119686E0FD0111928A95E9F785E071
:102E7000FE01379601900D928A95E1F749815A81BA
:102E80006B817C818D819E810E94811E2B960FB665
:102E9000F894DEBF0FBECDBFDF91CF910895FC0146
:102EA000808191810E94572192959F70963051F4B4
:102EB000863F41F08091FB0291E089278093FB02DD
:102EC0009093FA020895CF93882309F4A9C0C82FDC
:102ED0008238C1F40E94B21581FDA2C069E38091DD
:102EE0001F01909120010E94AC230E940F222FEF1E
:102EF00081EE94E0215080409040E1F700C0000056
:102F000069E319C0833801F50E94B21580FD88C0BD
:102F100063E580911F01909120010E94AC230E94E3
:102F20000F222FEF81EE94E0215080409040E1F796
:102F300000C0000063E580911F01909120010E9474
:102F4000B723CF910C940F228438C1F40E94B2159C
:102F500082FD66C067E480911F01909120010E946C
:102F6000AC230E940F222FEF81EE94E0215080408D
:102F70009040E1F700C0000067E4DDCF8CEF8C0FDC
:102F8000813AF8F48C2F0E941029811149C06C2FCE
:102F900080911F01909120010E942C23882349F0E9
:102FA0006C2F80911F01909120010E94B7230E94F5
:102FB0000F226C2F80911F01909120010E94AC2361
:102FC000C0CF80E28C0F883048F4C77081E001C028
:102FD000880FCA95EAF70E94C121B3CFEBE5EC0F49
:102FE000E33040F4F0E0EC59FD4F808190E0CF9168
:102FF0000C94E615E8E5EC0FE73150F4F0E0EE0F45
:10300000FF1FEA5CFD4F80819181CF910C94FC15EC
:10301000C03F30F08C2F0E948E25CF910C947B26E0
:10302000CF910895882309F464C0823879F40E940E
:10303000B21581FF5EC069E380911F01909120016C
:103040000E94AC230E940F2269E310C08338B1F4C0
:103050000E94B21580FF4DC063E580911F019091E1
:1030600020010E94AC230E940F2263E580911F0182
:10307000909120010E94B7230C940F22843879F498
:103080000E94B21582FF35C067E480911F019091C4
:1030900020010E94AC230E940F2267E4E7CF9CEF3F
:1030A000980F913A10F4682FE1CF90E2980F983082
:1030B00050F4877091E001C0990F8A95EAF7892F43
:1030C0000E94C721D9CF9BE5980F933020F480E070
:1030D00090E00C94E61598E5980F973120F480E085
:1030E00090E00C94FC15803F20F00E94F6250C9493
:1030F0007B260895CF93C82F0E946317C93349F4E4
:103100002FEF87EE93E0215080409040E1F700C020
:1031100000008C2FCF910C941218882321F00E946C
:10312000C1210C940F220895882321F00E94C72109
:103130000C940F2208956F927F928F929F92BF926C
:10314000CF92DF92EF92FF920F931F93CF93DF9373
:103150006C01C62F172FFC01058102950F70D281DB
:10316000D1110E94E1210E94B7218823B9F0DD230B
:10317000A9F0812F807F803441F090E29C0F98303D
:1031800068F0803611F4C63F49F082E00E9459226F
:103190000E94B72191E0B82EB92601C0B12CE12ED2
:1031A000E2949FE0E9228E2D90E0FC01EF58FF4F62
:1031B0000C94DA30012F0F70812F807F11F002956F
:1031C000007FDD2399F0002309F4A5C180E28C0F74
:1031D000883010F0C11104C0802F0E94C12103C0AB
:1031E000802F0E94D4210E940F2295C18C2F0E9413
:1031F0001218002309F441C280E28C0F883010F0CD
:10320000C11104C0802F0E94C72103C0802F0E94DB
:10321000DA210E940F2231C2912F9F70812F807F6F
:10322000F92E803219F0F29480EFF822CC2319F0B5
:10323000C130C9F021C0DD2371F0002341F001301D
:1032400031F40E94F4218F290E94FC211BC20E94AC
:10325000F4218F2916C0002319F0013009F40DC2A2
:103260000E9405221EC0DD2321F0023008F00AC2B0
:1032700007C0011102C215C0DD2331F001114BC19D
:103280008F2D0E948D18FEC1002359F0C93309F01B
:1032900051C1FFEF27EE83E0F15020408040E1F77D
:1032A00047C18F2D0E949418E8C1812F869586957D
:1032B000837019F0813071F0AFC1DD2331F08C2FB4
:1032C000912F93700E94E615B1C180E090E00E94BA
:1032D000E615B3C1DD2331F08C2F912F93700E943E
:1032E000FC15A4C180E090E00E94FC15A6C18C2FC3
:1032F000DD2329F00E948E250E947B2697C10E9423
:10330000F6250E947B2699C1812F837009F048C061
:10331000D11186C12C2F229526952770220F220FBE
:103320006C2F6F70862F90E0A0E0B0E0022E04C0FA
:10333000880F991FAA1FBB1F0A94D2F7C4FF10C0A1
:103340004FE050E060E070E004C0440F551F661F7E
:10335000771F2A95D2F7409550956095709503C0D8
:1033600040E050E0BA01212F2695269523703A01BE
:103370004B01682A792A8A2A9B2AC401B301223088
:1033800049F058F4213019F00E94D21F49C10E941F
:10339000C01F46C10E94E41F43C10E94BE1F40C11E
:1033A000DD2319F0812F817001C08695882309F4EF
:1033B00037C12C2F229526952770220F220F6C2FB4
:1033C0006F70862F90E0A0E0B0E0022E04C0880F5E
:1033D000991FAA1FBB1F0A94D2F7C4FF10C04FE069
:1033E00050E060E070E004C0440F551F661F771F77
:1033F0002A95D2F7409550956095709503C040E0AE
:1034000050E0BA01212F2695269523703A014B01F1
:10341000682A792A8A2A9B2AC401B301223049F0FA
:1034200058F4213019F00E949720FAC00E9485209C
:10343000F7C00E94A920F4C00E94F81FF1C0012F1C
:103440000F70DD2339F0802F0E941E208C2F0E94E8
:103450008D18E6C08C2F0E949418802F0E943F2068
:10346000DFC0C23F61F128F4C03F41F0C13FB9F075
:103470001DC0C33F71F1C43FB1F118C0DD2339F065
:10348000011100C1812F8F710E946420FBC00230A6
:1034900008F0F3C0812F8F710E946420EEC0DD23FD
:1034A00049F0812F8F710E941E20ECC0D11131C0D4
:1034B000011135C0812F8F710E943F20DEC0812F06
:1034C0008F71DD2319F00E943F20DCC00E941E2076
:1034D000D4C0DD2329F0812F8F710E940920D2C032
:1034E0000E940420CAC0DD2351F0012F0F71802FEC
:1034F0000E941E2063E0802F0E944422C3C081E00E
:103500000E945922023008F4B8C082E00E94592279
:10351000B4C0002331F28C2F0E946317B3C0C933AB
:1035200049F42FEF87EE93E0215080409040E1F77F
:1035300000C000008C2F0E9412189FC0412F4F70B6
:103540006C2FC6010E9417070E942F1F6DC08C2F81
:1035500090E0FC01E05FF109E730F10578F5EF5705
:10356000FF4F0C94DA30DD2309F450C09091FB0238
:1035700081E0892705C0D093FB0248C081E08D27F8
:103580008093FB0243C0D11141C081E0F9CFD1113A
:103590003DC01092FB023AC0DD2319F00E948F213A
:1035A00035C00E949B2132C0DD2329F08091FA02B0
:1035B0008823E1F229C00023C9F228C08091FA02D1
:1035C0000023C1F0882341F09091FB0281E089271C
:1035D0008093FB021092FA028C2FDD2319F00E94D7
:1035E000631714C00E94121886E0F60111928A95A2
:1035F000E9F70CC0882351F0D11108C09091FB026B
:1036000081E089278093FB021092FA02412F4F70CC
:103610006C2FC6010E941A0788EF8E0D843020F4AB
:103620000E94B2150E94B506DD2339F0107F1036D6
:1036300011F4C63F11F00E94A921BB2041F10E9464
:103640008B2180FD24C0F60112820E9485210E94F8
:103650001E20C6010E946D1B0E948521DF91CF9123
:103660001F910F91FF90EF90DF90CF90BF909F90B0
:103670008F907F906F900C943F2088EF8E0D843058
:10368000E0F6CECF88EF8E0D843080F6C9CFDF9183
:10369000CF911F910F91FF90EF90DF90CF90BF904F
:1036A0009F908F907F906F9008950F931F93CF936B
:1036B000DF93EC01688179818A810E9462218C010B
:1036C0000E94BB200E94AC1FB801CE010E949B1833
:1036D000DF91CF911F910F910895CF93DF93EC016C
:1036E000988189812B813C81232B31F08F3F31F4EC
:1036F00081E09F3F19F403C081E001C080E080FDBC
:1037000019C0CE010E94CE0681110CC00E94B721C3
:10371000882381F08A81882369F082E0DF91CF914C
:103720000C945922CE010E94551BCE01DF91CF91FE
:103730000C948906DF91CF910895882321F00E948F
:10374000D4210C940F220895882321F00E94DA21BD
:103750000C940F2208950E94E1210E94F1210E9401
:103760000F220E94AC270E947B2680E090E00E94FE
:10377000E61580E090E00C94FC1580911F0190917B
:1037800020010E94C2230C94AB1B0E94D1210C94F7
:10379000BD1BE92FE295EF704E2F50E0FA013297F2
:1037A000EE30F105B0F4E857FF4F0C94DA30803F6B
:1037B00091F018F4883E68F40EC0843F51F40BC0B9
:1037C000883E48F0813F29F406C093FB882780F9A2
:1037D000089580E0089581E008950E9457210E9495
:1037E000C91B0895CF93DF9300D000D01F92CDB7AF
:1037F000DEB70F900F900F900F900F90DF91CF9149
:103800000895CF93DF9300D000D000D0CDB7DEB7BE
:1038100026960FB6F894DEBF0FBECDBFDF91CF91D5
:1038200008951F93CF93DF93C091FC0216E080911F
:10383000FD02C81799F0D0E01C9FF0011D9FF00D0C
:103840001124E250FD4F4081518162817381848156
:1038500095810E94011C2196C770E9CFDF91CF911D
:103860001F91089540912E0350912F0360913003D2
:103870007091310380913203909133030C94011CB9
:103880000F931F93CF93DF938091330382958F70B3
:1038900009F05DC080913003882309F458C08091FD
:1038A000FC021091FD0260912E0370912F03C091D4
:1038B0003103D091320391E06F3F09F090E0292F5E
:1038C00006E0811709F443C0209721F07F3F21F0E3
:1038D00030E003C031E001C0322F90E030FD34C051
:1038E000089FF001099FF00D1124DF01A250BD4F88
:1038F00011963C911197371327C03C91361324C081
:1039000012963C91129731111FC013964D915C9104
:1039100014974C1B5D0B483C5105B0F48091330368
:103920008F70806180933303ED5FFC4F80818F70D7
:10393000806180838EE293E00E946D1BDF91CF91C6
:103940001F910F910C94111C01968770BACFDF91D3
:10395000CF911F910F9108959F92AF92BF92CF92F6
:10396000DF92EF92FF920F931F93CF93DF93CDB728
:10397000DEB761970FB6F894DEBF0FBECDBF8C01E6
:1039800085E0F801DE011D9601900D928A95E1F720
:10399000F80140815181E28090912E0360912F03C4
:1039A00020913103309132032115310531F06F3F01
:1039B00031F481E09F3F19F403C081E001C080E051
:1039C000F82FF1709F2E80FD46C1F801A380B480CE
:1039D0008EE2C82E83E0D82EF0903003F501E21B72
:1039E000F30BFF2009F4DFC080913303E83CF105BD
:1039F00008F09BC0282F207F09F052C0561313C037
:103A0000491311C0FE2CE1100EC08F7080618093AD
:103A100033030E94321CC6010E946D1B8091330348
:103A2000F801858358C1AB2831F05F3F31F481E064
:103A30004F3F19F403C081E001C080E080FD03C066
:103A400081E08E2502C080E090E0F82FF170FF2E1B
:103A500080FF1CC08091FC022091FD0236E082179D
:103A600009F417C190E0389FF001399FF00D11243F
:103A7000E250FD4F6181561306C06081461303C0BA
:103A80006281E61203C001968770E9CFFE2CEE201A
:103A900009F421C1809133038160809333035AC0BC
:103AA000561306C0491304C0E11002C0F8019FC0BC
:103AB0004D875E878D859E850E94ED1B882379F159
:103AC000EE2069F120913303822F82958F7090E070
:103AD000029774F080912E0390912F0398878F8323
:103AE0001986BB86AA862C87CE0107960E946D1B7D
:103AF00086E0F801AEE2B3E001900D928A95E1F71D
:103B00000E94401C0E94321C0DC0561729F14D879F
:103B10005E878D859E850E94ED1B81112CC0C8019A
:103B20000E946D1BFF24F394D6C0282F207F69F7D5
:103B30007A2DB98AA88A6E2D89890E94F21B8EE29D
:103B400093E00E946D1B86E0F60111928A95E9F7D9
:103B50000E94321CF12CBFC04913D9CFE110D7CF3E
:103B6000F8018583C8010E946D1B86E0F601119261
:103B70008A95E9F7B0C0EE2091F220913303822FAD
:103B800082958F7090E002970CF4B2CF80912E0353
:103B900090912F039A8389831B82BD82AC822E83EE
:103BA000CE010196A3CFE83CF10508F047C0FE2CFA
:103BB000EE2009F4B4CF561330C049132EC0209123
:103BC000330320FD21C0822F82958F70482F50E053
:103BD00041155105C9F0F80125834F30510541F0D9
:103BE0008F5F982F9295907F822F8F70892B85837E
:103BF000C8010E946D1B86E0F801AEE2B3E00190BF
:103C00000D928A95E1F742C086E0F801AEE2B3E09A
:103C100001900D928A95E1F75EC04D875E878D8594
:103C20009E850E94ED1B811163CF809133038160DB
:103C300080933303C8010E946D1B4DC07A2DB98A51
:103C4000A88A6E2D89890E94F21B86E0F6011192E6
:103C50008A95E9F71BC0EE2009F461CF4D875E8796
:103C60008D859E850E94ED1BF82E882309F457CF81
:103C700086E0F801AEE2B3E001900D928A95E1F79B
:103C80008EE293E00E944F170E94401C0E94321C5B
:103C900022C04D875E878D859E850E945721292FE2
:103CA00022952F70223028F49F7039F0811105C0C1
:103CB0000BC0243028F49F7049F4805E883020F0D7
:103CC000C8010E946D1B9F2CF92C05C0F80195813D
:103CD000907F99F7F9CF8F2D61960FB6F894DEBFDC
:103CE0000FBECDBFDF91CF911F910F91FF90EF904D
:103CF000DF90CF90BF90AF909F90089588EC90E0B8
:103D000008951F93CF93DF93CDB7DEB72C970FB6EF
:103D1000F894DEBF0FBECDBF4F83588769877A877F
:103D20008B879C87CE0107960E94AC1C8823D1F01C
:103D30009F8188852A853B85232B31F08F3F31F485
:103D400081E09F3F19F403C081E001C080E080FD65
:103D500047C04F81588569857A858B859C850E94EF
:103D6000011C3EC086E0FE013796DE0111960190EF
:103D70000D928A95E1F7FF81E8856A857B8561155B
:103D8000710531F0EF3F31F481E0FF3F19F403C0DA
:103D900081E001C080E080FD23C02091FD0230E081
:103DA000C9010196877099274091FC0250E0841761
:103DB0009507F1F1F983EA837D836C8396E0929F06
:103DC000D001939FB00D1124A250BD4FFE0131963A
:103DD00001900D929A95E1F78093FD020E94111CCB
:103DE00016E08091FC029091FD02891771F1189FF5
:103DF000C001112482509D4F0E94AC1C882329F1E0
:103E0000E091FC021E9FF0011124E250FD4F408121
:103E1000518162817381848195810E94011C80910E
:103E2000FC0290E00196877099278093FC02D9CF1D
:103E30000E94C51B1092FD021092FC02EEE2F3E01C
:103E400086E0DF011D928A95E9F72C960FB6F8946B
:103E5000DEBF0FBECDBFDF91CF911F910895EF92CE
:103E6000FF920F931F93CF93DF938C01892B09F45B
:103E70006CC0F12CEE24E394E8012196F8018491C2
:103E8000843740F4843008F051C0813081F08230B2
:103E900019F15BC0853709F444C0A8F19CE7980F7D
:103EA000903708F052C08F770E94121841C00E5F01
:103EB0001F4FFE01849190E2980F983050F4877064
:103EC000FE2D01C0FF0F8A95EAF78F2F0E94E42193
:103ED00014C00E9463172DC00E5F1F4FFE01849116
:103EE00090E2980F983060F48770FE2D01C0FF0FAC
:103EF0008A95EAF78F2F0E94EA210E940F2219C0AB
:103F00000E94121816C00E5F1F4FFE01C491CC23F1
:103F100081F08FE99FE00197F1F700C00000C150E8
:103F2000F6CF0E5F1F4FFE01F49003C00E9463178F
:103F30008E018F2D882309F49FCFEFE9FFE03197A1
:103F4000F1F700C000008150F5CFDF91CF911F91B4
:103F50000F91FF90EF900895089508950C94AD1F70
:103F60000C94AE1F0E94B01F60936F037093700398
:103F700080937103909372030C94AB1B0C94B21F4B
:103F80000F931F9300916F031091700320917103A1
:103F900030917203602B712B822B932B1F910F9109
:103FA0000C94B21F0F931F9300916F031091700335
:103FB0002091710330917203602371238223932334
:103FC0001F910F910C94B21F0F931F9300916F03D9
:103FD0001091700320917103309172036027712753
:103FE000822793271F910F910C94B21F0C94AD1F41
:103FF0000E94F61F60936B0370936C0380936D03B4
:1040000090936E030C94AB1B60E070E0CB010C94BA
:10401000F81F0F931F9341E050E060E070E08A01C9
:104020009B0104C0000F111F221F331F8A95D2F776
:10403000C901B8011F910F910C94F81F0F931F93A2
:1040400041E050E060E070E004C0440F551F661F7F
:10405000771F8A95D2F780916B0390916C03A091A2
:104060006D03B0916E038A019B01082B192B2A2B3B
:104070003B2BC901B8011F910F910C94F81F0F93AE
:104080001F9341E050E060E070E004C0440F551F12
:10409000661F771F8A95D2F7409550956095709569
:1040A00080916B0390916C03A0916D03B0916E03AE
:1040B0008A019B01082319232A233B23C901B80144
:1040C0001F910F910C94F81F0F931F9341E050E044
:1040D00060E070E004C0440F551F661F771F8A958B
:1040E000D2F780916B0390916C03A0916D03B09116
:1040F0006E038A019B01082719272A273B27C9013C
:10410000B8011F910F910C94F81F0F931F9300910A
:104110006B0310916C0320916D0330916E03602B43
:10412000712B822B932B1F910F910C94F81F0F93DF
:104130001F9300916B0310916C0320916D033091DC
:104140006E0360237123822393231F910F910C949C
:10415000F81F0F931F9300916B0310916C03209134
:104160006D0330916E0360277127822793271F917B
:104170000F910C94F81F0895292F220F920F990F79
:10418000890FE82FE695E695E695877051E001C026
:10419000550F8A95EAF785E0E89FF0011124EC5C61
:1041A000FC4F20E030E070E04081CB01022E02C0E5
:1041B000969587950A94E2F78170819584278523E7
:1041C000842781932F5F3F4F2530310569F708958C
:1041D000292F220F920F990F890F682F66956695E8
:1041E0006695982F977085E0689FB001112440E094
:1041F00050E080E0FB01E40FF51FEC5CFC4F2081F8
:1042000030E0092E02C0369527950A94E2F7217016
:104210003327042E01C0220F0A94EAF7822B4F5F46
:104220005F4F4530510531F70895BF92CF92DF922D
:10423000EF92FF920F931F93CF93DF938C01C09067
:104240006B03D0906C03E0906D03F0906E0380914F
:104250006F0390917003A0917103B0917203C82A0B
:10426000D92AEA2AFB2ACFE1D0E0D701C6010C2ED9
:1042700004C0B695A795979587950A94D2F780FDC7
:1042800004C0219790F7B12C07C0BC2EB8018C2F29
:104290000E9436070197A9F38B2DDF91CF911F91D3
:1042A0000F91FF90EF90DF90CF90BF900895CF9344
:1042B000DF93EC010E941521BE010E943607DF91B9
:1042C000CF9108951F93CF93DF93EB019091F90263
:1042D000992321F0CB010E94572113C0882349F074
:1042E000CB010E941521182F682FCE010E94BC20FF
:1042F00004C0CB010E94E820182FBE01812F0E942C
:104300003607DF91CF911F910895809174038595B1
:10431000859585950895809174038770089582E04E
:104320008093730381E08093FB02089510927303DE
:104330001092FB02089580917303823019F481E09A
:104340008093730380917303833011F40C9496214E
:10435000089580917303823019F483E0809373038E
:1043600080917303813011F40C94962108959091FB
:104370007403977081E009F480E0089580919803B8
:10438000089590919803892B8093980308958095C0
:1043900090919803892380939803089580939803BC
:1043A000089510929803089590919703892B809314
:1043B000970308958095909197038923809397039D
:1043C000089510929703089590919603892B8093F6
:1043D0009603089580959091960389238093960380
:1043E0000895109296030895809175030895089595
:1043F0000C94F7210C94F82190917503981721F0F3
:10440000809375030C94FA21089580917503882395
:1044100029F01092750380E00C94FA210895E09140
:104420001F01F0912001809198038083E0911F018A
:10443000F0912001908180919703892B8083E091F6
:104440001F01F0912001908180919603892B808338
:1044500080917503882381F0E0911F01F091200184
:104460009081892B808380911F01909120010E946F
:10447000162381110E94052280911F019091200135
:104480000C94BE150C94F72198E0899F900111249B
:10449000262B209374030E941E208091740385951F
:1044A000859585950C9442221092740380E00C94BB
:1044B0004222209174038095822380937403982F65
:1044C000977079F430E0482F082E000C550B241714
:1044D000350739F08595859585950E943F200C9488
:1044E0005422089580E090E00E94A93221E08C3EA1
:1044F0009E4F09F020E0822F089582E090E00C9416
:104500009B3283E090E00C949B32CF9384E090E068
:104510000E949B32C82F81E290E00E949B322C2F98
:1045200030E0A901582BCA01CF910895CF93C92F2C
:10453000682F84E090E00E94AF326C2F81E290E01F
:10454000CF910C94AF328FE090E00C94A332AB018A
:10455000BC018FE090E00C94C132AB01BC0183E15F
:1045600090E00C94C13260E070E0CB010C94AD227D
:104570006CEE7EEF80E090E00E94CD3260E082E061
:1045800090E00E94AF3260E083E090E00E94AF32A2
:1045900010926F03109270031092710310927203C5
:1045A00060E084E090E00E94AF3260E081E290E061
:1045B0000E94AF3260E085E090E00E94AF3260E0A0
:1045C00086E090E00E94AF326FEF87E090E00E94BB
:1045D000AF3240E050E0BA0188E090E00E94C13282
:1045E00060E08DE090E00E94AF3240E050E0BA0120
:1045F00088E190E00E94C13260E087E190E00E9493
:10460000AF3240E050E0BA018CE190E00E94C1324C
:1046100060E080E290E00E94AF320C94C9050C94F7
:10462000B822682F8EE090E00C94AF32FC013296F5
:1046300080913101882331F080913A0487FF02C0D4
:104640009EE101C096E080E0915028F02191222364
:10465000D9F38F5FF9CF0895662351F1209131018D
:104660002223E9F020913A0427FF19C0462F4695EE
:10467000469546954E31E0F4677021E030E002C087
:10468000220F331F6A95E2F7FC01E40FF11D8281CE
:1046900090E02823392381E0232B69F409C0FC0131
:1046A000329608962191621729F0E817F907D1F799
:1046B00080E0089581E008959C01FC0132969FEF0F
:1046C00080E04191461789F09F3F19F4411101C0E4
:1046D000982F8F5F8630A9F79F3F39F0F901E90FD6
:1046E000F11D97FDFA956283089508959C012A5F54
:1046F0003F4FFC014281461301C01282019682178E
:104700009307B9F70895262F2695269526952E31DD
:1047100068F4FC01E20FF11D677021E030E001C098
:10472000220F6A95EAF78281282B22830895262F8B
:104730002695269526952E3170F4FC01E20FF11D89
:10474000677021E030E001C0220F6A95EAF72095FA
:10475000828128232283089520913101222329F088
:1047600020913A0427FD0C9483230C945C23209120
:104770003101222329F020913A0427FD0C9497233C
:104780000C94762320913101FC013296222331F0E2
:1047900080913A0487FF02C08EE101C086E0DF010C
:1047A0001D928A95E9F7089508950C94D4230C94EA
:1047B000D423CF930E94D7230E9451090E94D5236E
:1047C000C0E08C2F0E943209811104C0CF5FCE302F
:1047D000C1F701C081E0CF9108950C94D4230C94CB
:1047E000ED230E94EF2380914004843009F439C006
:1047F00010929A0320E488E190E00FB6F894A8950F
:10480000809360000FBE2093600080E00E94B50698
:104810000E94A71080919B0381110AC081E08093C0
:104820009B038091F003817080939C030E94DA0FB8
:104830000E94EF2383B7817F846083BF83B7816049
:1048400083BF7894889583B78E7F83BF0FB6F89423
:10485000A89580916000886180936000109260004C
:104860000FBE08950C94D4230E94C51B0E94B2155C
:104870000E94B50610929B0380919C0381110E94B7
:104880009F100E94EC0F0C9432241F920F920FB6CF
:104890000F9211248F939F93AF93BF9380919A03AC
:1048A000811113C08091360490913704A09138048F
:1048B000B09139044196A11DB11D809336049093A7
:1048C0003704A0933804B0933904BF91AF919F91FE
:1048D0008F910F900FBE0F901F90189582E084BDAE
:1048E00093E095BD9AEF97BD80936E0008952FB722
:1048F000F8948091360490913704A0913804B091D7
:1049000039042FBF08959C014FB7F8948091360465
:1049100090913704A0913804B09139044FBF821BA5
:10492000930B089578941F920F920FB60F92112453
:104930008F939F93AF93BF938091360490913704E8
:10494000A0913804B09139040196A11DB11D809346
:10495000360490933704A0933804B0933904BF9180
:10496000AF919F918F910F900FBE0F901F90189550
:10497000F89481E08093E00080E28093D800E9EC35
:10498000F0E010828FE19EE40197F1F700C0000093
:104990001DBA109268001CBC10BE1FBA10927A009B
:1049A00010926E0010926F001092710010927200BF
:1049B0001082ECEBF0E0108214B817B81AB81DB8EA
:1049C00010BA108215B818B81BB81EB811BA0C94DA
:1049D000003F08950E947222811102C00E940F239D
:1049E0000E947D22809399030E94852290933B042C
:1049F00080933A040E948122682F70E080E090E06A
:104A00000E94BE1F60916B0370916C0380916D03D7
:104A100090916E030C94F61F8091A50380FF0BC04C
:104A20006091250185E0689FB00111247595679517
:104A3000759567952BC081FF09C06091250185E0C0
:104A4000689FB00111247595679520C082FF07C04B
:104A50006091250185E0689FB001112417C09091F5
:104A6000A4039923D1F060912401961788F720912F
:104A7000250185E0289F90011124929FA001939F1A
:104A8000500D112470E0CA010E94A43060387105F5
:104A900040F46115710519F406C065E070E0862FD9
:104AA00008958FE7089581E008958091A50380FF20
:104AB00008C06091220170E07595679575956795BE
:104AC00021C081FF06C06091220170E07595679555
:104AD00019C082FF04C06091220170E010C0909163
:104AE000A303992399F0609121019617A0F7809173
:104AF0002201899FC001112470E00E94A430603817
:104B0000710540F46115710519F406C061E070E0AB
:104B1000862F08958FE7089581E00895803F21F45E
:104B20000E940C25819504C0813F29F40E940C2528
:104B30008093A9030895823F21F40E940C2581955A
:104B400004C0833F29F40E940C258093A803089594
:104B5000893F19F40E94552505C08A3F31F40E940F
:104B6000552581958093AA0308958B3F21F40E94D7
:104B70005525819504C08C3F29F40E9455258093CA
:104B8000AB030895843F21F48091A703816017C08F
:104B9000853F21F48091A703826011C0863F21F4F4
:104BA0008091A70384600BC0873F21F48091A70305
:104BB000886005C0883F31F48091A70380618093AD
:104BC000A70308958D3F21F48091A50381600BC058
:104BD0008E3F21F48091A503826005C08F3F29F4A8
:104BE0008091A50384608093A5030895803F39F4E4
:104BF0008091A90387FF6AC01092A90367C0813F13
:104C000029F48091A9031816BCF360C09091A80301
:104C1000823F29F497FF5AC01092A80357C0833FE0
:104C200019F41916CCF352C09091AA03893F31F4BC
:104C300019160CF04BC01092AA0348C08A3F19F411
:104C400097FF44C0F8CF8B3F39F48091AB0387FFC7
:104C50003DC01092AB033AC08C3F29F48091AB0366
:104C60001816BCF333C0843F21F48091A7038E7FD4
:104C700017C0853F21F48091A7038D7F11C0863F27
:104C800021F48091A7038B7F0BC0873F21F4809193
:104C9000A703877F05C0883F31F48091A7038F7EEB
:104CA0008093A70313C08D3F21F48091A5038E7FCD
:104CB0000BC08E3F21F48091A5038D7F05C08F3FEF
:104CC00029F48091A5038B7F8093A5038091A8038D
:104CD000811106C08091A903811102C01092A40322
:104CE0008091AA03811106C08091AB03811102C09B
:104CF0001092A30308950E9477242091A803211104
:104D000004C02091A903222321F09093A203809351
:104D1000A1032091AA03211104C02091AB032223F7
:104D200021F09093A00380939F0386EA93E00C9474
:104D3000D815EF92FF920F931F93CF93DF9300D07C
:104D400000D000D0CDB7DEB786E0E6EAF3E0DE01C2
:104D5000119601900D928A95E1F7E090A803F090EA
:104D6000A9030091AA031091AB031092A80310921B
:104D7000A9031092AA031092AB03E11003C0FF2015
:104D800009F45DC08091A1039091A2030E94832445
:104D9000AC019091A403992339F02091260130E0D1
:104DA0002417350758F04BC020919E038AE0289FB6
:104DB000900111242417350718F041C09F3F19F0C6
:104DC0009F5F9093A403EE2061F00E940C251E14B7
:104DD00014F09FEF01C091E0989F902D11249093C3
:104DE000A803FF2061F00E940C251F1414F09FEF10
:104DF00001C091E0989F902D11249093A9033091C8
:104E0000A8033323E1F02091A9032223C1F045EB4D
:104E10003403C0011124992319F09093A80303C00F
:104E200081E08093A80335EB2303C001112499236B
:104E300019F09093A90303C081E08093A9030111A5
:104E400003C0112309F45DC080919F039091A003DA
:104E50000E948324AC019091A303992339F02091FF
:104E6000230130E02417350758F04BC020919D03F3
:104E70008AE0289F900111242417350718F041C0BB
:104E80009F3F19F09F5F9093A303002361F00E945E
:104E90005525101614F09FEF01C091E0989F902DBA
:104EA00011249093AA03112361F00E945525111635
:104EB00014F09FEF01C091E0989F902D11249093E2
:104EC000AB033091AA033323E1F02091AB032223FB
:104ED000C1F045EB3403C0011124992319F09093DC
:104EE000AA0303C081E08093AA0335EB2303C0012A
:104EF0001124992319F09093AB0303C081E08093B0
:104F0000AB038091A80381110BC08091A90381118B
:104F100007C08091AA03811103C08091AB03811166
:104F20000E947B26EB82FC820D831E8386E0FE01BD
:104F30003196A6EAB3E001900D928A95E1F72696A4
:104F40000FB6F894DEBF0FBECDBFDF91CF911F919A
:104F50000F91FF90EF900895E6EAF3E086E0DF011D
:104F60001D928A95E9F71092A4031092A303109260
:104F7000A5030895833081F128F4813059F08230FF
:104F8000D1F00895853009F449C0B8F1863009F4AC
:104F900056C0089580919E03262F30E0280F311DC2
:104FA0002F3F310524F4680F60939E0308958FEF1F
:104FB00080939E03089580912601262F30E0280FCC
:104FC000311D2F3F310524F4680F609326010895A9
:104FD0008FEF80932601089580912501262F30E0E0
:104FE000280F311D2F3F310524F4680F60932501F0
:104FF00008958FEF80932501089580912401262F35
:1050000030E0280F311D2F3F310524F4680F6093E5
:10501000240108958FEF8093240108958091220147
:10502000262F30E0280F311D2F3F310524F4680F63
:105030006093220108958FEF80932201089580915B
:105040002101262F30E0280F311D2F3F310524F498
:10505000680F6093210108958FEF809321010895D7
:10506000833011F128F4813049F0823091F00895B5
:10507000853081F120F18630C1F1089580919E0341
:10508000681720F4861B80939E03089510929E0358
:10509000089580912601681720F4861B80932601CD
:1050A000089510922601089580912501681720F433
:1050B000861B809325010895109225010895809103
:1050C0002401681720F4861B809324010895109210
:1050D0002401089580912201681720F4861B809393
:1050E00022010895109222010895809121016817EC
:1050F00020F4861B809321010895109221010895C8
:105100000F931F9341E050E060E070E08A019B0143
:1051100004C0000F111F221F331F8A95D2F7C90147
:10512000B8010E94BE1F1F910F910C94C51B482F00
:1051300050E0FA013597EF33F10508F060C0EA5608
:10514000FF4F0C94DA300E940F2355C080919903D1
:10515000817F8E7F8093990381E08093AD030895D2
:105160000E94BF0648C080919903982F9095917036
:1051700090FB80F98093990391113DC0897F877FCF
:1051800010C08091990381FB222720F991E092279A
:1051900090FB81F980939903992369F18091990398
:1051A00081608093990327C08091990382FB222715
:1051B00020F991E0922790FB82F9ECCF809199033E
:1051C00083FB222720F991E0922790FB83F9E2CF1D
:1051D0000E94C51B80913A0487FB222720F991E0A9
:1051E000922790FB87F980933A0405C0895301C048
:1051F0008D510E94802881E0089580E0FACF80E000
:10520000089580E008950C9401298E518A3030F47D
:10521000E82FF0E0E959FD4F8081089580E008957E
:10522000CF93C82F8091AD03813071F018F0823098
:10523000E1F184C00E94BE21813151F00E94BE2163
:10524000823209F07DC004C00E94BE21813149F440
:105250008C2F0E940329811109C08C2F0E9497284E
:1052600022C00E94BE21823221F4F2CF81E090E080
:105270001AC08C2F0E940129811114C0C43179F009
:1052800048F4CB3079F0C03109F05EC082E0809301
:10529000AD0308C0C93219F0C83321F055C01092CF
:1052A000AD0352C081E0817051C0C93279F108F577
:1052B000C43161F1A0F4C73009F044C010929E03DC
:1052C00084E180932601C09325018CE3809324011F
:1052D00088E08093220188E28093210133C082EE2E
:1052E0008C0F863078F58C2F0E9405298093AC03B3
:1052F00029C0CE34E9F020F4CB3421F56AE013C0A4
:10530000C13579F0C235F1F461E00DC08091AC0394
:10531000882319F01092AC0315C081E08093AD038F
:1053200015C061E006C08091AC030E94BA270AC094
:105330006AE08091AC030E94302804C01092AD0353
:1053400080E004C081E002C080E0ADCFCF9108953D
:105350008091CE030895CF93DF9300D01F92CDB7F5
:10536000DEB790914004943019F589837B836A837A
:1053700082E08093E9008FEF9091E800815095FDE5
:1053800006C095ED9A95F1F700008111F5CF809157
:10539000E80085FF0DC040E050E063E070E0CE0122
:1053A00001960E94D82B8091E8008E778093E800C8
:1053B0000F900F900F90DF91CF910895BC0184E082
:1053C0000C94AB29BC0183E00C94AB2922E0209320
:1053D000E9002FEF3091E800215035FD06C035ED92
:1053E0003A95F1F700002111F5CF2091E80025FF53
:1053F0000BC040E050E066E070E00E94D82B809146
:10540000E8008E778093E8000895CF93DF93209192
:105410003101222339F020913A0427FF03C060E2D2
:1054200022E002C068E021E02093E9002FEF3091F4
:10543000E800215035FD06C035ED3A95F1F7000042
:105440002111F5CF2091E80025FF1DC0EC018091CE
:105450003101811105C040E050E068E070E003C018
:1054600070E040E050E0CE010E94D82B8091E8002F
:105470008E778093E80080E2FE01AEEAB3E001900F
:105480000D928A95E1F7DF91CF91089580913F04C5
:10549000811109C00E94692D0E94C62D8091E200F1
:1054A00084608093E200089510923F040895089567
:1054B00008950C94342442E061EC81E00E94E22CD7
:1054C00042E261EC82E00C94E22C80914204833051
:1054D00009F460C030F4813071F0823009F499C071
:1054E00008958A3009F485C08B3009F46BC0893087
:1054F00009F0A7C020C080914104813A09F0A1C001
:105500008091E800877F8093E80080914504909126
:105510004604892B21F460E28EEA93E003C060E048
:1055200080E090E070E00E94232C8091E8008B776F
:105530008093E800089580914104813209F081C090
:105540008091450490914604029708F07AC08091BA
:10555000E800877F8093E8008091E80082FD05C025
:10556000809140048111F8CF6CC02091F3008091AC
:10557000F20090E0922B029729F48091F1008B7F4A
:10558000813021F48091F1008093CE038091E80076
:105590008B7753C080914104813A09F052C08091C9
:1055A000450490914604892B09F04BC08091E80096
:1055B000877F8093E8008091E80080FFFCCF809196
:1055C000310136C0809141048132D9F58091450482
:1055D00090914604892BA9F58091E800877F8093FC
:1055E000E8000E94172D80914304809331010C94B0
:1055F000C51B80914104813221F58091E800877FAD
:105600008093E8000E94172D809144048093CF037B
:10561000089580914104813AA1F48091E800877F48
:105620008093E8008091E80080FFFCCF8091CF0359
:105630008093F1008091E8008E778093E8000C94CD
:10564000172D089584B7877F84BF0FB6F894A89567
:1056500080916000886180936000109260000FBEAE
:1056600090E080E80FB6F894809361009093610019
:105670000FBE0E9422160E94692D0E94C62D8091A5
:10568000E20084608093E20078940E945B300E9484
:105690002C1687E291E00E94AD1580914004853080
:1056A00069F40E94F12380913E048823B1F30E94A3
:1056B000D923882391F30E94C22BEFCF0E94361684
:1056C000ECCF0C94632B292F332723303105C9F0FD
:1056D00060F42130310581F02230310509F04AC0F3
:1056E0008BE390E02CE735E049C02132310511F120
:1056F0002232310579F13EC082E190E027EB35E0BE
:105700003DC099278130910561F040F082309105CC
:1057100059F0039779F5E8E2F5E008C0E8E7F5E02D
:1057200005C0E6E4F5E002C0EEE2F5E0849190E029
:105730009F0124C06115710541F061307105D1F4FC
:1057400089E090E027EA35E019C089E090E02EE892
:1057500035E014C06115710541F06130710551F4F7
:105760008CEB90E029EC35E009C080E490E025E87E
:1057700036E004C080E090E020E030E0FA013183C0
:105780002083089580E189BD82E189BD09B400FECE
:10579000FDCF8091D8008F7D8093D8008091E0006C
:1057A00082608093E0008091E00081FDFCCF08954D
:1057B000CF92DF92EF92FF920F931F93CF93DF93DD
:1057C000EC018B017A010E94362D811133C0E11466
:1057D000F10439F0F70180819181081B190BC80F82
:1057E000D91FC12CD12C0115110519F18091E800A8
:1057F00085FD16C08091E8008E778093E800E11463
:10580000F10449F0F70180819181C80ED91ED1823F
:10581000C08285E00FC00E94362D882321F30AC084
:1058200089918093F10001501109FFEFCF1ADF0A2F
:10583000DACF80E0DF91CF911F910F91FF90EF9031
:10584000DF90CF90089520914704309148042617A7
:10585000370748F06115710539F42091E8002E777B
:105860002093E80001C0B901FC0120E06115710539
:1058700079F1809140048823F1F18530F1F1809134
:10588000E80083FD3CC08091E80082FD2EC080913D
:10589000E80080FFEBCF2091F3008091F20090E0D0
:1058A000922B6115710551F08830910538F42191E2
:1058B0002093F100615071090196F3CF21E0089720
:1058C00009F020E08091E8008E778093E800CECF49
:1058D0002111CFCF0AC080914004882361F0853028
:1058E00061F08091E80083FD0AC08091E80082FFAA
:1058F000F2CF80E0089582E0089583E0089581E08A
:10590000089520914704309148042617370748F03E
:105910006115710539F42091E8002E772093E80095
:1059200001C0B901FC0120E06115710591F1809180
:105930004004882309F440C0853009F43FC08091B9
:10594000E80083FD3DC08091E80082FD2FC080917A
:10595000E80080FFE9CF2091F3008091F20090E011
:10596000922B6115710559F08830910540F424910E
:105970002093F1003196615071090196F2CF21E038
:10598000089709F020E08091E8008E778093E80086
:10599000CBCF2111CCCF0AC080914004882361F085
:1059A000853061F08091E80083FD0AC08091E800B5
:1059B00082FFF2CF80E0089582E0089583E00895A9
:1059C00081E00895982F973068F59093E900981733
:1059D00039F07091EC002091ED005091F00003C07F
:1059E000242F762F50E021FD02C09F5FECCF309135
:1059F000EB003E7F3093EB003091ED003D7F309324
:105A0000ED003091EB0031603093EB007093EC00CF
:105A10002093ED005093F0002091EE0027FDE5CF9C
:105A200080E008958F708093E90081E0089580916F
:105A3000410487FF11C08091E80082FD05C080917C
:105A400040048111F8CF11C08091E8008B770BC022
:105A500080914004882349F08091E80080FFF8CFCE
:105A60008091E8008E778093E80008952091E4000B
:105A70003091E50095E64091EC00842F817040FF65
:105A800023C08091E80080FD1DC0809140048823E0
:105A900099F0853099F08091EB0085FD11C040911F
:105AA000E4005091E5002417350729F3915011F0D7
:105AB0009A01E1CF84E0089582E0089583E008959B
:105AC00081E0089580E008954091E80042FFDDCF35
:105AD00008950E94D72D0E94DF2DE0EEF0E0808136
