:100000000C9452020C94F9260C948A020C948A02E5
:100010000C948A020C948A020C948A020C948A0230
:100020000C948A020C948A020C942D210C94E920E1
:100030000C942A220C948A020C948A020C948A0250
:100040000C948A020C948A020C948A020C948A0200
:100050000C948A020C9406220C948A020C948A0254
:100060000C948A020C948A020C948A020C948A02E0
:100070000C948A020C948A020C948A020C948A02D0
:100080000C948A020C948A020C948A020C948A02C0
:100090000C948A020C948A020C948A020C948A02B0
:1000A0000C948A020C948A020C948A0229001E0085
:1000B0001F002000210022002B0014001A0008005D
:1000C00015001700E10004001600070009000A00EF
:1000D00035001D001B00060019000500000000008F
:1000E000E000E3002152E2002A002700260025005C
:1000F000240023003100130012000C0018001C0023
:10010000280033000F000E000D000B0034003800F3
:100110003700360010001100000000002152E300FB
:100120002C00E20001003A003B003C003D003E0094
:10013000010020782B782602270201000100237895
:1001400024782F02300201000100257826782F0044
:10015000300001000000000001000100010001006A
:100160004C0043004200410040003F0044000100B9
:10017000010052002E002D00450001004F005100EB
:1001800050004B00010001004D0001004A004E00EC
:100190000000000001000100010001001E0F050029
:1001A000047F3F1F643214643214783C1E1E140A0C
:1001B0000500010101010101010101020202020227
:1001C00002020202030303030303030304040404FF
:1001D00004040405050505050606060606070707C7
:1001E000070708080808090909090A0A0A0B0B0B7E
:1001F0000C0C0C0D0D0D0E0E0E0F0F0F101011111B
:10020000111212131314141515161617171818199E
:10021000191A1A1B1B1C1D1D1E1E1F202021222205
:10022000232424252626272829292A2B2C2D2D2E48
:100230002F30313232333435363738393A3B3C3D62
:100240003E3F404142434445464748494A4C4D4E53
:100250004F50515354555658595A5B5D5E5F616219
:1002600064656668696B6C6D6F7072737577787AA8
:100270007B7D7E8082838587888A8C8E8F91939503
:1002800096989A9C9EA0A2A3A5A7A9ABADAFB1B327
:10029000B5B7BABCBEC0C2C4C6C9CBCDCFD1D4D607
:1002A000D8DBDDDFE2E4E7E9EBEEF0F3F5F8FAFDA9
:1002B000FFFFAA7F55402223252628292A2C2D2FEF
:1002C0003032333536383A3B3D3E4042434547496C
:1002D0004A4C4E5051535557595A5C5E60626466A1
:1002E00068696B6D6F71737577797B7D7F818385AD
:1002F00087898A8C8E90929496989A9C9E9FA1A3AF
:10030000A5A7A8AAACAEAFB1B3B4B6B8B9BBBCBED2
:10031000BFC1C2C3C5C6C7C9CACBCCCDCED0D1D24E
:10032000D2D3D4D5D6D7D7D8D9D9DADADBDBDBDC50
:10033000DCDCDCDCDDDDDDDDDCDCDCDCDCDBDBDBFC
:10034000DADAD9D9D8D7D7D6D5D4D3D2D2D1D0CE5C
:10035000CDCCCBCAC9C7C6C5C3C2C1BFBEBCBBB961
:10036000B8B6B4B3B1AFAEACAAA8A7A5A3A19F9EDF
:100370009C9A98969492908E8C8A89878583817FA7
:100380007D7B79777573716F6D6B69686664626088
:100390005E5C5A5957555351504E4C4A4947454354
:1003A00042403E3D3B3A3836353332302F2D2C2AF1
:1003B00029282625232205010980A1018503190189
:1003C0002AB700150126B700950175108100C005F8
:1003D0000C0901A101850419012AA002150126A01A
:1003E00002950175108100C005010906A1010507EC
:1003F00019E029E71500250195087501810295018D
:10040000750881010507190029FF150026FF0095D1
:1004100006750881000508190129059505750191E2
:1004200002950175039101C009023B00020100A081
:10043000FA09040000010301010009211101000172
:10044000224000070581030800010904010001039F
:10045000000000092111010001223200070582037A
:10046000200001120100020000000810CB564200DB
:1004700004010200011803490072006900730020A2
:10048000005200650076002E002000340000000EAF
:10049000034B0065006500620069006F0000000406
:1004A0000309040011241FBECFEFDAE0DEBFCDBF89
:1004B00004B603FE18C08091640390916503A09177
:1004C0006603B09167038730904BA740B04B59F457
:1004D00010926403109265031092660310926703F2
:1004E000E0E0F8E3099523E0A8EEB1E001C01D9239
:1004F000A436B207E1F711E0A0E0B1E0E6E6F4E5EA
:1005000002C005900D92A83EB107D9F70E94512272
:100510000C94DD290C940000E8EDF0E080818E7FE2
:1005200080831092E2001092DA001092E100A0EEB7
:10053000B0E08C9181608C9380818F77808319BC2F
:10054000A7EDB0E08C918E7F8C9380818F7E80832D
:1005500010924A0308952091E4003091E50095E659
:10056000A9012091EC00822F817020FF06C08091AC
:10057000E80080FF06C080E008952091E80022FD99
:100580001AC080915703882389F0853089F08091C3
:10059000EB0085FD0FC02091E4003091E50042178B
:1005A0005307F9F29150E1F684E0089582E008954E
:1005B00083E0089581E008958091590387FF13C077
:1005C0008091E80082FF06C08091E8008B778093DD
:1005D000E80004C0809157038111F2CF0895809103
:1005E00057038823D9F38091E80080FFF8CF8091EA
:1005F000E8008E77ECCF982F9093E900242F762F88
:1006000050E0891731F07091EC002091ED0050918D
:10061000F00021FD07C09F5F973071F78093E900DC
:1006200081E008953091EB003E7F3093EB003091F4
:10063000ED003D7F3093ED003091EB003160309361
:10064000EB007093EC002093ED005093F0002091AC
:10065000EE0027FDE0CF80E00895B0E0A0E0E3E306
:10066000F3E00C941F28C8EDD0E088818F7E88834A
:10067000E7EDF0E080818160808384E082BF81E0EB
:1006800080934A0388818E7F888302EE10E0F80110
:1006900010821092DA0081EEC82ED12CF601108261
:1006A00088818F77888388818068888388818F7D1F
:1006B000888319BC10925703109258031092560366
:1006C0001092550390EEE92EF12CF70180818B7F7B
:1006D000808388818160888342E060E080E00E94BE
:1006E000FB02F60180818E7F8083F801808181602A
:1006F0008083808188608083F70180818E7F808302
:10070000888180618883CDB7DEB7E8E00C943B2810
:10071000FC0180915F039091600386179707A0F01A
:100720006115710529F49091E8009E779093E80097
:1007300090E06115710551F4911108C08091E800B5
:1007400082FF34C080E00895BC01F2CF809157034E
:100750008823C1F18530C1F18091E80083FD30C06C
:100760008091E80082FDEACF8091E80080FFE1CF30
:100770008091F3002091F200382F6115710519F076
:100780002830310558F091E02830310509F090E02B
:100790002091E8002E772093E800CBCF81918093C1
:1007A000F100615071092F5F3F4FE7CF80915703F0
:1007B000882341F0853041F08091E80083FFBECF6F
:1007C00081E0089582E0089583E0089508950895F2
:1007D00080914C0308959C014FB7F8948091460393
:1007E00090914703A0914803B09149034FBF821BEA
:1007F000930B08952FB7F8946091460370914703C7
:1008000080914803909149032FBF08952FB7F89422
:100810008091460390914703A0914803B09149030A
:100820002FBF0895A3E0B0E0E8E1F4E00C942528A0
:10083000209143033091440328173907A1F0909386
:10084000440380934303E0914103F09142033097C6
:1008500051F024E029839B838A830680F781E02D71
:10086000CE01019609952396E2E00C944128A3E07D
:10087000B0E0EDE3F4E00C94252820913F033091A3
:10088000400328173907A1F09093400380933F035A
:10089000E0914103F0914203309751F023E0298326
:1008A0009B838A830680F781E02DCE01019609950E
:1008B0002396E2E00C944128FC01680F791F8FEF2A
:1008C00091E32191822728E030E087FF09C0880F5B
:1008D000892721503109C9F7E617F70791F70895DD
:1008E000880FF7CF8F929F92AF92BF92EF92FF92B5
:1008F0000F931F93CF93DF938630B8F5811136C0E5
:10090000909180009F77909380002D98A091860011
:10091000B0918700282F30E00E94CE2925E030E0FA
:1009200040E050E00E94AC2989019A018091860044
:10093000909187006CE070E00E9476286017710744
:10094000D8F0C80169E070E00E94762870938900B1
:1009500060938800DF91CF911F910F91FF90EF90EE
:10096000BF90AF909F908F90089585E09091800008
:10097000906890938000CACF809186009091870004
:10098000E0908600F0908700E0918600F09187006B
:10099000C6E0D0E0BE010E947628060F171F211D79
:1009A000311D4801590185E0880C991CAA1CBB1C0B
:1009B0008A95D1F7C701BE010E9476289F0150E0B9
:1009C00040E0260F371F411D511DC501B4010E9493
:1009D000AC2949015A01E0918600F0918700CA01D3
:1009E000B9010E944C289B01AC01DF010E949929AA
:1009F0009B01AC01C501B4010E944C282FE09695E3
:100A00008795779567952A95D1F700918600109183
:100A1000870030E020E0061717072807390708F09D
:100A200095CF609186007091870090CFFA01811177
:100A300001C0FB0109950895E3EDF2E01182828186
:100A400084608283089580913903982F9E7F29F4D2
:100A5000817082608093390308958635E8F3817050
:100A60008465F8CFAF92BF92DF92EF92FF920F931F
:100A70001F93CF93DF93082F162FE901E42FF0E0A7
:100A8000EF54FE4F611110C0E4915E2F4E2F498349
:100A9000E8835A83DF91CF911F910F91FF90EF90E0
:100AA000DF90BF90AF900895E62EF12C4491D42EA4
:100AB000E42FF0E026E0829FC00111242FEF30E008
:100AC000B9010E947628802F90E0880F991F55E584
:100AD000569FD001579FB00D11248A1B9B0B982F56
:100AE000990F890F5901AE18BF08AE9ED001AF9E75
:100AF000B00DBE9EB00D11245B2F189F80011124F4
:100B0000012F11275901A01AB10AAE9E8001AF9E94
:100B1000100DBE9E100D11245901A81AB108AE9CEB
:100B2000C001AF9C900DBE9C900D1124892F992778
:100B3000281B390B2E9FC0012F9F900D3E9F900DBB
:100B40001124E92F62307105A1F050F4611571058F
:100B500009F49DCF6130710581F0EB2F512F97CFB4
:100B60006430710569F080F06630710509F48FCF4B
:100B7000F4CFE42F4B2F592F8ACFE42F412F87CF6B
:100B8000EB2F542F492F83CF4B2F5D2DE12F7FCF9C
:100B900080E00895F894E82FE295EF70F0E031A13D
:100BA000282F2F7081E090E001C0880F2A95EAF786
:100BB000982F9095932391A392A1892B82A3789447
:100BC00008959091A90292FF06C0282F287128301D
:100BD000F9F4877F846093FF06C0282F287128319D
:100BE000F1F4877E84612091AA0220FF06C0382F8D
:100BF00038713830D9F4877F816021FF06C0282FF3
:100C000028712831D1F4877E816194FD877E089513
:100C1000282F24712430F9F68B7F8860DCCF282FB1
:100C20002471243101F78B7E8861DDCF382F31713B
:100C3000313019F78E7F8860E0CF282F2171213164
:100C400021F78E7E8861E1CF82389105B9F1B0F449
:100C50008133910509F47DC048F48932910509F486
:100C60006DC08A32910509F47BC0089585339105E2
:100C700009F45FC08933910509F10895833E910518
:100C8000D9F138F4803E910529F1823E910579F140
:100C90000895863E9105D9F1873E910509F43EC03D
:100CA000843E910541F52091AA0221FF24C0809144
:100CB000A90284FD19C087EE90E008952091A90251
:100CC000237009F05AC02091AA0223FF14C089E2C0
:100CD00090E008952091A90220FD38C03091AA0229
:100CE00030FF09C024FF43C090E080E008952091C8
:100CF000A90222FDF7CF08952091A90222FD3AC052
:100D00003091AA0230FD39C024FFF5CFEDCF2091FC
:100D1000A90223FFF0CF24FDE7CFCDCF2091A90278
:100D200023FD2EC03091AA0231FFEECF84EE90E079
:100D300008952091A90225FFDECFC9CF2091A902F5
:100D400025FD21C02091AA0223FFD5CF89E390E0A1
:100D5000D2CF2091A90226FFCECF8AE290E008955B
:100D60002091A90226FFC7CF81E390E0089583EE8A
:100D700090E0089582EE90E0089580EE90E008956E
:100D800086EE90E0089585E390E00895972F7A30FD
:100D9000B8F46630A8F48230B0F470E026E0929F98
:100DA000600D711D1124FB019CE3899FE00DF11D75
:100DB0001124EE0FFF1FE455FF4F85919491089584
:100DC00080E090E0089581E0FCCF1F93CF93DF9304
:100DD0000E942406EC01C11580E5D807F0F5C11585
:100DE00080E4D80708F09CC0C03ED10520F5CD3C7A
:100DF000D10508F082C0C83AD10578F4C53AD105CA
:100E000008F073C0C130D10519F1209709F1C43041
:100E1000D105F0F4D0E0C0E01BC0C33CD105D0F751
:100E2000C85AD0E0CC0FDD1FCC58DE4F0990D881D6
:100E3000C02DD4640DC0C11580E2D80708F0D1C020
:100E4000C11581E0D80708F05AC0C83ED10510F797
:100E5000CE01DF91CF911F910895C03682E5D8076A
:100E600018F5C03482E5D80708F06BC0C03282E5BF
:100E7000D80708F05FC0C11582E5D80708F497C00D
:100E80002C2F2695269580E2289F900111248C2FE7
:100E90008370C1E0D0E002C0CC0FDD1F8A95E2F77D
:100EA000C22BD32BDD68D4CFC03A82E5D80760F4DB
:100EB000C03882E5D80708F459C0CF71D0E0DC2FE4
:100EC000CC27C46FD06AC4CFC03C82E5D80708F4F1
:100ED00062C0C03E82E5D80708F09CCFDC2FCC274B
:100EE000CC27DF71C06FD06AB3CFC55AD0E0CF58DE
:100EF000DE4FC881D0E0D064ABCFD065A9CF8D2FB5
:100F00000E94E105182FCE0199270E942406C12FC7
:100F1000D0E0DC2FCC27CC27DF71C82BD92B98CF82
:100F2000CE0199270E942406CC27DF70C82BD92B2D
:100F3000D06A8ECFCF71D0E0DC2FCC27C16FD06AC2
:100F400087CF2C2F26952695277080E2289F900129
:100F500011248C2F8370C1E0D0E002C0CC0FDD1FC4
:100F60008A95E2F7C22BD32BDC6872CF2C2F269503
:100F70002695277080E2289F900111248C2F837082
:100F8000C1E0D0E002C0CC0FDD1F8A95E2F7C22B92
:100F9000D32BDA685DCF8C2F8F710E94E105C82FAB
:100FA000D0E0DC2FCC27CC27DF71D06251CF8C2F43
:100FB0008F710E94E10555E0D695C7955A95E1F7E6
:100FC000CF70D0E0DC2FCC27282F30E084FF05C085
:100FD00044E0220F331F4A95E1F7C22BD32BD0698F
:100FE00037CF8D2F8F710E94E105182FCE019927E1
:100FF0000E942406C12FD0E0DC2FCC27CC27DF7144
:10100000C82BD92BD2CF0E94FA03089580915602A3
:10101000811110925602089580959091550298235F
:10102000909355020895ECEEF1E09191891303C07D
:10103000DF0111971C9291E0E23FF907B1F70895A3
:10104000ACEEB1E0EFEF90E02D91821751F0EF3F61
:1010500019F4211101C0E92F9F5F9630A9F7EF3FE6
:1010600009F408950E2E000CFF0BE651FE4F82830B
:10107000089520914A029091190256E0291302C066
:1010800080E0089530E0529FF001539FF00D11244D
:10109000E65EFD4F7181761306C07081781303C040
:1010A0007281741304C02F5F3F4F2770E7CF81E038
:1010B000089580914A0290911902981301C00895F1
:1010C0008F5F8770FACFB0E0A0E0E9E6F8E00C941B
:1010D0001E287C010091A7021091A802809157025E
:1010E00090915802082B192BCFE0D0E0CC24C39468
:1010F000D12CBC2EC6010C2E02C0880F991F0A9459
:10110000E2F780239123892B49F4219790F7B12CA2
:101110008B2DCDB7DEB7E9E00C943A28B7018C2FC0
:101120000E94C6060E94E506019779F3F1CFCF939E
:10113000DF93EC010E946308BE010E94C6060E9474
:10114000E506DF91CF9108959A3078F5863068F5FD
:10115000E82FF0E086E0989FE00DF11D11249E2F0E
:10116000977083E0F695E7958A95E1F7EE0FFF1FFC
:10117000EE0FFF1FED50FE4F50E040E080E0219168
:1011800030E0092E02C0369527950A94E2F72170C7
:101190003327042E01C0220F0A94EAF7822B4F5FF7
:1011A0005F4F4430510559F7089580E008959A3013
:1011B00098F5863088F5E82FF0E086E0989FE00DFE
:1011C000F11D11248E2F877041E001C0440F8A95D4
:1011D000EAF783E0F695E7958A95E1F7EE0FFF1FB2
:1011E000EE0FFF1FED50FE4F30E020E070E0519118
:1011F000DF011197CB01022E02C0969587950A94C4
:10120000E2F7817081958527842385278C932F5F52
:101210003F4F2430310559F708959093A8028093E9
:10122000A702089521E030E002C0220F331F8A9503
:10123000E2F7209530958091A7029091A802822331
:1012400093230E940D09089590914B028095892364
:1012500080934B02282F277091F4282F082E000C22
:10126000330B9217130659F09091AA0292FF07C010
:101270008595859585950E94120910924B020895D7
:1012800021E030E002C0220F331F8A95E2F78091FF
:10129000A7029091A802822B932B0E940D0908951A
:1012A00090935802809357020895FC0183819481A2
:1012B000892B29F08081918189238F3F51F480E02F
:1012C0000895843FE1F717C0883EA8F0813FB9F741
:1012D00012C0808191810E94970892959F709630EC
:1012E00099F358F4925F9F70923048F7803F19F05D
:1012F00040F7883E20F781E008959A5FF4CF0F937E
:101300001F93CF93DF938B01EA01909157039430A1
:1013100061F58093E9008FEF9091E800815095FD91
:1013200006C095ED9A95F1F700008111F5CF8091F7
:10133000E80085FF1AC00E94AB02811111C08091A4
:10134000E80085FD06C08091E8008E778093E80074
:10135000F2CFF80181918F018093F100219779F705
:101360008091E8008E778093E800DF91CF911F9104
:101370000F91089543E050E0BC0182E00E947F0994
:101380000895CF93DF93EC0148E050E0BC0181E089
:101390000E947F0988E0FE01ADE4B3E001900D9268
:1013A0008A95E1F7DF91CF91089560916101809175
:1013B000390380FF20C08091600143E0849FC00119
:1013C000112487529D4F569A2BB12F7B3BB130642D
:1013D0005FB7F894FC01649FE00DF11D1124BF017B
:1013E00068177907D1F45FBF8FE594E00197F1F7B3
:1013F00000C000000895809162019091630123E094
:10140000829FF0011124E752FD4F8917A0F6118247
:10141000108212828F5F3396F8CFFC014191CF0189
:10142000E8E03BB9000000C047FF2BB9440F0000C3
:1014300000C000C000C02BB900C0EA9591F7D0CF22
:101440000F931F93CF93DF93EC0110E000E0909196
:1014500064019017110609F06CF40E94D5098C8183
:1014600090E00196817099278C83DF91CF911F9135
:101470000F91089520916201A801420F511D9A0118
:10148000220F331F240F351F27523D4F4C8160918F
:101490003B0380913A0396959017110651F04CF05A
:1014A000442349F040913C030E9432050F5F1F4FD7
:1014B000CECF4423B9F340E0F7CFB0E0A0E0E3E6BD
:1014C000FAE00C941B28EC014C81042F10E09801E9
:1014D000D8010E94CE299B01AC010E9499294B01A1
:1014E0005C01E0E2F0E0E01BF10BA5E5B0E0AC014F
:1014F0009B010E9499296B017C019F01DF010E94E1
:10150000A4289B01AC010E94A4299B01AC01280DD9
:10151000391D4A1D5B1DC701B6010E94AC29F22E80
:10152000822F90E039E23F1520F143E0249F9001A3
:10153000112435952795122F109500E085E5E82EAA
:10154000EF1880916401081718F10E94D5099C8159
:1015500081E0992319F0903219F48FEF80935F01A5
:1015600080915F01890F8C83CDB7DEB7ECE00C94DE
:10157000372825E530E0B901681B790B9B01220F64
:10158000331F260F371F37FFD4CF2F5F3F4FD1CFE9
:101590008E2D01FD8F2D20916201622F600F772724
:1015A000771F9B01220F331F260F371F27523D4FF6
:1015B000412F60913B030E9432050F5FC2CFEF9233
:1015C000FF920F931F93CF93DF93EC018C818111D6
:1015D00009C081E08C831092D70292E090935E0163
:1015E00080935D01809162019091630123E0829F6D
:1015F000F0011124E752FD4F891758F110E003E084
:1016000060916401161758F10E94D50980915D011F
:101610002091D702280F2093D70290915E01980F56
:1016200090935E01191654F4022E000C330B409176
:1016300064014150550B2417350734F08195809390
:101640005D01813009F41C82CDB7DEB7E6E00C9471
:101650003D281182108212828F5F3396CDCFE12E0A
:10166000F12C70E0C7010E948A2820916201820F4C
:10167000482F50E02091D702022E000C330BE216C7
:10168000F306BCF020915E01022E000C330B2E15E8
:101690003F057CF0809F9001112427523D4F4091DF
:1016A0003C0360913B0380913A030E9432051F5F27
:1016B000A7CFFA01EE0FFF1FE40FF51FE752FD4F12
:1016C000118210821282F3CFB0E0A0E0EAE6FBE0E4
:1016D0000C941B28EC018A81BB24BA9480FD02C0C3
:1016E000BB24B394A09064018C81811109C081E076
:1016F000B81220C08FEF8A0D8093D60281E08C83D0
:10170000F12CE12C4CE0942EEA14B8F00E94D5099B
:101710008091D60291E0B91257C0811150C08091DA
:10172000640181508093D6021C82CDB7DEB7ECE015
:101730000C9437281092D602E1CF009162010E0D71
:101740001F2D111DC801880F991F080F191F07525F
:101750001D4FF80111821082128234E0C32ED12C69
:10176000812C8091D602880D8D302CF1692D0E943C
:101770006828892F082E000C990B8E159F0591F46F
:1017800080913C038C9DA0018D9D500D1124559599
:10179000479555954795980160913B0380913A0391
:1017A0000E9432058B0CF1E0CF1AD108D1F68FEFF1
:1017B000E81AF80AA9CF87FFDDCF8A0DDBCF815069
:1017C0008093D602BC82B1CF90E001966091640113
:1017D00070E00E948A288093D6028C83A6CFEF9275
:1017E000FF921F93CF93DF93EC0110E0EE24EA9475
:1017F000F12C60916401161770F00E94D5099A814E
:101800008C8190FF27C08F5F8C83DF91CF911F91D8
:10181000FF90EF90089520916201422F410F5527CC
:10182000551FCA019A01220F331F280F391F275253
:101830003D4F70E0C7010E948A28962F8C8140910D
:101840003C0360913B03199F800D11240E943205D7
:101850001F5FCFCF8150D8CF9091390390FF0EC03A
:10186000909162012091630133E0939FF001112474
:10187000E752FD4F921718F00E94D5090895818311
:10188000608342839F5F3396F5CFA3E0B0E0EBE443
:10189000FCE00C9423288C018091D80281110AC0AD
:1018A0009E012F5F3F4F4FEF6FEF0E9432058A81FD
:1018B0008093D802F8016481613069F08091D80288
:1018C00040E0662361F040E0623011F44091D802BC
:1018D00080E060E004C06091D80240E080E00E94B7
:1018E0002C0CF801848190E0019663E070E00E9486
:1018F0008A2884832396E4E00C943F28A3E0B0E098
:10190000E4E8FCE00C9425289091390390FF0AC08C
:101910009E012F5F3F4F0E9432054B8169818A8172
:101920000E942C0C2396E2E00C944128CF93DF9385
:10193000EC01E9E3F3E0438162818C810E947E0C3B
:101940008C818F5F8C83DF91CF910895CF93DF934C
:10195000EC01EC81F0E0EA54FD4F4491E9E3F3E05F
:10196000628181810E947E0C8C818F5F8C83DF91EC
:10197000CF910895B0E0A0E0E0ECFCE00C941D28CD
:101980007C015B016A018091940201E010E08A30E1
:1019900010F40AE010E0C1E0D0E0B501C701F601A3
:1019A0000995811104C021960C171D072CF4CDB7A1
:1019B000DEB7EAE00C943928CC9F9001CD9F300D22
:1019C000300D112490E080E045E34A95F1F70000E6
:1019D000019682179307C1F7E0CF809165028111CC
:1019E00010C08091D80080618093D8008AE18A95E8
:1019F000F1F700C08091D90080FF0AC081E0809398
:101A0000650281E090916502913009F080E00895CF
:101A100082E0809365020E948C0210925703F1CFFE
:101A20000E94ED0C882359F0E0914103F0914203AC
:101A3000309729F00190F081E02D0995089580E01C
:101A400008950F931F930E94ED0C882329F00E94A4
:101A5000FA031F910F9108950E94FA0300919502D5
:101A6000109196022091970230919802600F711F99
:101A7000821F931FEECF0E94ED0C882319F00E9465
:101A8000060408950E94210DCB010895682F86E079
:101A900090E00E9446290895282F220F220F220F3E
:101AA00090913E039770922B90933E03987F21E094
:101AB00009F420E090913E0320FB90F990933E03BF
:101AC0000E94720480913E030E94460D0895809109
:101AD0003E0380FD13C0816080933E03813019F482
:101AE00089E080933E0380913E030E94460D8091E1
:101AF0003E038695869586950E9472040895B0E00F
:101B0000A0E0E5E8FDE00C941728FC016280448029
:101B100081E08483E6EBF2E07490E5E3F3E0E491A6
:101B2000C0913C03C695C158D0E0CC0FDD1FCD2F2E
:101B3000DD27812C75E0972EAA24AA94B12C552478
:101B40005A94E719EE2EF12C80916401881638F032
:101B50000E94D509CDB7DEB7E0E10C943328C82C3C
:101B6000D12C82E0861568F09C9CF0019D9CF00DC4
:101B70001124E350FD4F80913A03808380913B0311
:101B80008183411023C09C9CF0019D9CF00D112489
:101B9000E350FD4F1382128220916201C601820F31
:101BA000911D9C01220F331F280F391F27523D4FD3
:101BB0009C9CF0019D9CF00D1124E350FD4F42814F
:101BC000618180810E9432058394BECF9C9C8001FC
:101BD0009D9C100D112403501D4FF8018381882313
:101BE000F1F081508383859DC0011124648170E0F0
:101BF0000E947628FB01FF27EA54FD4F8491E82FCD
:101C0000E719E59DC0011124B7010E947628809153
:101C10003C03689FB0011124F8017283BDCF0E947C
:101C2000FF28B5010E948A288C179D070CF0B4CFBD
:101C3000F2E0F61598F40E94FF28B5010E948A2868
:101C4000F80180830E94FF2820913B032695622F94
:101C500070E00E948A28280FF80121839C9CF001E3
:101C60009D9CF00D1124E350FD4F128280913C03A6
:101C7000893C58F088EC9C9CF0019D9CF00D11244F
:101C8000E350FD4F8483838387CF8431A0F784E1C1
:101C9000F2CF60913903669570E04BE050E082E549
:101CA00091E00E940F29892B19F481E08093D402DE
:101CB0000E943B0D9093CE028093CD028091D5027D
:101CC00084608093D5020895CF92DF92EF92FF92C5
:101CD0006B017C010E942305B701A60188E090E01A
:101CE0000E945829FF90EF90DF90CF900895A3E0D5
:101CF000B0E0EDE7FEE00C941E28082FD62EF42E5F
:101D0000C22E9091390390FF3CC020913A032813D2
:101D100008C080913B03861304C080913C03841764
:101D200029F08091D50282608093D502E92FE69553
:101D3000AE2FB0E0A454BE4F8C918093D3029E7F0F
:101D4000923019F59E012F5F3F4F4F2D6D2D802F43
:101D50000E9432054B8169818A810E942C0C00937C
:101D60003A03D0923B03F0923C03CC2051F06091B7
:101D7000390370913A0380913B0390913C030E9498
:101D8000640E2396E9E00C943A28823019F4F0901E
:101D90003C03E5CF8630A1F1893091F18931F9F624
:101DA000E9516E2F6170B62EE695F0E0EF54FD4FCD
:101DB0001491E12C60916401E61618F00E94D50997
:101DC000CECFE19EC001112470E00E947628802FC2
:101DD000B11014C0860F20916201622F6E0D77271B
:101DE000771F9B01220F331F260F371F27523D4FAE
:101DF0004F2D6D2D0E943205E394DCCF861BEBCF77
:101E0000022FADCFE9E3F3E0438121E1421B08F467
:101E100040E021E0628181810E94770E0895E9E32C
:101E2000F3E0438121E1420F08F44FEF21E06281AA
:101E300081810E94770E0895E9E3F3E0628121E158
:101E4000621B08F460E021E0438181810E94770EEB
:101E50000895E9E3F3E0628121E1620F08F46FEF96
:101E600021E0438181810E94770E0895E9E3F3E048
:101E7000818121E04381628188500E94770E08951C
:101E8000E9E3F3E0818121E043816281885F0E9480
:101E9000770E089580913D03882319F08150809337
:101EA0003D036091390370913A0380913B03909117
:101EB0003C030E94640E089580913D03833018F422
:101EC0008F5F80933D036091390370913A03809155
:101ED0003B0390913C030E94640E08959091390356
:101EE00090FF31C0917081112FC09260909339039F
:101EF0008091D50281608093D502662351F0609174
:101F0000390370913A0380913B0390913C030E9406
:101F1000640E60913903669570E04BE050E082E515
:101F200091E00E940F29892BB1F00E941C0581E0ED
:101F30008093D00220E040913C0360913B0380916C
:101F40003A030E94770E08958B3210F09465CECF3D
:101F5000880F982BCBCF0E94490EE9CF61E00E94F9
:101F60006E0F0895809139038695815009F48AE2B5
:101F700061E00E946E0F08958091390386958F5F0E
:101F80008B3208F081E061E00E946E0F089590911D
:101F9000390390FF08C09695981728F0961718F403
:101FA0000E94BC0F08950E94AE0F0895E9E3F3E08C
:101FB00083E0808311828FEF828383831482A3ED79
:101FC000B2E012968C911297836012968C93608186
:101FD0007181828193810E94640E0895A4E0B0E033
:101FE000E4EFFFE00C94242840918802509189028C
:101FF00060918A0270918B022FB7F894809146030A
:1020000090914703A0914803B09149032FBF841BCF
:10201000950BA60BB70B11E084369105A105B10510
:1020200070F10E94210D6E5F7F4F8F4F9F4F69832C
:102030007A838B839C8380912501909126018D5812
:102040009D4F4091240150E04530510510F044E08F
:1020500050E0BE016F5F7F4F0E94292984E090E02D
:102060000E949F27182F882351F00E94FA03609343
:1020700088027093890280938A0290938B02812F49
:102080002496E3E00C9440284F925F926F927F92E7
:102090008F929F92AF92BF92EF92FF920F931F93F6
:1020A000CF93DF937B01FB0140805180628073807E
:1020B0009FB7F8948090460390904703A090480300
:1020C000B09049039FBF84189508A608B708F4E6A6
:1020D0008F169104A104B10418F4C1E0442329F13E
:1020E000C82F880FDD0BFE0183E0EE0FFF1F8A95DE
:1020F000E1F7EC5FFE4F818192818D589D4F4081C9
:1021000050E00417150708F4A801B9010E94292915
:10211000CE010E949F27C82F882339F00E94FA031E
:10212000F70160837183828393838C2FDF91CF913A
:102130001F910F91FF90EF90BF90AF909F908F9065
:102140007F906F905F904F900895A8E0B0E0EBEA29
:10215000F0E10C94232885E0E9E3F3E0DE01119639
:1021600001900D928A95E1F78091D3029091D4026B
:10217000A091D5028E839F83A88741E08885811135
:1021800001C040E008E010E09E012F5F3F4F60E992
:1021900072E086E00E94441081111092D5022896C8
:1021A000E4E00C943F28A1E0B0E0E9EDF0E10C940C
:1021B000232880913E0380FF18C0869586958695DA
:1021C000898341E090917F02981301C040E001E0D3
:1021D00010E09E012F5F3F4F6CE872E085E00E94A7
:1021E00044102196E4E00C943F2880E0E9CF4F9220
:1021F0005F927F928F929F92AF92BF92CF92DF9227
:10220000EF92FF920F931F93CF93DF930F92CDB76F
:10221000DEB7C62E4A015901482E880F5508C20163
:102220000E949F27782E882309F480C0C20133E0E2
:10223000880F991F3A95E1F7FC01EC5FFE4F43814F
:1022400050E04115510511F041E050E08C5F9E4F88
:10225000FC01648175816D587D4FCE0101960E940D
:102260002929F40140815181628173812FB7F8944B
:102270008091460390914703A0914803B091490390
:102280002FBF841B950BA60BB70B84369105A105B8
:10229000B10540F4B701C8010E945C049981891717
:1022A00009F444C00C2C000CDD08C6010E949F27D5
:1022B000782E811113C0712C872D0F90DF91CF9153
:1022C0001F910F91FF90EF90DF90CF90BF90AF9054
:1022D0009F908F907F905F904F900895C60123E06C
:1022E000880F991F2A95E1F7FC01EC5FFE4F4381AF
:1022F00050E0E416F50608F4A7018C5F9E4FFC0140
:10230000648175816D587D4FC5010E942929B701EF
:10231000C8010E945C0499818913CDCF0E94FA0301
:10232000F4016083718382839383C6CFA701B801D0
:10233000C5010E942929C0CFA5E0B0E0E2EAF1E1A1
:102340000C941F286B0185E0E82EF12C04E712E0C5
:102350009E012F5F3F4F4BE652E061E080E00E941C
:10236000F710882349F095E0FE013196A6E6B2E029
:1023700001900D929A95E1F795E0E6E6F2E0D6013C
:1023800001900D929A95E1F72596E8E00C943B2890
:10239000A2E1B0E0EEECF1E10C941A288E010F5F9F
:1023A0001F4F8AE0D8011D928A95E9F782E4C82E72
:1023B00081E0D82EF12CE12CAA24A394B12C22E4A4
:1023C000822E21E0922EF60181916F018F3F09F458
:1023D00042C0F894E82FE295EF70F0E021A18F70F1
:1023E000A50102C0440F551F8A95E2F7CA01922F3A
:1023F000982B91A392A18095892382A3789400C001
:10240000ECE3F1E0712C31E021912F3F09F46BC036
:10241000A22FA295AF70B0E090968C9190E02F70B3
:1024200002C0959587952A95E2F780FD5CC0832FC1
:10243000782A330F8E169F0639F7F601319780817F
:102440008F3F11F00E94CA0550EA5A95F1F7F80142
:10245000EE0DFF1D70828FEFE81AF80A95E0E9167D
:10246000F10409F0B0CF4AE050E0B8018BE992E006
:102470000E941C29009741F02AE0F801ABE9B2E084
:1024800001900D922A95E1F70091A602892B69F13E
:1024900081E080935D020E94060490935C02809329
:1024A0005B0280915B0290915C020E94EB030597B6
:1024B00000F110E004551D4F45E050E06BE972E07B
:1024C000C8010E941C29D12C892B51F085E0EBE931
:1024D000F2E0D80101900D928A95E1F7DD24D394C2
:1024E00010925D0207C080E0A3CF80915D02811150
:1024F000D8CFD12C0E94ED0CC82EE091A602DE01AF
:102500001B967D01882309F484C085E01D928A957D
:10251000E9F70E2F10E004551D4F809194028A3088
:1025200008F044C04CE951E1B701C8010E94BA0C5F
:10253000882309F45DC043E458E1B701C8010E9453
:10254000BA0C882309F454C04EEE5FE0B701C8010D
:102550000E94BA0C882309F44BC043ED50E1B70147
:10256000C8010E94BA0C882309F442C045EA50E130
:10257000B701C8010E94BA0C8823D1F110929402CD
:102580008091A50290E045E050E0B70184559D4F51
:102590000E941C2921E020936402892BE1F4C12CC4
:1025A0008C2D8D296296EDE00C94362880915E0288
:1025B00090915F020E94EB03843F914008F0B2CFFC
:1025C00080916402882359F385E0F70111928A957E
:1025D000E9F710926402A091A502B0E0A455BD4FA6
:1025E00085E0FE013B9601900D928A95E1F7D8CFE8
:1025F000809194028F3F31F08F5F809394028A30F4
:1026000008F4BECF0E94060490935F0280935E029E
:10261000D7CFF0E0E455FD4F85E0A4E7B2E00190AC
:102620000D928A95E1F765E070E084E792E00E9400
:102630005C04809373024091C90250E06091C8022B
:1026400070E06C537D4FC7010E9429298B858093D0
:102650007A0261E070E0C7010E945C048093790215
:1026600080907B0290907C02A0907D02B0907E02D0
:102670008091600290916102A0916202B091630228
:1026800088169906AA06BB06D1F080926002909245
:102690006102A0926202B09263020E94ED0C81116D
:1026A0000EC00E94FA03861A970AA80AB90A8092F5
:1026B000950290929602A0929702B0929802809111
:1026C0007F020E94720488E0E0E8F2E0DE011B96DF
:1026D00001900D928A95E1F72B85822F8695FC84D7
:1026E000ED84BE8409891A8910928702112309F4A6
:1026F00057CF10FF0AC09091390320FF1AC0916094
:102700009093390360E00E946E0F11FF06C020E035
:102710004B2D6E2D8F2D0E94770E12FF04C00023CB
:10272000A9F00E94490E13FF3BCF81E08093D002B5
:1027300037CF9E7F909339030E941C058091D5026C
:1027400081608093D5020E94D509DFCF0E941C05CD
:10275000EACF8091550290915402892B8093EA012F
:1027600090915602992391F0892B8093EA0120E001
:102770008CEE91E0FC013191CF0131112F5FF1E03E
:10278000823F9F07B9F721110E94060848E050E0F8
:102790006CE472E08AEE91E00E941C29892BA9F07A
:1027A00088E0EAEEF1E0ACE4B2E001900D928A95A7
:1027B000E1F7E0914103F0914203309731F002805C
:1027C000F381E02D8AEE91E009950895109255026B
:1027D000ECEEF1E086E0DF011D928A95E9F790E0EA
:1027E00080E00E94370490E080E00E941204109282
:1027F00054020E94A9130895AAE2B0E0E2E0F4E1D5
:102800000C94242889E593E02091F100FC012193A8
:10281000CF01F3E081369F07B9F780915A038330E7
:1028200009F470C0B8F4813009F447C0823009F46B
:10283000B1C08091E80083FF7EC2809159039091DE
:102840005A039A3008F077C2E92FF0E0E152F64DD2
:102850000C949E288A3009F48CC08B3009F46FC028
:10286000893039F780915903813219F780915D03DE
:1028700090915E030297E8F68091E800877F80934D
:10288000E8008091E80082FF38C09091F3008091C9
:10289000F200029731F48091F100813011F086301E
:1028A00021F48091F10080934C038091E8008B77B4
:1028B0008093E8000E94DC02BCCF80915903813AEA
:1028C00009F0B7CF8091E800877F8093E80080917E
:1028D0005D0390915E03892B61F468E08DE493E0E1
:1028E00070E00E9488038091E8008B778093E80075
:1028F000A0CF60E090E080E0F3CF8091570381119A
:10290000C0CF97CF80915903813A09F092CF80913F
:102910005D0390915E03892B09F08BCF8091E800D5
:10292000877F8093E8008091E80080FFFCCF809152
:1029300065018093F1008091E8008E77B9CF809196
:102940005903813209F075CF80915D0390915E0348
:10295000892B09F06ECF8091E800877F8093E80093
:102960000E94DC0280915B03809365010E94E61364
:1029700060CF80915903813209F05BCF8091E800EC
:10298000877F8093E8000E94DC0280915C03809343
:102990004B034FCF80915903813A09F04ACF809180
:1029A000E800877F8093E8008091E80080FFFCCFFB
:1029B00080914B03BECF803899F0823809F0BBC1BB
:1029C00080915D038F70873008F0B5C18093E90076
:1029D0008091EB0085FB882780F91092E90006C002
:1029E0008091550390915603911182609091E80077
:1029F000977F9093E8008093F1001092F10080910E
:102A0000E8008E7794C1882309F482C1823009F0EE
:102A100092C180915B03811185C180915D038F70AC
:102A20002FEF280F263008F086C18093E90020910F
:102A3000EB0020FF77C1933031F48091EB0080628E
:102A40008093EB006FC19091EB0090619093EB004D
:102A500021E030E001C0220F8A95EAF72093EA00D6
:102A60001092EA008091EB008860EACF811163C187
:102A700010915B031F778091E3008078812B809316
:102A8000E3008091E800877F8093E8000E94DC02E9
:102A90008091E80080FFFCCF8091E3008068809304
:102AA000E30082E0111183E08093570344C1805812
:102AB000823008F040C180915B0390915C038C3DB3
:102AC00023E09207A1F583E08A838AE289834FB7E6
:102AD000F894DE01139620E03EE051E2E32FF0E0AF
:102AE00050935700E49120FF03C0E295EF703F5FE1
:102AF000EF708E2F90E0EA30C0F0C7968D939D93D3
:102B00002F5F243159F74FBF8091E800877F809372
:102B1000E8006AE270E0CE0101960E94880380918D
:102B2000E8008B778093E80006C1C096E7CF40911C
:102B30005D0350915E03292F33272330310509F4BB
:102B400044C078F52130310509F46FC08BE390E083
:102B5000E8E2F4E02230310509F0EDC02091E80010
:102B6000277F2093E80020915F0330916003821754
:102B7000930708F49C0140E02115310509F064C079
:102B8000411162C08091E80082FDC9CF8091570356
:102B9000882329F2853019F28091E80083FFF2CF73
:102BA000BECF21323105A9F12232310509F0C3C06F
:102BB0004115510509F443C04130510509F0BBC02E
:102BC00082E390E0E6EBF3E0C9CF992781309105ED
:102BD000C1F0009759F0029709F0ADC0E5E7F4E0C5
:102BE000E4918E2F90E0E5E7F4E007C0EFE9F4E030
:102BF000E4918E2F90E0EFE9F4E0009709F49BC098
:102C0000ADCFEFE8F4E0E4918E2F90E0EFE8F4E050
:102C1000F4CF4115510571F04130510509F08BC0D9
:102C200089E090E0E3E5F4E099CF82E190E0E3E62B
:102C3000F4E094CF89E090E0EAE3F4E08FCF80E421
:102C400090E0E8EEF3E08ACF80915703882309F4FF
:102C500066CF853009F463CF8091E80083FD5FCFB4
:102C60008091E80082FD8ECF8091E80080FF84CFC4
:102C70009091F3008091F2002115310519F0883010
:102C8000910550F041E0089709F040E08091E8009C
:102C90008E778093E80070CF44914093F100319695
:102CA000215031090196E8CF803809F044C0809165
:102CB000E800877F8093E800809158038093F100BB
:102CC0009ECE811138C010915B031230A0F5809127
:102CD000E800877F8093E800109358030E94DC028D
:102CE000112311F084E005C08091E30087FDFACF45
:102CF00081E08093570342E061EC81E00E94FB0297
:102D000042E261EC82E00E94FB028091570313C013
:102D100080915B03813079F481E0933009F080E0A9
:102D2000809356031092E9008091E800877F80939A
:102D3000E8000E94DC028091E80083FF0AC08091D5
:102D4000E800877F8093E8008091EB0080628093A9
:102D5000EB00AA96E3E00C9440280E94E6132FEFC4
:102D600084E39CE0215080409040E1F700C00000E7
:102D700088E19CE00FB6F894A895809360000FBEA0
:102D800090936000FFCF882321F00E940C080E94DE
:102D9000A9130895882339F090915502982B9093A8
:102DA00055020E94A9130895882309F44DC0823862
:102DB00079F40E94100D81FF47C089E30E9420082A
:102DC0000E94A91389E30E9413080E94A913089581
:102DD000833859F40E94100D80FF36C083E50E94AD
:102DE00020080E94A91383E5EECF843859F40E948D
:102DF000100D82FF29C087E40E9420080E94A913B9
:102E000087E4E1CF9CEF980F913AE8F290E2980FB7
:102E1000983050F4877091E001C0990F8A95EAF7D5
:102E2000892F0E940C08D1CF9BE5980F933028F48E
:102E300090E080E00E9437040895885A8B3120F496
:102E400090E080E00E9412040895CF93C82F882359
:102E5000C9F08238C9F40E94100D81FD13C089E3C6
:102E60000E9420080E94A9132FEF87EE93E02150C3
:102E700080409040E1F700C0000089E30E94130801
:102E80000E94A913CF9108958338A1F40E94100DD8
:102E900080FDF8CF83E50E9420080E94A9132FEF40
:102EA00081EE94E0215080409040E1F700C00000A6
:102EB00083E5E4CF8438A1F40E94100D82FDE2CFB7
:102EC00087E40E9420080E94A9132FEF81EE94E06E
:102ED000215080409040E1F700C0000087E4CECF51
:102EE0008CEF8C0F813A68F4ECEEF1E08191C81719
:102EF000A1F121E0E23FF207C9F78C2F0E942008E0
:102F0000BFCF80E28C0F883068F4C77021E030E0DA
:102F100001C0220FCA95EAF780915502822B809357
:102F20005502AECFEBE5EC0FE33040F4F0E0EF58A4
:102F3000FE4F808190E00E943704A4CFC85ACB3165
:102F400008F0A0CFEC2FF0E0EE0FFF1FEC58FE4F83
:102F5000808191810E94120495CF8C2F0E941308CA
:102F60000E94A913CACF1F93CF93DF93182FEB01B1
:102F70000E942517209739F4812F0E94D416DF91E3
:102F8000CF911F9108958FE99FE00197F1F700C05D
:102F900000002197EFCF0F931F93CF93DF93C62F9E
:102FA000D42F022FFC0182818823A9F06093630350
:102FB0000E9406049093620380936103C77081E0CE
:102FC00001C0880FCA95EAF70E94CA16DF91CF9117
:102FD0001F910F91089580916303681334C080910D
:102FE0006103909162030E94EB03883C910558F5C0
:102FF00010E21D0FCD17B9F080E28C0F883040F43D
:10300000C77081E001C0880FCA95EAF70E94C31615
:10301000183048F481E09D2F977001C0880F9A9571
:10302000EAF70E94CA1670E060E0802F0E94B31792
:10303000183060F6D77081E001C0880FDA95EAF7A2
:103040000E94C316C3CFC77081E001C0880FCA9524
:10305000EAF7F6CF81110CC070E0662331F060E032
:1030600089EA0E94B31780E0089560E08AEAF9CF08
:103070008130C9F770E0662319F060E08EE4F1CF8B
:1030800060E08BE4EECFA1E0B0E0E9E4F8E10C947D
:103090001E28EE24E394F12C0AE712E09E012F5F34
:1030A0003F4F4FE652E063E082E00E94F710C82EE7
:1030B000882339F100E080E01DC0D0909A02D00E44
:1030C0002D2D30E0A9014C535D4F7A01E1E0F0E095
:1030D000EC0FFD1FE00FF11D1081FA019081191B0B
:1030E000B12E1B149CF0912F17FD90E0191B1111AC
:1030F00018C00F5F909199020917F8F281110E9490
:1031000003088C2D2196E9E00C943A28BA94F70133
:1031100080818F5F808360E08D2D0E942A188C2D26
:10312000E0CF1F5FF70180818150808361E08D2DAA
:103130000E942A188C2DDBCF67EE7EEF90E080E0B6
:103140000E94642960E082E090E00E94462960E0ED
:1031500083E090E00E944629109258021092570294
:1031600060E074E184E090E00E94642960E086E021
:1031700090E00E9446296FEF87E090E00E94462988
:1031800040E050E0BA0188E090E00E94582960E0F9
:103190008DE090E00E94462940E050E0BA0188E1CD
:1031A00090E00E94582960E087E190E00E94462963
:1031B00040E050E0BA018CE190E00E94582970E0B4
:1031C00060E080E290E00E94642940E050E0BA01B3
:1031D00088E190E00E9458290E94670D83E00E94D8
:1031E0004C0DE9E3F3E080818160808386950E9445
:1031F000AE0F21E04FEF6FEF80E00E94770E8BE083
:103200000E94AE0F40E050E0BA018FE090E00E94D3
:10321000582940E050E0BA0183E190E00E9458292B
:10322000089590E080E00E944029873E9E4F51F033
:103230000E949C1880913E038470896280933E03B3
:103240000E94460D86E090E00E94322980933E0362
:10325000803320F08770886280933E0390913E0314
:10326000892F817090FF04C0892F86958695869559
:103270000E94720408959091AA0292FB222720F9DD
:10328000281779F080FB92F99093AA026091A90225
:103290007091AA0284E090E00E94642982E00E947A
:1032A00024090895A5E0B0E0E8E5F9E10C941B28B5
:1032B0007C01FC0183819481892B31F08081918193
:1032C00089238F3F09F0B5C42596ECE00C9437288C
:1032D0000E946308182F682F89819A810E94D7085D
:1032E00069817A81812F0E94C6068C01F701828153
:1032F000882309F4F6C40230F8E71F0709F492C0E6
:1033000058F5011538E7130709F445C0013088E77F
:10331000180709F455C0F801E851FC47E730F105FA
:1033200008F4E5C410926303C8019057839708F02E
:1033300091C484E090E00E9440299093AA02809377
:10334000A902F801E150F047E232F10508F099C016
:10335000E751F64D0C949E28043098E7190709F4BC
:103360004DC080F10530F8E71F07A9F690913E03A4
:10337000892F8695869586958F5F8F719770863099
:1033800008F05EC0880F880F880F892B80933E035A
:1033900080913E031FC085E00E944C0D80914B023E
:1033A000877009F491CFF7018281882309F48CCFCB
:1033B0008091AA0282FF88CF82E00E94240984CFF4
:1033C00080E0EACF80913E03982F987F79F0885073
:1033D00080933E03887F91E009F490E080913E0362
:1033E00090FB80F980933E030E94460D80913E033E
:1033F0008695869586950E947204D0CF80913E0373
:10340000982F969596959695953040F49F5F990FD5
:10341000990F990F8770892B80933E0380913E030B
:103420008160E0CF80913E0380FF07C08E7F809354
:103430003E030E94460D80E0DECF0E94670DAECFB6
:1034400090933E03A5CF26E241EE61EEC7010E94B4
:10345000CB17A4CF27E245EE65EEF8CF26E241EE8A
:1034600060EEF4CF27E245EE64EEF0CF26E241EEC7
:1034700062EEECCF27E245EE66EEE8CF28E241E0CF
:10348000EBCF8091A90281608093A90295C08091C1
:10349000AA0288608093AA028FC08091A9028260EC
:1034A000F3CF8091A9028460EFCF8091A902886058
:1034B000EBCF8091AA028160EDCF8091AA02826059
:1034C000E9CF8091A9028061DFCF8091A90280625B
:1034D000DBCF8091A9028064D7CF0E94E613809150
:1034E000A9028068D1CF8091A9028C60CDCF809154
:1034F000AA028360CFCF8091A9028E7FC5CF809131
:10350000AA02877FC7CF8091A9028D7FBDCF80910E
:10351000A9028B7FB9CF8091A902877FB5CF809117
:10352000AA028E7FB7CF8091AA028D7FB3CF809100
:10353000A9028F7EA9CF8091A9028F7DA5CF80910E
:10354000A9028F7BA1CF0E94E6138091A9028F77F9
:103550009BCF8091A902837F97CF8091AA028C7F15
:1035600099CF8091A90282FB992790F921E09227B7
:1035700090FB82F990FB83F987CF8091AA02982F64
:10358000909591708E7F892B90FB81F983CF9091DC
:10359000A902892F8F7B96FF806476CF0E94E61365
:1035A0009091A902892F97FB87F980586DCF61E030
:1035B0008EE090E00E9446296091A9027091AA02D3
:1035C00084E090E00E9464290E94E613E7CE60E068
:1035D000EFCF9091A902892F8F7E94FF806154CF05
:1035E0009091A902892F8E7F90FF81604DCF90919D
:1035F000AA02892F877F93FF88604CCF85E339C368
:103600008091F201811104C089E20E94130833C342
:1036100085E3FBCF8091390380FF17C08E7F8093B5
:1036200039036091390370913A0380913B03909183
:103630003C030E94640E0E941C058091D5028160AB
:103640008093D5020E94D509A9CE81608093390369
:1036500086950E94AE0FA2CE42EB5FE06CEB7FE05E
:103660000E9416059BCE4CEB5FE062EB7FE0F8CF4B
:1036700046E35FE060E47FE0F3CF40E45FE066E3D1
:103680007FE0EECF4CE15FE069E27FE0E9CF49E225
:103690005FE06CE17FE0E4CF42E05FE06FE07FE07D
:1036A000DFCF4FE05FE062E07FE0DACF4AE45FE047
:1036B0006CE57FE0D5CF4CE55FE06AE47FE0D0CFFA
:1036C00081E0C7CF65E082E00E94C70F67CE68E067
:1036D00086E0FACF6EE089E0F7CF64E18FE0F4CFC7
:1036E00067E185E1F1CF88E1B4CF62E289E1ECCF17
:1036F00083E2AFCF6AE285E2E7CF0E94E6132FEFC5
:1037000034E38CE0215030408040E1F700C00000FD
:1037100081E08093E00080E28093D8001092C9009D
:10372000EFE1FEE43197F1F700C0000087E090EB95
:10373000DC018093640390936503A0936603B093C8
:10374000670388E19CE00FB6F894A8958093600029
:103750000FBE90936000FFCF6FEF7FEF90E080E0AF
:103760000E9464290E94AD168091AA0282FB8827DC
:1037700080F991E089270E943B19F701828100813D
:103780001181882309F44AC0C8010E946308D82E19
:10379000682FC8010E94D708B8018D2D0E94C60667
:1037A0000E94E506B82E192F882EF701A280958079
:1037B00092949FE0992280914B028770F1F0DA2C6D
:1037C000AA20E1F0812F807F803451F080E28B0DC0
:1037D000883098F0911004C0812F807E803269F08B
:1037E0008091AA0282FF09C082E00E942409809190
:1037F0004B028770DD24D3948111D12CC12EC29449
:103800008FE0C822FBE0FC1508F471C0EC2DF0E05D
:10381000E55FF54D0C949E2880E0ADCFC8010E9475
:10382000A408D82EB9CF012F0F70107F11F0029588
:10383000007FAA20B9F0002369F080E28B0D883068
:1038400010F0811009C080915502082B0093550299
:103850000E94A9138B2D49C080915402082B00931C
:103860005402F6CF8B2D0E94D416002309F43FC0DA
:1038700080E28B0D883010F0811004C0802F0E94F0
:103880000C0806C00095809154020823009354024E
:103890000E94A9132CC0012F0F70107F103211F05D
:1038A0000295007F882089F021E0821609F47CC00F
:1038B000AA2009F486C0992009F47CC0F70185810B
:1038C00080FFC8CF8F70858375C02091AA0222FD2A
:1038D00043C0AA20D9F1002339F080915502082B6A
:1038E000009355020E94A91380E00E942517EC2D39
:1038F000E850FF0B349710F40E94100DDD20A9F062
:1039000080914B0280FD11C0F7011282859585954B
:1039100085950E944009C7010E94521980914B026F
:103920008595859585950E94120985E0F701DE0150
:10393000119601900D928A95E1F709811A81C801CB
:103940000E94A408B8010E94C606BECC80E00E9476
:10395000D416002361F292CFAA20A1F090915602D2
:10396000892F802B911003C00E94CA16C0CF31E06E
:103970009312FACF22FFBBCF981709F4B8CF8093E8
:103980005602B5CF911006C00E940608802F0E94F3
:10399000C316ADCF81E0981609F4A9CF802F0E94FD
:1039A000C3160E940608A3CFAA2031F095E099150E
:1039B00008F49DCF802FD8CFE4E0E91508F497CF25
:1039C000E5CF992019F3F9E38F122CC12FEF37EED1
:1039D00083E0215030408040E1F700C0000022C168
:1039E000812F86958695837069F0813009F07FCFAD
:1039F0008B2D912F9370A11002C080E090E00E9467
:103A0000120475CF8B2D912F9370A11002C080E00E
:103A100090E00E9437046BCF912F937009F03FC064
:103A2000A11065CF4B2D429546954770440F440F2A
:103A30008B2D8F7090E0042E02C0880F991F0A947E
:103A4000E2F730E020E0B4FE09C02FE030E002C031
:103A5000220F331F4A95E2F720953095169516955B
:103A60001370123099F078F4409157025091580237
:103A7000113039F0822B932B842395230E94500917
:103A800036CF842B952B822B932BF8CF822B932B25
:103A9000209157023091580282279327EFCF9695B5
:103AA000AA2011F0912F9170992309F420CF4B2D6A
:103AB000429546954770440F440F8B2D8F7090E0D0
:103AC000042E02C0880F991F0A94E2F730E020E02C
:103AD000B4FE09C02FE030E002C0220F331F4A9528
:103AE000E2F720953095169516951370123099F0DF
:103AF00078F44091A7025091A802113039F0822B3E
:103B0000932B842395230E940D09F1CE842B952BB2
:103B1000822B932BF8CF822B932B2091A7023091ED
:103B2000A80282279327EFCF1F70AA2029F0812FA8
:103B30000E9440098B2D18CF8B2D0E94C316812F18
:103B40000E941209D4CE8B2D92EF891699F1981507
:103B500070F0E0EF8E16D1F0F1EF8F1691F0AA2001
:103B600009F45BC0911076CE812F8F7127C023EFAF
:103B7000821639F134EF8312F2CF8091AA0282FDCE
:103B80002EC0812F8F71AA20D9F218C0AA2069F007
:103B900084E0891508F4ABCE1F7181E090E002C08B
:103BA000880F991F1A95E2F7B8CF95E0991508F498
:103BB0009ECEF2CF812F8F71A110C2CF0E944009FB
:103BC00096CE90E080E0AA2009F49DCF1F7181E09D
:103BD00090E002C0880F991F1A95E2F794CFAA20AF
:103BE00089F01F71812F0E9440098091AA0282FFF3
:103BF00007C0E8E01E9FC0011124836080934B0240
:103C0000812FDCCF81E00E942409F1E0F91508F052
:103C10006ECE82E00E9424096ACE992039F0893361
:103C200009F4D4CE8B2D0E94D41661CE812F8F71D2
:103C300087CF85E0DE01119601900D928A95E1F71C
:103C4000F701228189819A81211142CB0E94A40827
:103C5000182F46CB0631FCE71F0719F58091550256
:103C60008A7A91E009F490E09093F2018111C6CC38
:103C700089E20E9420080E94A91390CB06312CE70C
:103C8000120709F4BDCC809155028272F801E0520E
:103C9000F847E531F10508F070CDE95EF54D0C947B
:103CA0009E2803303CE7130709F456CD50F4011564
:103CB0009CE7190709F421CD01301C4709F452CDC6
:103CC0005CCD0B35FCE71F0709F4A6CD0C352CE7BE
:103CD000120709F449CD0A351C4709F04ECD81E0A1
:103CE0004ACDF801E851FC47E730F10538F6E45DCC
:103CF000F54D0C949E281F93CF93DF93809118026B
:103D0000807F09F04BC080911502882309F446C0DA
:103D100080914A02C09119024091130250911402FD
:103D20006091160270911702D42FD52316E0C817A0
:103D3000A9F190E061157105A9F1DF3F99F1189F94
:103D4000F001199FF00D1124DF01A65EBD4F119601
:103D50002C911197251326C02C91241323C0129661
:103D60002C91129721111EC013962D913C91261B68
:103D7000370B283C3105B0F4809118028F708061B8
:103D800080931802E15EFD4F80818F708061808397
:103D900083E192E00E9452190E945908DF91CF916D
:103DA0001F91089501968770C2CFA1E1B0E0EBEDBD
:103DB000FEE10C941B288C0185E0F801DE011D96C4
:103DC00001900D928A95E1F7F801E28083E1882E57
:103DD00082E0982E4091160250911702411551052C
:103DE00009F430C19091130220911402892F82238B
:103DF0008F3F09F427C1D080C180A380B480F090A8
:103E00001502B501641B750BFF2009F4E7C0809112
:103E10001802382F307F683C710508F0ABC03111B3
:103E200078C0FE2C2C1114C09D1112C0E11010C0DE
:103E30008F70806180931802C4010E945219809192
:103E40001802F80185838F2D6196ECE00C943728D9
:103E5000A114B104C9F18D2D8C218F3FA9F181E00E
:103E60008E2580FF05C04E2D6C2D8D2D0E943908AA
:103E7000A114B10459F18D2D8C218F3F39F181E0CE
:103E80008E25F82FF170BF2E80FF39C04E2D6C2D7E
:103E90008D2D0E943908A82E811131C0DD86CE8675
:103EA0008D859E850E949708292F22952F7024309A
:103EB00078F49F702230A8F09923B9F0F801958129
:103EC000907F99F4FA2CBFCF80E0CBCF80E0D9CFA0
:103ED0002A5F2F70223068F0C8010E945219AB2C63
:103EE000F1CF992311F0882369F3805E883050F375
:103EF000F3CF803F38F3815F833070F7E3CFEE205C
:103F000009F4A1CF80911802816080931802F12CEE
:103F10009ACF2C1105C09D1103C0EE2009F477C083
:103F2000C8010E945509882309F1EE20F9F080911B
:103F30001802803270F020911302309114023887F9
:103F40002F831986BB86AA868C87CE0107960E948E
:103F5000521986E0F801A3E1B2E001900D928A9532
:103F6000E1F70E947B1EFF24F3946DCFC8010E94ED
:103F70005219F9CF31110AC083E192E00E9452191F
:103F800086E0F40111928A95E9F7C1CF2C110EC099
:103F90009D110CC0E1100AC08583C8010E9452190E
:103FA00086E0F40111928A95E9F74DCFC8010E948D
:103FB00055098823D9F2EE20C9F280911802803287
:103FC00040F220911302309114023A8329831B821C
:103FD000BD82AC828E83CE010196B9CF683C71055B
:103FE000F8F6FE2CEE2011F22C111EC09D111CC003
:103FF0008091180280FD0FC0982F907F61F085831B
:10400000903F31F0982F907F905F8F70892B858340
:10401000C8010E94521986E0F801A3E1B2E00190C4
:104020000D928A95E1F70FCFC8010E9455098111C1
:1040300090CF80911802816080931802C8010E947D
:10404000521901CFEE2009F491CFC8010E94550901
:10405000F82E882309F48ACF86E0F801A3E1B2E0C4
:1040600001900D928A95E1F78091130290911402CC
:104070000E9497080E947B1EE6CEA7E1B0E0E3E431
:10408000F0E20C9424284B8B5C8B6D8B7E8B8F8B9A
:104090006111109254021A8A198A85E0FE01739602
:1040A000DE011D9601900D928A95E1F786E0FE01F2
:1040B0003D96DE01179601900D928A95E1F7CE01AB
:1040C00007960E94D51E811112C086E0FE01379628
:1040D000DE01119601900D928A95E1F78A859B8504
:1040E000892B29F088859F8189238F3F81F516E0F0
:1040F00080914A0290911902891317C06796E3E0F4
:104100000C94402896E0929FD001939FB00D11240B
:10411000A65EBD4FFE01319601900D929A95E1F792
:10412000809319020E945908E2CF819FC001112497
:10413000865E9D4F0E94D51E882301F380914A021E
:1041400090E001968770992780934A02D1CF209101
:10415000190230E0C90101968770992740914A02FF
:104160004817190679F60E94E61310921902109268
:104170004A0286E0E3E1F2E0DF011D928A95E9F769
:10418000B6CFA5E0B0E0E7ECF0E20C9423280E9463
:1041900006048C018091590290915A028017910770
:1041A000A1F08FEF89838A831B820E9406048160BD
:1041B000782F9D838C8349815A816B818D810E94E8
:1041C0003D2010935A02009359022596E4E00C9486
:1041D0003F281F920F920FB60F9211242F933F93F7
:1041E0004F935F936F937F938F939F93AF93BF93FF
:1041F000CF93DF93EF93FF93D091E900DF7080912D
:10420000EC00C82FC17080FDC0E81092E9008091D9
:10421000F000877F8093F00078940E94FC13109246
:10422000E9008091F00088608093F000CD2BCF7082
:10423000C093E900FF91EF91DF91CF91BF91AF91D2
:104240009F918F917F916F915F914F913F912F91AE
:104250000F900FBE0F901F9018951F920F920FB6E0
:104260000F9211242F933F934F935F936F937F93FC
:104270008F939F93AF93BF93EF93FF938091E10050
:1042800082FF09C08091E20082FF05C08091E100B9
:104290008B7F8093E1008091DA0080FF24C08091C1
:1042A000D80080FF20C08091DA008E7F8093DA00F2
:1042B0008091D90080FF9DC080E189BD82E189BDE8
:1042C00009B400FEFDCF81E08093570380914A033B
:1042D000811109C00E948C020E942D038091E2008E
:1042E00084608093E2008091E10080FF17C080919C
:1042F000E20080FF13C08091E2008E7F8093E20095
:104300008091E20080618093E2008091D800806219
:104310008093D80019BC85E0809357038091E10019
:1043200084FF2BC08091E20084FF27C080E189BD1B
:1043300082E189BD89B5982F917080FFFBCF809174
:10434000D8008F7D8093D8008091E1008F7E80938C
:10435000E1008091E2008F7E8093E2008091E20094
:1043600081608093E20080915803882309F447C05C
:1043700084E080935703809157038091E10083FF8D
:1043800027C08091E20083FF23C08091E100877FF6
:104390008093E10082E0809357031092580380914C
:1043A000E1008E7F8093E1008091E2008E7F809318
:1043B000E2008091E20080618093E20042E060E0F0
:1043C00080E00E94FB028091F00088608093F00002
:1043D000FF91EF91BF91AF919F918F917F916F91DD
:1043E0005F914F913F912F910F900FBE0F901F90B3
:1043F000189519BC1092570310924A0374CF8091FC
:10440000E30087FD93E090935703B5CF78941F9214
:104410001FB61F9211248F939F93AF93BF938091E8
:10442000460390914703A0914803B0914903019638
:10443000A11DB11D8093460390934703A0934803A9
:10444000B0934903BF91AF919F918F911F901FBE71
:104450001F9018951F921FB61F9211248F939F9340
:10446000AF93BF9380914503811113C080914603A0
:1044700090914703A0914803B09149034196A11D33
:10448000B11D8093460390934703A0934803B093D4
:104490004903BF91AF919F918F911F901FBE1F90B5
:1044A0001895CDB7DEB72B970FB6F894DEBF0FBEC9
:1044B000CDBF85B7806885BF85B7806885BF84B765
:1044C000877F84BF0FB6F894A895809160008861BB
:1044D00080936000109260000FBE80E890E00FB6FD
:1044E000F89480936100909361000FBE88EC95E092
:1044F0009093E9018093E8010E948C020E942D03B1
:104500008091E20084608093E20078948091570368
:104510008823A1F01091E9001F709091EC00892F81
:10452000817090FD80E8182B1092E9008091E800DE
:1045300083FD0E94FC131F701093E90082E084BD8C
:1045400093E095BD9AEF97BD80936E00109295020F
:1045500010929602109297021092980255985D98C8
:104560008FE891E00197F1F700C0000089B185FB69
:10457000882780F98093470180914701882309F4B7
:1045800061C01092600186E0809361010E94ED0C91
:1045900081110E94B3269091470181E09827909362
:1045A000C802A82FA91BA0939A029091470180935B
:1045B000C90290914701809399028091470181112E
:1045C00006C087EF8093510186EF809350012091C0
:1045D0005101E22FE295EF70F0E061A12F7081E0D0
:1045E00090E0AC0101C0440F2A95EAF7342F3095D2
:1045F000362331A322A1242B22A320915001E22FA4
:10460000E295EF70F0E031A12F7001C0880F2A957C
:10461000EAF7982F9095932391A392A1892B82A3D7
:104620008FE891E00197F1F700C000001091C902F6
:104630006AEC72E041E551E080E5E82E81E0F82E79
:10464000FB012CC086E0809360019ECFDA012D91A2
:10465000AD01822F82958F7090E0DC0190968C9155
:1046600090E02F7002C0959587952A95E2F78170AA
:10467000D7019D917D01292F22952F7030E0D9011E
:1046800090962C9130E09F7002C0359527959A95B1
:10469000E2F790E020FD92E0892B81938E2F861B1C
:1046A0008117A0F28091470181112CC085E0E6E6D8
:1046B000F1E0DE01179601900D928A95E1F78F8166
:1046C00080934201888580934301898580934401CA
:1046D0008A85809345018B858093460186E0EBE6D1
:1046E000F1E0DE01119601900D928A95E1F7FE014D
:1046F0003196ACE3B1E0CE01079621912D93E817F6
:10470000F907D9F78091470195E0811190E09093E6
:10471000A60285E0891B8093A50202E411E027E44C
:10472000E22E21E0F22EF80181918F018F3F11F0EE
:104730000E94CA05E016F106B1F70CE311E092E41D
:10474000E92E91E0F92ED8018D918D018F3F11F066
:104750000E94CA05E016F106B1F78AE0ECEAF2E041
:10476000DF01282F1D922A95E9F7EBE9F2E0DF013E
:104770001D928A95E9F790E080E00E944029873EEB
:104780009E4F11F00E949C1882E090E00E94322916
:104790008093B60284E090E00E9440299093AA02A0
:1047A0008093A90283E090E00E94322990E00E9469
:1047B0005009259A2D9882E88093800089E18093A2
:1047C00081008FEF9FEF90938700809386000E9477
:1047D00011190E9411198091AB0281113BC090E028
:1047E00080E00E944029873E9E4F21F00E949C1845
:1047F0000E94D60F88E090E00E943A296093390326
:1048000070933A0380933B0390933C038091D502CD
:1048100083608093D5026E7F71F40E94D60F88E08A
:1048200090E00E943A296093390370933A03809391
:104830003B0390933C030E9423050E941C0580913A
:10484000390380FF04C060E086950E946E0F81E00E
:104850008093AB020E94ED0C811102C00E94B6262B
:1048600088E491E0909342038093410318E1612E24
:10487000712C06EBC02E02E0D02E84E0A82EB12CC5
:104880008091570300E112E1853009F482C00E9453
:10489000C81107EB12E0BCEAEB2EB2E0FB2ED70109
:1048A000F80191918D9122E0E13CF20709F47DC07D
:1048B0009817B9F30E94ED0C282E912CD7018D90FA
:1048C0007D01F80131908F01381429F1512C4424D5
:1048D00043943824832D8421B1F02220A1F0598201
:1048E0009A8291E0842D882109F490E09B830E94B4
:1048F00006048160782F9D838C8349815A816B8166
:104900008D810E943D205394440CF6E05F12E2CF6B
:10491000F8013197808293942AE09212CFCF0E94BF
:10492000FA0347C080915703843029F180E00E9448
:10493000720410924503F0E40FB6F894A8956092C3
:1049400060000FBEF093600083B7817F846083BFF7
:1049500083B7816083BF7894889583B78E7F83BF48
:104960000FB6F894A89580916000886180936000EC
:10497000109260000FBE80915603882351F00E9470
:10498000C811ECEAF2E0819181117FC1CE16DF06F9
:10499000D1F780915703853009F4C4CF0E94E61304
:1049A0000E9411190E94100D72CF981383CF0E949C
:1049B000C1200E94ED0C8091D402882309F464C0C8
:1049C0008091D302E0913903E695E81BE093CF0292
:1049D000823009F06FC0F0E0E355FE4FE4910E2FF6
:1049E00010E0A6EAEA2EACE0FA2E8091D0028823ED
:1049F00061F01092D0020E943B0D9093CE02809302
:104A0000CD021092D2021092D1020E943B0DE09191
:104A1000CD02F091CE029C012E1B3F0B2F3F3F4752
:104A200098F52091C3022223B1F01092C302209185
:104A3000C1023091C202821B930B8F3F9F4758F4F3
:104A4000205D3A483093C2022093C1028091D50282
:104A500088608093D5028090D1029090D202E00FBE
:104A6000F11FF093CE02E093CD028DEC92E0F701BE
:104A700009958091D1029091D202892B29F489283D
:104A800019F081E08093C302E12C912C8091C9023E
:104A9000E81608F47BC091100E9403080E94100DD4
:104AA0009091CC02891709F4EBCE8093CC020E943E
:104AB000FA03E6CE863059F4F0E0E655FE4FE49175
:104AC0000E2F10E0F6E9EF2EFCE0FF2E8ECF89309E
:104AD00061F4E695F0E0E955FE4FE4910E2F10E009
:104AE000EFEEEE2EEBE0FE2E80CF8F3061F4E695F8
:104AF000F0E0EC55FE4FE4910E2F10E074E6E72E47
:104B00007BE0F72E72CF853159F4F0E0EF55FE4F80
:104B1000E4910E2F10E06FEDE62E6AE0F62E65CFE1
:104B200008E210E03DE5E32E3AE0F32E883109F487
:104B30005CCF833249F4EFE9F1E00591149155E43B
:104B4000E52E5CE0F52E51CF04EF11E020E2E22EDD
:104B50002AE0F22E843209F448CF00ED17E096EEF9
:104B6000E92E93E0F92E853209F03FCF8E2F63E0D6
:104B70000E945C28E92FF0E0E456FE4FE4910E2FEE
:104B800010E04FE7E42E4DE0F42E2FCF0E2D10E075
:104B9000F801EF5AFE4F8081E82FE295EF70F0E0C8
:104BA000E0A1F0E08F7002C0F595E7958A95E2F7F5
:104BB000E170D801A05BBE4F2C91A22FA295AF70DF
:104BC000B0E090968C9190E02F7002C095958795FB
:104BD0002A95E2F780FD51C080E08E2BD801A653C4
:104BE000BD4FEC919E2F9370891709F444C0EE0FCE
:104BF000EE0FE82BEC93F090C802FE0CEF70F0E0A3
:104C0000E455FE4F0A531D4F8081D8019C91890FB6
:104C10008C93812C843084F0EF2DF0E0EC53FD4F29
:104C200080818F5F80830E94ED0C882E882339F16C
:104C300060E08F2D0E942A18F80180818D3F84F456
:104C4000EF2DF0E0EC53FD4F8081815080830E9476
:104C5000ED0C882E8823B1F061E08F2D0E942A1878
:104C6000D8018C91082E000C990BB5010E948A285E
:104C7000F80180839828E39409CF82E0AECF88249E
:104C80008394DACF88248394EBCF09BD19BD09B48E
:104C900000FEFDCF8091D8008F7D8093D800809159
:104CA000E00082608093E0008091E00081FDFCCF15
:104CB0000E94E6136ECE8EE1489B02C08150E1F760
:104CC000489BFECF0895589880E28A95F1F7589A4C
:104CD0000895FC013BE03A95F1F798E020E080E090
:104CE00031E040E14A95F1F7880F489B02C08160AE
:104CF000232742E04A95F1F7000040E14A95F1F799
:104D0000915079F790E19A95F1F799B132E03A959F
:104D1000F1F7000040E14A95F1F791709227208168
:104D2000920F90830895A1E0B0E0E9E9F6E20C94D7
:104D3000212819828C017C01E60EF11C0E151F053D
:104D400041F481E09981911180E02196E6E00C9494
:104D50003D280E945B26CE0101960E946926F8013B
:104D600081938F01EBCF509A589A08955098589A92
:104D7000E89AE9E6F0E080818C7F808308956150B5
:104D8000770B91E001C0990F6A95EAF720E031E0D6
:104D9000911108C0222391F0589A80E28A95F1F788
:104DA00058980895492F482339F0589A232740E20C
:104DB0004A95F1F79695ECCF5898F9CF5898EDCFE2
:104DC000FF920F931F93CF93DF93EC018C01060F9B
:104DD000111DC017D10729F4CDB7DEB7E5E00C945B
:104DE0003E28F9900E94632668E08F2D0E94BF261E
:104DF000F0CF1F920F920FB60F9211240F931F93B3
:104E00002F933F934F935F936F937F938F939F93D2
:104E1000AF93BF93EF93FF93CF93DF930F92CDB7F1
:104E2000DEB719820E945B26CE0101960E94692698
:104E3000082F069506950695282F22952570902F08
:104E40009570290F922F937026952695920F98278B
:104E500097708981982B09F05CC0083008F059C020
:104E600080E18A95F1F7589A509A82E08A95F1F795
:104E700000C0589888E0089F80011124D801AC5FD9
:104E8000BE4F1696ED91FC9117973097A9F060915F
:104E9000AA017091AB0114962D913C911597260FA4
:104EA000371F11968D919C911297680F791F139659
:104EB0004C9113978C910995F801EC5FFE4F63813B
:104EC000662351F02091AA013091AB018481958134
:104ED000820F931F0E94E0260E94632680E18A953C
:104EE000F1F758985098589A80E18A95F1F7F801AF
:104EF000EC5FFE4F6081662351F02091AA01309152
:104F0000AB0181819281820F931F0E9493260E94A0
:104F10005B260F90DF91CF91FF91EF91BF91AF9101
:104F20009F918F917F916F915F914F913F912F91C1
:104F30001F910F910F900FBE0F901F9018950F9318
:104F40001F93CF93DF93EC0108970CF04CC0F894BB
:104F5000509A589885E08A95F1F700009C2F969515
:104F600095708C2F8570980F892F837096959695E4
:104F700023E0CC0FDD1F2A95E1F7980F8E01092B56
:104F80000E94632600C068E0802F0E94BF2680E157
:104F90008A95F1F75098589A489B1EC087E090E098
:104FA00048991CC0FE01EC5FFE4F63816623F9F057
:104FB0002091AA013091AB0184819581820F931FCA
:104FC0000E949326811113C0509A589A7894DF91C9
:104FD000CF911F910F91089500C0DECF019729F462
:104FE000509A589A789480E0F2CF00C0D9CF0E94AE
:104FF0005B2680E28A95F1F75898509A80E18A956D
:10500000F1F7CC5FDE4F6881662351F02091AA0151
:105010003091AB0189819A81820F931F0E94E02613
:105020000E946326789481E0D2CF2F923F924F92D4
:105030005F926F927F928F929F92AF92BF92CF9228
:10504000DF92EF92FF920F931F93CF93DF93CDB731
:10505000DEB7CA1BDB0B0FB6F894DEBF0FBECDBFA9
:1050600009942A88398848885F846E847D848C847A
:105070009B84AA84B984C884DF80EE80FD800C8183
:105080001B81AA81B981CE0FD11D0FB6F894DEBF66
:105090000FBECDBFED010895DB018F939F930E945A
:1050A0009929BF91AF91A29F800D911DA39F900D53
:1050B000B29F900D11240895991B79E004C0991FA7
:1050C000961708F0961B881F7A95C9F78095089562
:1050D00087FB082E062687FD819567FD61950E9456
:1050E0005C280EF4919507FC81950895AA1BBB1BC3
:1050F00051E107C0AA1FBB1FA617B70710F0A61BD8
:10510000B70B881F991F5A95A9F780959095BC01F8
:10511000CD01089597FB072E16F4009407D077FD74
:1051200009D00E94762807FC05D03EF49095819521
:105130009F4F0895709561957F4F0895EE0FFF1F63
:105140000590F491E02D09940E94CE29332312F4A6
:105150008A1B9B0B0C94AE280E94CE29B7FF0895A2
:10516000821B930B08958F929F92AF92BF92CF9222
:10517000DF92EF92FF92CF93DF93EC016881798108
:105180008A819B81611571058105910521F464E295
:1051900079ED8BE597E02DE133EF41E050E00E949F
:1051A0007A2949015A019B01AC01A7EAB1E40E94A6
:1051B00099296B017C01ACEEB4EFA50194010E942A
:1051C000A729DC01CB018C0D9D1DAE1DBF1DB7FFB6
:1051D00003C00197A109B04888839983AA83BB8340
:1051E0009F77DF91CF91FF90EF90DF90CF90BF90AE
:1051F000AF909F908F9008950E94B328089580E00B
:1052000091E00E94B3280895B0E0A0E080930001EF
:1052100090930101A0930201B09303010895FC0152
:105220004150504030F001900616D1F73197CF0130
:105230000895882799270895FB01DC0104C08D910A
:105240000190801921F441505040C8F7881B990BF8
:105250000895FB01DC0102C001900D9241505040C5
:10526000D8F70895F999FECF92BD81BDF89A992794
:1052700080B50895A6E1B0E044E050E00C946C29BC
:10528000A8E1B0E042E050E00C946C29262FF99997
:10529000FECF92BD81BDF89A019700B4021639F095
:1052A0001FBA20BD0FB6F894FA9AF99A0FBE089566
:1052B0000396272F0E9447290E944629252F0E94E6
:1052C0004729242F0C9447290196272F0E9447290C
:1052D0000C944629DC01CB01FC01F999FECF06C0F4
:1052E000F2BDE1BDF89A319600B40D9241505040A4
:1052F000B8F70895052E97FB1EF400940E9491299B
:1053000057FD07D00E94AC2907FC03D04EF40C9443
:10531000912950954095309521953F4F4F4F5F4FC4
:10532000089590958095709561957F4F8F4F9F4F11
:1053300008950E94CE29A59F900DB49F900DA49F23
:10534000800D911D11240895B7FF0C9499290E9496
:105350009929821B930B0895A1E21A2EAA1BBB1B4D
:10536000FD010DC0AA1FBB1FEE1FFF1FA217B30731
:10537000E407F50720F0A21BB30BE40BF50B661F47
:10538000771F881F991F1A9469F76095709580950B
:1053900090959B01AC01BD01CF010895A29FB00182
:1053A000B39FC001A39F700D811D1124911DB29F59
:1053B000700D811D1124911D0895F894FFCFDB1409
:1053C00003159B1603159B16361557159B16541679
:1053D00061167B1AF01A831A4D1A511A871A551A38
:1053E0008B1A971A611AE91A651A9B1A691A9F1A79
:1053F000C71A6D1AA31ACE1A731AA91AB11A591A12
:105400008F1A5D1A931A771AAD1ABD1AD71AE71AAE
:10541000471A7F1AF71A131C131C4B1C4B1CF01C49
:10542000771C771C771C0C1D941DA31DA31D0A1B44
:105430002C1B331B381B3D1B421B471B4C1B511B9A
:10544000561B5B1B601B621B671B6A1B6D1B701B63
:10545000731B751B781B7A1B2E1A321A231A2A1AF1
:06546000361A3A1A3E1A4A
:10546600010000000000000100000000000000052F
:10547600010000000000000106000000000000011D
:10548600070000000408000000000000010C0000F6
:1054960000000000080D000000000000F1F49392E7
:1054A600379431F0F5F6F701E803C109E703BA09C5
:1054B600333201191A1B1C1D1E1F20212201020155
:1054C600000C000C0C01313292F1F494979337F0F2
:1054D60033818283E200E900EA00B500B600B70036
:1054E600CD008301CC008A0192019401210223029E
:1054F60024022502260227022A02B300B4006F0006
:1055060070009F01CB019F02A002730200FF010001
:10551600010000FFFF0000010001FF000001020280
:1055260002020606060909090909090F0F0F0F0FDE
:105536000F151515181919191919191919191923E2
:0855460024252525252525005B
:00000001FF
