:100000000C949F020C94BC020C94BC020C94BC0295
:100010000C94BC020C94BC020C94BC020C94BC0268
:100020000C94BC020C94BC020C947A150C944814E9
:100030000C9409250C94BC020C94BC020C94BC02D8
:100040000C94BC020C94BC020C94BC020C94BC0238
:100050000C94BC020C948C140C94BC020C94BC0246
:100060000C94BC020C94BC020C94BC020C94BC0218
:100070000C94BC020C94BC020C94BC020C94BC0208
:100080000C94BC020C94BC020C94BC020C94BC02F8
:100090000C94BC020C94BC020C94BC020C94BC02E8
:1000A0000C94BC020C94BC020C94BC020001010133
:1000B0000101010101010202020202020202020325
:1000C00003030303030303040404040404040505F5
:1000D00005050506060606060707070707080808B8
:1000E00008090909090A0A0A0B0B0B0C0C0C0D0D67
:1000F0000D0E0E0E0F0F0F101011111112121313FF
:100100001414151516161717181819191A1A1B1B77
:100110001C1D1D1E1E1F20202122222324242526D3
:1001200026272829292A2B2C2D2D2E2F303132320B
:10013000333435363738393A3B3C3D3E3F40414217
:10014000434445464748494A4C4D4E4F50515354FD
:10015000555658595A5B5D5E5F61626465666869B1
:100160006B6C6D6F7072737577787A7B7D7E808231
:10017000838587888A8C8E8F91939596989A9C9E7A
:10018000A0A2A3A5A7A9ABADAFB1B3B5B7BABCBE8A
:10019000C0C2C4C6C9CBCDCFD1D4D6D8DBDDDFE257
:1001A000E4E7E9EBEEF0F3F5F8FAFDFFFFAA7F557F
:1001B000402223252628292A2C2D2F30323335366C
:1001C000383A3B3D3E4042434547494A4C4E5051E8
:1001D000535557595A5C5E6062646668696B6D6F0F
:1001E00071737577797B7D7F81838587898A8C8E12
:1001F00090929496989A9C9E9FA1A3A5A7A8AAAC1A
:10020000AEAFB1B3B4B6B8B9BBBCBEBFC1C2C3C553
:10021000C6C7C9CACBCCCDCED0D1D2D2D3D4D5D6F5
:10022000D7D7D8D9D9DADADBDBDBDCDCDCDCDCDD28
:10023000DDDDDDDCDCDCDCDCDBDBDBDADAD9D9D80C
:10024000D7D7D6D5D4D3D2D2D1D0CECDCCCBCAC9A4
:10025000C7C6C5C3C2C1BFBEBCBBB9B8B6B4B3B1D3
:10026000AFAEACAAA8A7A5A3A19F9E9C9A9896946E
:1002700092908E8C8A89878583817F7D7B79777543
:1002800073716F6D6B6968666462605E5C5A595722
:10029000555351504E4C4A4947454342403E3D3BE1
:1002A0003A3836353332302F2D2C2A29282625236B
:1002B0002229002B003500E100010000001E00147F
:1002C0000004001D000100E3001F001A0016001BBF
:1002D000000100015120000800070006000100E0B5
:1002E0000021001500090019000100E2002200179A
:1002F000000A0005000000010001000100000001EB
:1003000000000001000100010000000100000001E8
:100310000023001C000B0011000000010024001845
:10032000000D0010000100010025000C000E003639
:100330000001002C00260012000F00370001000110
:10034000002700130033003800010001002A0031AB
:10035000002800340001000000010001000100013C
:1003600000010000003A00010001000100C25C4DE4
:10037000003B00010001000100C65C01003C0026BA
:10038000022F022F00C55C01003D00270230023021
:100390000001004A003E00010001000100000001D0
:1003A0000001000100000001000000010001000147
:1003B0000000000100000001003F002D00010001CD
:1003C000000000010040002E005000010001004B21
:1003D00000410052005100010001000100420001F3
:1003E000004F000100010001004300010001000175
:1003F0000001004E004C00440045000100010000D7
:100400000000047F3F1F643214643214783C1E1EC7
:10041000140A0505010980A10185031A81002A83B8
:1004200000160100260300950175108100C0050C1F
:100430000901A10185041A01002A9C021601002667
:100440009C02950175108100C005010906A1018576
:1004500005050719E029E7150025019508750181B3
:10046000020507190029EF1500250195F075018196
:100470000205081901290595057501910295017577
:10048000039101C005010906A101050719E029E74B
:1004900015002501950875018102950175088101F6
:1004A0000507190029FF150026FF0095067508812C
:1004B0000005081901290595057501910295017539
:1004C000039101C009023B00020100A0FA090400E7
:1004D0000001030101000921110100012240000770
:1004E00005810308000A0904010001030000000956
:1004F00021110100012271000705820320000A1268
:1005000001100100000008EDFE07130100010203C5
:100510000104033000000016034500720067006FFD
:100520000064006F007800200045005A00000008B9
:10053000035A005300410000000403090400112481
:100540001FBECFEFDAE0DEBFCDBF11E0A0E0B1E02B
:10055000E4EEFFE402C005900D92AE3EB107D9F77C
:1005600023E0AEEEB1E001C01D92A936B207E1F77B
:100570000E9460220C94B1270C940000E8EDF0E09A
:1005800080818E7F80831092E2001092DA001092B8
:10059000E100A0EEB0E08C9181608C9380818F7738
:1005A000808319BCA7EDB0E08C918E7F8C93808105
:1005B0008F7E80831092340308952091E40030915F
:1005C000E50095E6A9012091EC00822F817020FFC3
:1005D00006C08091E80080FF06C080E00895209169
:1005E000E80022FD1AC080915B03882389F08530E2
:1005F00089F08091EB0085FD0FC02091E4003091DF
:10060000E50042175307F9F29150E1F684E00895AE
:1006100082E0089583E0089581E00895EF92FF92CB
:100620000F931F93CF937C018B010E94DD02C82F93
:10063000811117C08091E80085FD0BC08091E80012
:100640008E778093E8000E94DD02882399F3C82FFB
:1006500008C0F70181917F018093F10001501109D9
:1006600049F78C2FCF911F910F91FF90EF90089534
:1006700080915D0387FF13C08091E80082FF06C070
:100680008091E8008B778093E80004C080915B0341
:100690008111F2CF089580915B038823D9F3809173
:1006A000E80080FFF8CF8091E8008E77ECCF982F9C
:1006B0009093E900242F762F50E0891731F0709144
:1006C000EC002091ED005091F00021FD07C09F5FEC
:1006D000973071F78093E90081E008953091EB0045
:1006E0003E7F3093EB003091ED003D7F3093ED0085
:1006F0003091EB0031603093EB007093EC0020936D
:10070000ED005093F0002091EE0027FDE0CF80E057
:100710000895CF92DF92EF92FF920F931F93CF93A2
:10072000DF93C8EDD0E088818F7E8883E7EDF0E02D
:1007300080818160808384E082BF81E08093340384
:1007400088818E7F888302EE10E0F801108210927B
:10075000DA0081EEC82ED12CF601108288818F77C5
:10076000888388818068888388818F7D888319BC8D
:1007700010925B0310925C0310925A03109259037B
:1007800090EEE92EF12CF70180818B7F80838881A8
:100790008160888342E060E080E00E945703F601B8
:1007A00080818E7F8083F801808181608083808159
:1007B00088608083F70180818E7F8083888180615B
:1007C0008883DF91CF911F910F91FF90EF90DF9081
:1007D000CF900895FC018091630390916403861784
:1007E0009707A0F06115710529F49091E8009E77B4
:1007F0009093E80090E06115710551F4911108C0E3
:100800008091E80082FF34C080E00895BC01F2CFFF
:1008100080915B038823C1F18530C1F18091E800AC
:1008200083FD30C08091E80082FDEACF8091E8002E
:1008300080FFE1CF8091F3002091F200382F611505
:10084000710519F02830310558F091E02830310554
:1008500009F090E02091E8002E772093E800CBCFBC
:1008600081918093F100615071092F5F3F4FE7CF75
:1008700080915B03882341F0853041F08091E8004E
:1008800083FFBECF81E0089582E0089583E008955C
:1008900008950895809138030895CF92DF92EF92E2
:1008A000FF920F931F932FB7F8944091E30250915A
:1008B000E4026091E5027091E6022FBF6A017B01BC
:1008C000EE24FF248C0130E020E0C016D106E206C1
:1008D000F30650F0481B590BCA011F910F91FF906E
:1008E000EF90DF90CF90089541505109F3CF809160
:1008F000DE0281111092DE0208958091DD02909156
:10090000DC02892B9091DB02892B8093EE01909180
:10091000DE029923A1F0892B8093EE0180911F01C3
:10092000882341F18091FF0287FF24C08EE1E0EF30
:10093000F1E090E0815000F591110E947704E09180
:100940000603F09107033097E1F080911F0188239F
:1009500059F08091FF0287FF07C08091EE018093DC
:10096000EF0185E08093EE010280F381E02D8EEEB1
:1009700091E0099486E0DBCF21912223D9F29F5F99
:10098000D9CF089590911F019923D1F09091FF0242
:1009900097FF16C0E82FE695E695E695EE31E0F470
:1009A000F0E0E251FE4F282F277081E090E001C077
:1009B000880F2A95EAF7809592818923828308958A
:1009C000E0EFF1E09191891303C0DF0111971C92D0
:1009D00091E0E63FF907B1F7089590911F0199233F
:1009E000C1F09091FF0297FF14C0E82FE695E695BD
:1009F000E695EE31F8F4F0E0E251FE4F877021E029
:100A000030E001C0220F8A95EAF78281822B82832F
:100A10000895A0EFB1E0EFEF90E02D91821751F033
:100A2000EF3F19F4211101C0E92F9F5F9630A9F71C
:100A3000EF3F09F408950E2E000CFF0BE251FE4F1C
:100A4000E6CFE92FEE0FE90FEE0F8E0F982F97707C
:100A500086958695869525E0829FF0011124ED55B7
:100A6000FD4F50E040E080E0219130E0092E02C0CF
:100A7000369527950A94E2F721703327042E01C09A
:100A8000220F0A94EAF7822B4F5F5F4F45305105E2
:100A900059F70895E92FEE0FE90FEE0F8E0F982FFB
:100AA000977041E001C0440F9A95EAF786958695C4
:100AB000869595E0899FF0011124ED55FD4F30E0BA
:100AC00020E070E05191DF011197CB01022E02C0AE
:100AD000969587950A94E2F78170819585278423FE
:100AE00085278C932F5F3F4F2530310559F70895A7
:100AF0008091A20290917102981301C008958F5FB6
:100B00008770FACF882341F080959091DC02892389
:100B10008093DC020C947D040895882339F0909131
:100B2000DC02982B9093DC020C947D0408958823BA
:100B300041F080959091DD0289238093DD020C9431
:100B40007D040895882339F09091DD02982B9093CD
:100B5000DD020C947D0408952091550230915602D7
:100B60002817390771F09093560280935502E0914F
:100B70000603F0910703309721F00084F185E02D02
:100B8000099408952091530230915402281739078F
:100B900071F09093540280935302E0910603F09118
:100BA0000703309721F00680F781E02D099408951E
:100BB0001092DC021092DB020E947D0490E080E043
:100BC0000E94C20590E080E00C94AC056093DF02C7
:100BD0007093E0028093E1029093E2020C94D805B6
:100BE000E0910603F0910703309721F00190F08126
:100BF000E02D099480E00895882309F452C08238DA
:100C000071F40E94F00581FF4CC089E30E94ED045D
:100C10000E947D0489E30E94C2040C947D04833801
:100C200059F40E94F00580FF3CC083E50E94ED046A
:100C30000E947D0483E5EFCF843859F40E94F005CB
:100C400082FF2FC087E40E94ED040E947D0487E4A8
:100C5000E2CF9CEF980F913AF0F290E2980F983023
:100C600088F4877021E030E0A90102C0440F551FCD
:100C70008A95E2F7CA0180959091DD0289238093DD
:100C8000DD02CBCF9BE5980F933020F490E080E01D
:100C90000C94C205885A873120F490E080E00C94CF
:100CA000AC050895FA01811101C0FB0109948091FE
:100CB0002D03982F9E7F29F48170826080932D03ED
:100CC00008958A34E8F381708864F8CFAF92BF92B8
:100CD000DF92EF92FF920F931F93CF93DF93082F32
:100CE000162FE901E42FF0E0E455FF4F611111C028
:100CF000E4915E2F4E2F4983E8835A831B82DF9154
:100D0000CF911F910F91FF90EF90DF90BF90AF9028
:100D10000895E62EF12C4491D42EE42FF0E026E045
:100D2000829FC00111242FEF30E0B9010E94F72506
:100D3000802F90E0880F991F55E5569FD001579F4F
:100D4000B00D11248A1B9B0B982F990F890F590105
:100D5000AE18BF08AE9ED001AF9EB00DBE9EB00DC6
:100D600011245B2F189F80011124012F1127590195
:100D7000A01AB10AAE9E8001AF9E100DBE9E100D4E
:100D800011245901A81AB108AE9CC001AF9C900D66
:100D9000BE9C900D1124892F9927281B390B2E9F5B
:100DA000C0012F9F900D3E9F900D1124E92F6230BE
:100DB0007105A1F050F46115710509F49CCF613003
:100DC000710581F0EB2F512F96CF6430710569F0DA
:100DD00080F06630710509F48ECFF4CFE42F4B2FED
:100DE000592F89CFE42F412F86CFEB2F542F492F36
:100DF00082CF4B2F5D2DE12F7ECF9091FF0292FF8E
:100E000006C0282F28712830F9F4877F846093FF6B
:100E100006C0282F28712831F1F4877E8461209143
:100E2000000320FF06C0382F38713830D9F4877F8F
:100E3000816021FF06C0282F28712831D1F4877ED8
:100E4000816194FD877E0895282F24712430F9F65E
:100E50008B7F8860DCCF282F2471243101F78B7EB3
:100E60008861DDCF382F3171313019F78E7F88607E
:100E7000E0CF282F2171213121F78E7E8861E1CFCB
:100E8000CF93DF93972F70E026E0929F600D711D46
:100E90001124FB0134E5839FE00DF11D1124EE0FB9
:100EA000FF1FEF54FD4FC591D491CE01C238D1053B
:100EB000B9F1E8F5C133D10509F499C050F5C9324B
:100EC000D10509F48DC0CA32D10509F497C0C11506
:100ED00042E5D40708F039C1C11521E5D20708F071
:100EE000B8C1C83ED10508F020C1C03ED10568F5A3
:100EF000C83AD10508F089C0C53AD10508F07AC1D1
:100F0000C130D10511F1209709F443C02497E8F4CA
:100F100040C0C533D10509F45CC0C933D105B9F669
:100F20002091FF02237089F080EE90E00EC0C33E56
:100F3000D10591F168F4C03ED105F9F0C23ED1056A
:100F400031F62091FF0222FD20C0DF91CF9108955C
:100F5000C63ED10561F1C73ED10581F1C43ED10540
:100F600009F0B5CF2091000321FFEFCF8091FF0260
:100F700084FD0FC087EE90E0E8CF2091FF0220FDB6
:100F800098C13091000330FFE0CF83EE90E024FF62
:100F9000DCCF90E080E0D9CF2091FF0222FD8CC110
:100FA0003091000330FDC0CF24FFCFCFF2CF20918E
:100FB000FF0223FFCACF24FDECCFDCCF2091FF023C
:100FC00023FD7DC13091000331FFEECF84EE90E030
:100FD000BCCF2091FF0225FFB8CF89E290E0B5CFCA
:100FE0002091FF0225FFB1CF85E390E0AECF2091A5
:100FF000FF0226FFAACF8AE290E0A7CF2091FF024E
:1010000026FFA3CF81E390E0A0CFCF3BD10508F628
:1010100082EE94E4C83AD10509F497CF89EE94E4BE
:10102000C93AD10509F491CF8AEE94E4CA3AD105C0
:1010300009F48BCF85EB94E4CB3AD10509F485CF45
:1010400086EB94E4CC3AD10509F47FCF83EB94E4AA
:10105000CB3BD10509F479CF84EB94E4CC3BD105AB
:1010600009F473CF87EB94E4CD3AD10509F46DCF41
:101070008CEC94E4C03BD10509F467CF8DEC94E48B
:10108000CE3AD10509F461CF83E895E4CF3AD10592
:1010900009F45BCF8AE895E4C13BD10509F455CF4B
:1010A00082E995E4C23BD10509F44FCF84E995E488
:1010B000C33BD10509F449CF81E296E4C43BD10595
:1010C00009F443CF83E296E4C53BD10509F43DCF53
:1010D00084E296E4C63BD10509F437CF85E296E475
:1010E000C73BD10509F431CF86E296E4C83BD10570
:1010F00009F42BCF87E296E4C93BD10509F425CF4B
:101100008FE694E4CD3BD10509F41FCF80E794E44A
:10111000CE3BD10509F419CF80E094E4CA3BD10558
:1011200009F013CF8AE296E410CFC11530E5D3075A
:1011300008F073C0C11540E4D40708F06AC0DA951E
:10114000C115DF4108F401CF24CFC11536E5D3071F
:1011500018F5C11545E5D40708F091C0C11584E51F
:10116000D80708F087C09C2F96959695AE014370DE
:101170005527C115D34508F471C021E030E002C005
:10118000220F331F4A95E2F740E2949FC0011124D9
:10119000822B932B9A68D9CEC1153AE5D30778F400
:1011A000C11549E5D40708F074C0C11588E5D80712
:1011B00008F4EFCE9C2F8827806F906AC6CEC115A9
:1011C0009BE5D90708F4E5CECE01C1152CE5D20781
:1011D00008F46CC090568115904208F0DACE8D2F3D
:1011E0008F710E94FD0690E0982F882788279F71B5
:1011F0008C2B4DC081E890E4C53AD10509F4A5CE09
:1012000082E890E4C63AD10509F49FCE83E890E4E1
:101210009CCECE019F70906A98CE9E01E4E03695F8
:101220002795EA95E1F723708C2F86958695837034
:1012300040E2849FC0011124922BC37021E030E072
:1012400002C0220F331FCA95E2F7822B932B9C68B2
:101250007CCE9C2F8827816F906A77CE21E030E08A
:1012600002C0220F331F4A95E2F740E2949FC0016B
:101270001124EBCF9C2F8827846F906A66CE8C2F29
:101280000E94FD0690E0982F882788279F71906222
:101290005CCE8C2F8F700E94FD0634E0D695C795EA
:1012A0003A95E1F7CF709C2F90694FCE99279066C1
:1012B0004CCE89E390E049CE82EE90E046CE86EEB9
:1012C00090E043CEBF92CF92DF92EF92FF920F93C6
:1012D0001F93CF93DF938C01C0900203D090030340
:1012E000E0900403F09005038091DF029091E0020A
:1012F000A091E102B091E202C82AD92AEA2AFB2A87
:10130000CFE1D0E0BC2ED701C6010C2E04C0B695AB
:10131000A795979587950A94D2F780FD0EC02197DF
:1013200088F7B12C8B2DDF91CF911F910F91FF90FA
:10133000EF90DF90CF90BF900895B8018C2F0E945E
:101340004007019761F3EECFCF93DF93EC010E944A
:101350006209BE01DF91CF910C9440070E94A4095D
:10136000292F2F7092959F7092509E3078F4E92F1C
:10137000F0E0ED54F84D0C941F26803F19F020F456
:10138000883E20F481E00895843FE1F380E00895F1
:10139000883EC0F3813FD1F7F5CF822F86958695A1
:1013A0008695089527982F98089526982E98089541
:1013B00025982D98089556985E980895279A2F9A03
:1013C0000895269A2E9A0895259A2D9A089584B103
:1013D000807F84B985B1807F85B98AB1837F8AB9DE
:1013E0008BB1837F8BB93E984698089580B38C70FB
:1013F00080BB81B3836F81BB0895CF93DF9300D00F
:101400000F92CDB7DEB79C0190915B03943019F534
:1014100099833B832A8382E08093E9008FEF909148
:10142000E800815095FD06C095ED9A95F1F7000012
:101430008111F5CF8091E80085FF0DC050E040E0BC
:1014400063E070E0CE0101960E940E038091E800F7
:101450008E778093E8000F900F900F90DF91CF91DF
:101460000895CF93DF9300D00F92CDB7DEB72091D0
:101470005B03243031F523E02983805891099B8355
:101480008A8382E08093E9008FEF9091E800815099
:1014900095FD06C095ED9A95F1F700008111F5CF05
:1014A0008091E80085FF0DC050E040E063E070E00F
:1014B000CE0101960E940E038091E8008E77809302
:1014C000E8000F900F900F90DF91CF910895CF9388
:1014D000DF93EC0180915B038430B9F580911F01AB
:1014E0008823B1F18091FF0287FF32C060E282E081
:1014F0008093E9008FEF9091E800815095FD06C040
:1015000095ED9A95F1F700008111F5CF8091E800F3
:1015100085FF1BC080911F0170E050E040E0811109
:1015200004C050E040E068E070E0CE010E940E038D
:101530008091E8008E778093E80080E2FE01A9E3C5
:10154000B3E001900D928A95E1F7DF91CF91089574
:1015500068E081E0CDCF882309F402C18238B9F474
:101560000E94F00581FDFCC089E30E94ED040E9409
:101570007D042FEF81EE94E0215080409040E1F710
:1015800000C0000089E30E94C2040C947D048338EB
:10159000A1F40E94F00580FDE3C083E50E94ED0404
:1015A0000E947D042FEF81EE94E021508040904016
:1015B000E1F700C0000083E5E6CF8438A1F40E9483
:1015C000F00582FDCDC087E40E94ED040E947D04F9
:1015D0002FEF81EE94E0215080409040E1F700C071
:1015E000000087E4D0CF9CEF980F913A18F40E9446
:1015F000ED04CBCF90E2980F983068F4877021E02B
:1016000030E001C0220F8A95EAF78091DD02822B3B
:101610008093DD02BACF9BE5980F933070F4853A42
:1016200031F0863A39F083E890E00C94C20581E805
:1016300090E0FBCF82E890E0F8CF98E5980F9731E3
:1016400008F08EC0883A09F446C0893A09F446C0C9
:101650008A3A09F446C08B3A09F446C08C3A09F438
:1016600046C08B3B09F446C08C3B09F446C08D3A1A
:1016700009F446C0803B09F446C08E3A09F446C0DE
:101680008F3A09F446C0813B09F446C0823B09F415
:1016900046C0833B09F446C0843B09F446C0853B01
:1016A00009F446C0863B09F446C0873B09F446C0AE
:1016B000883B09F446C0893B09F446C08D3B09F4D8
:1016C00046C08E3B09F446C08A3B09F446C090E010
:1016D00080E00C94AC0582EE90E0FBCF89EE90E0C8
:1016E000F8CF8AEE90E0F5CF85EB90E0F2CF86EB75
:1016F00090E0EFCF83EB90E0ECCF84EB90E0E9CF8C
:1017000087EB90E0E6CF8CEC90E0E3CF8DEC90E0BF
:10171000E0CF83E891E0DDCF8AE891E0DACF82E99B
:1017200091E0D7CF84E991E0D4CF81E292E0D1CFAC
:1017300083E292E0CECF84E292E0CBCF85E292E0EA
:10174000C8CF86E292E0C5CF87E292E0C2CF8FE6B3
:1017500090E0BFCF80E790E0BCCF8AE292E0B9CFC3
:101760000895CF93C82F0E94AB0AC93349F42FEFD5
:1017700087EE93E0215080409040E1F700C00000E8
:101780008C2FCF910C94FC05EF92FF920F931F9337
:10179000CF93DF930E94DB090E94D8090E94D509EC
:1017A0000E94D20988E8E82EF12C8FEF90E0F70133
:1017B000918380830AE810E0F80191838083CCE86C
:1017C000D0E0998388830E94E409FFEF20E782E05C
:1017D000F15020408040E1F700C000000E94E10984
:1017E0009FEFE0E7F2E09150E040F040E1F700C009
:1017F00000000E94DE092FEF80E792E02150804038
:101800009040E1F700C000000E94D809EFEFF0E738
:1018100022E0E150F0402040E1F700C000000E94CB
:10182000D5098FEF90E7E2E081509040E040E1F78A
:1018300000C000000E94D2098091ED028770FFEF86
:101840008F9FC00111249595879595958795992728
:10185000F70191838083F801918380839983888342
:101860000E94DB090E94D8090E94D509DF91CF911F
:101870001F910F91FF90EF900C94D209CF9384E0C9
:1018800090E00E943126C82F81E290E00E9431262C
:10189000982F8C2FCF9108956091E9028CE090E011
:1018A0000C944526CF92DF92EF92FF926B017C0160
:1018B0000E945706B701A60188E090E0FF90EF90E4
:1018C000DF90CF900C94572680913103833018F429
:1018D0008F5F8093310360912D0370912E0380916F
:1018E0002F03909130030C94520C80913103882384
:1018F00019F081508093310360912D0370912E0374
:1019000080912F03909130030C94520CEDE2F3E0A0
:1019100083E0808311828FEF8283838314826081CE
:101920007181828193810C94520C6FEE7EEF90E076
:1019300080E00E94632660E082E090E00E944526FD
:1019400060E083E090E00E9445261092DF02109252
:10195000E0021092E1021092E20260E084E090E086
:101960000E94452660E081E290E00E94452660E00A
:1019700085E090E00E94452660E086E090E00E94CD
:1019800045266FEF87E090E00E94452640E050E05A
:10199000BA0188E090E00E94572660E08DE090E078
:1019A0000E94452640E050E0BA0188E190E00E94A4
:1019B000572660E087E190E00E94452640E050E035
:1019C000BA018CE190E00E94572660E080E290E04E
:1019D0000E9445261092ED021092EE021092EF0244
:1019E0001092F00284E080618093ED024091ED025C
:1019F0005091EE026091EF027091F0028FE090E062
:101A00000E94572640E050E0BA0183E190E00C9438
:101A100057261092DD0280911F01E0EFF1E088234C
:101A200059F08091FF0287FF07C08EE1DF011D9210
:101A30008A95E9F70C94D80586E0F8CF1F93CF93E9
:101A4000DF93CDB7DEB7AA970FB6F894DEBF0FBE0F
:101A5000CDBF8DE593E02091F100FC012193CF01F2
:101A6000F3E085369F07B9F780915E03833009F470
:101A70006FC0B8F4813009F446C0823009F4B0C0B8
:101A80008091E80083FF87C280915D0390915E039F
:101A90009A3008F080C2E92FF0E0EF53F84D0C9433
:101AA0001F268A3009F48BC08B3009F46EC0893050
:101AB00039F780915D03813219F78091610390912C
:101AC00062030297E8F68091E800877F8093E80040
:101AD0008091E80082FF37C09091F3008091F2007E
:101AE000029729F48091F1008B7F813021F480915D
:101AF000F100809338038091E8008B778093E800B1
:101B00000E943803BDCF80915D03813A09F0B8CFC0
:101B10008091E800877F8093E80080916103909135
:101B20006203892B61F460E289E393E070E00E9434
:101B3000EA038091E8008B778093E800A1CF60E012
:101B400090E080E0F3CF80915B038111C1CF98CF0B
:101B500080915D03813A09F093CF80916103909168
:101B60006203892B09F08CCF8091E800877F8093F6
:101B7000E8008091E80080FFFCCF80911F018093F6
:101B8000F1008091E8008E77B9CF80915D038132BA
:101B900009F076CF8091610390916203892B09F05F
:101BA0006FCF8091E800877F8093E8000E94380320
:101BB00080915F0380931F010E94090D61CF809186
:101BC0005D03813209F05CCF8091E800877F8093CC
:101BD000E8000E943803809160038093370350CF60
:101BE00080915D03813A09F04BCF8091E800877FB7
:101BF0008093E8008091E80080FFFCCF809137035C
:101C0000BECF803899F0823809F0C5C18091610358
:101C10008F70873008F0BFC18093E9008091EB009E
:101C200085FB882780F91092E90006C0809159034E
:101C300090915A03911182609091E800977F909360
:101C4000E8008093F1001092F1008091E8008E7717
:101C50009EC1882309F48CC1823009F09CC1809117
:101C60005F0381118FC1809161038F702FEF280F67
:101C7000263008F090C18093E9002091EB0020FF0E
:101C800081C1933031F48091EB0080628093EB004E
:101C900079C19091EB0090619093EB0021E030E0EE
:101CA00001C0220F8A95EAF72093EA001092EA0019
:101CB0008091EB008860EACF81116DC110915F03C4
:101CC0001F778091E3008078812B8093E3008091DF
:101CD000E800877F8093E8000E9438038091E80045
:101CE00080FFFCCF8091E30080688093E30082E076
:101CF000111183E080935B034EC18058823008F05D
:101D00004AC180915F03909160038C3D23E092076C
:101D1000A1F583E08A838AE289834FB7F894DE01D4
:101D2000139620E03EE051E2E32FF0E0509357009D
:101D3000E49120FF03C0E295EF703F5FEF708E2FBC
:101D400090E0EA30C0F0C7968D939D932F5F2431C9
:101D500059F74FBF8091E800877F8093E8006AE2DF
:101D600070E0CE0101960E94EA038091E8008B7733
:101D70008093E80010C1C096E7CF40916103509175
:101D80006203292F33272330310509F445C078F544
:101D90002130310509F47BC08BE390E0E4ECF4E002
:101DA0002230310509F0F7C02091E800277F209309
:101DB000E80020916303309164038217930708F4CD
:101DC0009C0140E02115310509F070C041116EC041
:101DD0008091E80082FDC9CF80915B03882329F2BE
:101DE000853019F28091E80083FFF2CFBECF213217
:101DF000310509F440C02232310509F0CCC041154B
:101E0000510509F44EC04130510509F0C4C081E7C5
:101E100090E0E3E1F4E0C8CF992781309105D9F053
:101E2000009771F082309105F1F0039709F0B3C08B
:101E3000E1E1F5E0E4918E2F90E0E1E1F5E007C00B
:101E4000E9E3F5E0E4918E2F90E0E9E3F5E0009717
:101E500009F4A1C0A9CFEFE2F5E0E4918E2F90E064
:101E6000EFE2F5E0F4CFE7E1F5E0E4918E2F90E0CA
:101E7000E7E1F5E0ECCF4115510571F04130510536
:101E800009F089C089E090E0EFEEF4E08DCF82E1C7
:101E900090E0EFEFF4E088CF89E090E0E6EDF4E049
:101EA00083CF80E490E0E4E8F4E07ECF80915B03B0
:101EB000882309F45ACF853009F457CF8091E80080
:101EC00083FD53CF8091E80082FD82CF8091E800AE
:101ED00080FF78CF9091F3008091F20021153105B9
:101EE00019F08830910550F041E0089709F040E082
:101EF0008091E8008E778093E80064CF449140930E
:101F0000F1003196215031090196E8CF803809F06F
:101F100042C08091E800877F8093E80080915C0355
:101F20008093F10092CE811136C010915F03123080
:101F300090F58091E800877F8093E80010935C0320
:101F40000E943803112311F084E005C08091E30062
:101F500087FDFACF81E080935B0342E061EC81E092
:101F60000E94570342E261EC82E00E94570313C0D3
:101F700080915F03813079F481E0933009F080E053
:101F800080935A031092E9008091E800877F809344
:101F9000E8000E9438038091E80083FF0AC0809126
:101FA000E800877F8093E8008091EB008062809357
:101FB000EB00AA960FB6F894DEBF0FBECDBFDF913F
:101FC000CF911F910895CF93C82F873070F58091DE
:101FD000130190911401892B89F564E670E080E487
:101FE0000E9436259093140180931301892BD1F41C
:101FF00064E670E082E10E94922590931401809340
:102000001301892B79F481E090E001C0880FCA9513
:10201000EAF764E670E080950E949225909314019F
:1020200080931301CF910C94E5258A30B9F040F4E8
:10203000883071F0893079F0209A2898CF910895EE
:102040008C3091F070F08D30B9F73E9A4698F6CF0B
:10205000219A2998F3CF229A2A98F0CF239A2B9885
:10206000EDCF529A5A98EACF539A5B98E7CF80E225
:1020700090E09093140180931301809111028111DB
:102080000EC00E94302581E0809311022FEF83ED76
:1020900090E3215080409040E1F700C0000064E6EA
:1020A00070E080E40E943625909314018093130120
:1020B000892B09F04EC064E670E080E00E94922512
:1020C0009093140180931301892B09F042C064E6B8
:1020D00070E080E00E949225909314018093130198
:1020E000892BB9F564E670E08FE30E949225909306
:1020F000140180931301892B61F50E94E52564E6A4
:1021000070E080E40E9436259093140180931301BF
:10211000892BF9F464E670E08CE00E94922590939C
:10212000140180931301892BA1F464E670E080E030
:102130000E9492259093140180931301892B49F4F6
:1021400064E670E08FE30E949225909314018093DF
:1021500013010E94E525809113010895CF93DF9329
:1021600080912D0380FD0BC0E5E1F2E01182108229
:1021700012821382349652E0E135F507B9F7C5E1D2
:10218000D2E0FE01928120813181892F291708F444
:10219000822F381708F4832F8383381B3183281B41
:1021A0002083981B9283349682E0E135F80751F73B
:1021B0000E94302564E670E084E80E94362564E6DB
:1021C00070E088810E94922564E670E089810E9417
:1021D000922564E670E08A810E94922564E670E0B0
:1021E0008B810E949225249692E0C135D90739F758
:1021F0000E94E525579A3BB13F772BB120684FB736
:10220000F89485E192E0FC015191CF0168E02BB98F
:10221000000000C057FF3BB9550F000000C000C0D0
:1022200000C03BB900C06A9591F7F2E081359F0785
:1022300051F74FBF8FE391E00197F1F700C0000025
:10224000DF91CF910895EF92FF920F931F93CF9359
:10225000DF938C01C5E1D2E0F12CE12CF8019481EF
:1022600060912F0380912E03F7E0EF16F104FCF448
:102270009923F9F09E01409130030E9466062FEFEA
:10228000E21AF20A24968FE0E816F10439F70E9468
:10229000AE10F801848190E00196817099278483C3
:1022A000DF91CF911F910F91FF90EF9008959923A7
:1022B00009F39E0140E0E1CFEF92FF921F93CF938D
:1022C000DF93EC0185E1E82E82E0F82E10E08C81AE
:1022D00097014091300360912F03810F0E946606A1
:1022E0001F5E84E0E80EF11C1F3F89F70E94AE10CC
:1022F0009A818C8190FF08C08F5F8C83DF91CF9192
:102300001F91FF90EF9008958150F7CFBF92CF9229
:10231000DF92EF92FF920F931F93CF93DF93FC0115
:102320008281DD24DA9480FD02C0DD24D39405E1AE
:1023300012E0D0E0C0E02FE0B22EF801118210824E
:102340001282138294E0E92EF12CC12C80911202AA
:102350008C0D80310CF43DC06B2D0E94E925892F36
:10236000082E000C990B8C179D0791F48091300377
:102370008E9DA0018F9D500D112455954795559523
:102380004795980160912F0380912E030E94660665
:10239000CD0CF1E0EF1AF108C9F621960C5F1F4F42
:1023A000CF30D10551F60E94AE108091120291E01B
:1023B000D91215C0811111C08EE080931202DF91F5
:1023C000CF911F910F91FF90EF90DF90CF90BF9032
:1023D000089587FFC5CF815FC3CF8150EECF90E0D6
:1023E0000196BE010E940B26E8CF0F931F93CF9357
:1023F000DF93C5E1D2E0FE011182108212821382C6
:10240000349682E0E135F807B9F710E000E08091FA
:102410001302082E000C990B081719078CF18091F4
:102420001201082E000C990B801791074CF19E01A8
:102430004091300360912F0380912E030E94660625
:102440000F5F1F4F24960F30110509F70E94AE1041
:102450008091110190911302980F90931302209193
:102460001201280F20931201121614F49E301CF052
:10247000819580931101DF91CF911F910F91089564
:10248000198218821A821B82DBCFEF92FF920F9380
:102490001F93CF93DF93EC018C819D810196817016
:1024A00099279D838C8385E1E82E82E0F82E10E049
:1024B00005E5812F86952C813D81820F932F911DFB
:1024C000817097014091300360912F03809F802D90
:1024D00011240E9466061F5F84E0E80EF11C1F3085
:1024E00041F7DF91CF911F910F91FF90EF900C94E6
:1024F000AE1090912D0390FF0DC0E5E1F2E08183D5
:10250000608342831382349692E0E135F907B9F78C
:102510000C94AE1008950F931F93CF93DF9300D0C8
:1025200000D0CDB7DEB78C018091140281110AC0B2
:102530009E012F5F3F4F4FEF6FEF0E9466068A812B
:1025400080931402F8016481613069F08091140273
:1025500040E0662361F040E0623011F440911402E3
:1025600080E060E004C06091140240E080E00E94DE
:102570007912F801848190E0019663E070E00E9496
:102580000B2684830F900F900F900F90DF91CF91C7
:102590001F910F910895CF93DF9300D000D0CDB756
:1025A000DEB790912D0390FF0AC09E012F5F3F4F31
:1025B0000E9466064B8169818A810E9479120F9080
:1025C0000F900F900F90DF91CF910895CF93DF93ED
:1025D000EC01EC81F0E0EF54FE4F4491EDE2F3E0CA
:1025E000628181810E94CB128C818F5F8C83DF910D
:1025F000CF910895CF93DF93EC01EDE2F3E04381B7
:1026000062818C810E94CB128C818F5F8C83DF91E1
:10261000CF9108955F926F927F928F929F92AF9227
:10262000BF92CF92DF92EF92FF920F931F93CF93BF
:10263000DF9300D000D0CDB7DEB7182F762E042F51
:10264000622E90912D0390FF29C0E92FE695AE2FC1
:10265000B0E0A05EBE4F8C91809332039E7F92309B
:1026600089F59E012F5F3F4F812F0E9466064B81A7
:1026700069818A810E94791210932E0370922F0330
:1026800000933003662051F060912D0370912E036A
:1026900080912F03909130030E94520C0F900F9065
:1026A0000F900F90DF91CF911F910F91FF90EF90BE
:1026B000DF90CF90BF90AF909F908F907F906F9062
:1026C0005F900895823019F400913003D5CF8630A1
:1026D00019F410912E03D0CF8930D9F3893161F6E6
:1026E000E9518E2F8170582EE695F0E0E455FE4FAB
:1026F000A590B490BB2485E1E82E82E0F82ED12C81
:10270000C12C9FE0892E912CC601B4010E94F725AF
:10271000812F511013C0860F9701402F672D0E9403
:102720006606CA0CDB1C84E0E80EF11C81E5E816A5
:1027300082E0F80649F70E94AE109ECF861BECCFD0
:10274000EDE2F3E043812CE0421B08F440E021E09D
:10275000628181810C940A13EDE2F3E043812CE065
:10276000420F08F44FEF21E0628181810C940A133B
:10277000EDE2F3E062812FEF621B08F460E021E0FC
:10278000438181810C940A13EDE2F3E062812FEF23
:10279000620F08F46FEF21E0438181810C940A13EA
:1027A000EDE2F3E0818121E0438162818C500C9461
:1027B0000A13EDE2F3E0818121E043816281845FCD
:1027C0000C940A13EDE2F3E080818E7F80836081B8
:1027D0007181828193810E94520C109233032FEFFA
:1027E00080E792E0215080409040E1F700C0000077
:1027F0000C94AE10CF93873008F040C08091130145
:1028000090911401C0E0892B71F464E670E080E4DB
:102810000E9436259093140180931301892B31F087
:10282000C0E00E94E5258C2FCF91089564E670E00A
:1028300083E10E9492259093140180931301892BC8
:1028400079F764E670E081E40E94362590931401E4
:1028500080931301892B21F784E690E00E94C12523
:1028600097FF05C09093140180931301D9CFC82F0F
:10287000C0951092140110921301D3CFCFB18FB134
:10288000869586958C73C3708C2BC82FC095CBCF43
:102890001F920F920FB60F9211242F933F934F93D5
:1028A0005F936F937F938F939F93AF93BF93CF93D8
:1028B000DF93EF93FF93D091E900DF708091EC00FC
:1028C000C82FC17080FDC0E81092E9008091F0002F
:1028D000877F8093F00078940E941E0D1092E9008B
:1028E0008091F00088608093F000CD2BCF70C09372
:1028F000E900FF91EF91DF91CF91BF91AF919F914F
:102900008F917F916F915F914F913F912F910F9098
:102910000FBE0F901F90189578941F921FB61F92AC
:1029200011248F939F93AF93BF938091E302909173
:10293000E402A091E502B091E6020196A11DB11D4D
:102940008093E3029093E402A093E502B093E60241
:10295000BF91AF919F918F911F901FBE1F901895AF
:102960002FB7F8948091E3029091E402A091E502E0
:10297000B091E6022FBF08950F931F93CF93DF937B
:10298000C62FD42F022FFC0182818823A1F06093EF
:1029900067020E94B0149093520280935102C77054
:1029A00081E001C0880FCA95EAF7DF91CF911F91AE
:1029B0000F910C94A20510916702161335C08091F7
:1029C0005102909152020E944D04883C910560F59D
:1029D000C0E2CD0F1D17B9F080E2810F883040F4BE
:1029E000177081E001C0880F1A95EAF70E949705D9
:1029F000C83048F481E09D2F977001C0880F9A95E8
:102A0000EAF70E94A205802F0E94B10BC83098F40B
:102A1000D77081E001C0880FDA95EAF7DF91CF9196
:102A20001F910F910C949705C77081E001C0880F2A
:102A3000CA95EAF7F3CFDF91CF911F910F910895D7
:102A400060912D03669570E04BE050E086E091E0E8
:102A50000E94A427892B19F481E0809333030E94FC
:102A6000B0149093280380932703089590912D0329
:102A700090FF36C09170811129C0926090932D0310
:102A8000662351F060912D0370912E0380912F03E6
:102A9000909130030E94520C60912D03669570E076
:102AA0004BE050E086E091E00E94A427892BA9F03A
:102AB0001092330381E080932A0320E04091300399
:102AC00060912F0380912E030C940A13853210F02D
:102AD0009864D4CF880F982BD1CF0E942015EACFCD
:102AE0000895EDE2F3E080818160808360E0869567
:102AF0000C9436151F920F920FB60F9211242F933C
:102B00003F934F935F936F937F938F939F93AF9375
:102B1000BF93EF93FF938091E10082FF09C0809102
:102B2000E20082FF05C08091E1008B7F8093E1008D
:102B30008091DA0080FF24C08091D80080FF20C0FF
:102B40008091DA008E7F8093DA008091D90080FF37
:102B5000A8C080E189BD82E189BD09B400FEFDCF36
:102B600081E080935B0380913403811109C00E944E
:102B7000BE020E9489038091E20084608093E2009B
:102B80008091E10080FF17C08091E20080FF13C0B8
:102B90008091E2008E7F8093E2008091E20080616C
:102BA0008093E2008091D80080628093D80019BCA5
:102BB00085E080935B038091E10084FF36C08091C3
:102BC000E20084FF32C080E189BD82E189BD89B520
:102BD000982F917080FFFBCF8091D8008F7D8093DC
:102BE000D8008091E1008F7E8093E1008091E20027
:102BF0008F7E8093E2008091E20081608093E2000A
:102C000080915C03882309F452C084E080935B03C5
:102C10000E94090D0E94F005109236038091350341
:102C200081110E9471150E9420158091E10083FF9F
:102C300027C08091E20083FF23C08091E100877F5D
:102C40008093E10082E080935B0310925C038091AB
:102C5000E1008E7F8093E1008091E2008E7F80937F
:102C6000E2008091E20080618093E20042E060E057
:102C700080E00E9457038091F00088608093F0000C
:102C8000FF91EF91BF91AF919F918F917F916F9144
:102C90005F914F913F912F910F900FBE0F901F901A
:102CA000189519BC10925B031092340369CF809180
:102CB000E30087FD93E090935B03AACF61E00C945F
:102CC000361580912D038695815009F484E261E0E8
:102CD0000C94361580912D0386958F5F853208F010
:102CE00081E061E00C94361590912D0390FF07C0B0
:102CF0009695981720F0961710F40C946A160C9479
:102D00005E16CF92DF92EF92FF92CF93DF936B012B
:102D10007C01C701AA27BB27C0E10097A105B10527
:102D200019F4D701CB01C0E0492F5A2F6B2F772719
:102D3000411551056105710519F0C85FDB01CA0134
:102D4000AC01BD01E4E07695679557954795EA9506
:102D5000D1F7411551056105710519F0CC5FDB0113
:102D6000CA01AC01BD0132E076956795579547954C
:102D70003A95D1F7411551056105710519F0CE5FFE
:102D8000DB01CA01B695A79597958795892B8A2B64
:102D90008B2B09F0CF5F0E94DB090E94D8090E94AB
:102DA000D5090E94D209D0916502EFEFEC0FE73010
:102DB00008F046C0F0E0E553F84D0C941F260E9441
:102DC000E409D11151C00E94711560E081E00E94B8
:102DD000361520E04BEE6EED86EE44C00E94E4090D
:102DE0000E94E109D11140C088E090E00E9439269C
:102DF00060932D0370932E0380932F0390933003E1
:102E000060FF3BC0862F816080932D0386950E94D2
:102E10005E1680912D0386950E945E1621E04091FA
:102E2000300360912F0380912E031CC00E94E4099F
:102E30000E94DE09D7CF0E94E4090E94E109F8CF81
:102E4000CC2321F0C13009F4BCCFCCCFD1110CC0C0
:102E50000E94711560E081E00E94361520E040ED8F
:102E60006AEE8EE60E940A13C701B601DF91CF9188
:102E7000FF90EF90DF90CF9008950E94E213F4CF7F
:102E80000E948116609302037093030380930403EE
:102E9000909305030C94D8050F931F9341E050E0E5
:102EA00060E070E004C0440F551F661F771F8A95CD
:102EB000D2F7CB01BA0160957095809590950091FD
:102EC0000203109103032091040330910503602352
:102ED0007123822393231F910F910C94401790919B
:102EE000DA02809589238093DA02282F277071F403
:102EF000282F082E000C330B9217130639F08595F6
:102F0000859585950E944C171092DA0208950F93CB
:102F10001F9341E050E060E070E004C0440F551F93
:102F2000661F771F8A95D2F7809102039091030361
:102F3000A0910403B09105038A019B01082B192B72
:102F40002A2B3B2BC901B8011F910F910C944017FC
:102F50004F925F926F927F928F929F92AF92BF92A9
:102F6000CF92DF92EF92FF920F931F93CF93DF9355
:102F700000D000D00F92CDB7DEB76C01FC01838189
:102F80009481892B39F01081F180812F8F218F3F1F
:102F900009F0D9C60F900F900F900F900F90DF910E
:102FA000CF911F910F91FF90EF90DF90CF90BF9046
:102FB000AF909F908F907F906F905F904F9008950B
:102FC0000E946209082F682F89819A810E944A0510
:102FD000E12FF0E026E0F29EE00DF11D112434E532
:102FE000039FE00DF11D1124EE0FFF1FEF54FD4F65
:102FF00005911491F60182810930FDE51F0709F062
:10300000F4C08823C9F18091ED0291E0980F977088
:10301000887F953008F4892B8093ED028091ED0232
:1030200087702FEF829FC001112495958795959504
:1030300087959927909389008093880090938B00BF
:1030400080938A0090938D0080938C004091ED02D4
:103050005091EE026091EF027091F0028FE090E0EB
:103060000E9457266091020370910303809104032C
:10307000909105030E948116F60182818111CDC0D5
:1030800017FF1AC1F6018281882309F44DC080918F
:10309000DD02809366021092DD028091E9028130A8
:1030A00009F4E5C0882309F4DEC0823009F4ECC0DD
:1030B000843009F4F0C08FE39CE90197F1F700C078
:1030C00000005801E894B7F84CE0E42EF12C95018B
:1030D0000E2C02C0369527950A94E2F72F7087E2EE
:1030E00090E031F0822F90E02A3008F0D9C04D9660
:1030F0000E94B10B94E0E91AF108ECEFEE16EFEF45
:10310000FE0629F78091E902813009F4CFC08823B7
:1031100009F4C8C0823009F4C5C0843009F4CAC0BB
:10312000809166028093DD02F6012281222309F458
:1031300020C3109267020230FCE51F0708F4DDC1CE
:1031400006313CE5130730F0C8018A5F9C450797BC
:1031500008F0D3C10E943E0C909300038093FF02BD
:103160000F308CE5180709F4A9C108F02AC108300E
:10317000ECE51E0709F48CC108F0FDC004302CE515
:10318000120709F479C108F0E5C002308CE5180790
:1031900009F46EC18091FF02826003301C4509F47E
:1031A000FCC06091FF021091000384E090E00E9457
:1031B0004526612F81E290E00E9445260F900F90F6
:1031C0000F900F900F90DF91CF911F910F91FF9073
:1031D000EF90DF90CF90BF90AF909F908F907F90B7
:1031E0006F905F904F900C94090D0A303DE51307E6
:1031F00051F00B309DE5190709F03ECF882309F403
:10320000C9CE81E0A8C1882309F4C4CE80916502AB
:1032100091E0892780936502BDCE033EFCE51F0740
:10322000F1F058F4013E3CE51307A1F0023E8CE5B5
:10323000180709F025CF81E00AC0043E9CE5190774
:1032400081F084E0053EECE51E0709F019CF80937C
:10325000E90202C01092E9020E944C0C11CF82E0F8
:10326000F6CF83E0F4CF82EE0E94AB0A24CF83E056
:103270000E948D0588E10E94AB0A88E10E94FC054E
:1032800083E00E94820517CF82EE0E94AB0A87E599
:103290000E94B10B10CF86EE0E94B10B88E1F8CFEF
:1032A000069726CF82EE0E94FC053ACF8CE20E9460
:1032B000B10B36CF88E2FBCF033FFCE51F07D9F106
:1032C00040F5083D3CE5130791F1093D8CE51807F1
:1032D000F1F1073D9CE5190709F026CF26E241EE02
:1032E00061EEC6010F900F900F900F900F90DF913D
:1032F000CF911F910F91FF90EF90DF90CF90BF90F3
:10330000AF909F908F907F906F905F904F900C94B4
:10331000BC14053FECE51E07B1F088F0063F2CE534
:10332000120709F001CF27E245EE66EEDACF27E279
:1033300045EE65EED6CF26E241EE60EED2CF27E233
:1033400045EE64EECECF26E241EE62EECACF28E231
:1033500041E0EFCF8091FF0280610630ECE51E076F
:10336000E1F08091FF02886007301C45B0F0809149
:10337000FF02806212C00B302CE5120709F496C0E0
:1033800078F409308CE5180709F486C08091FF02B3
:103390008C600A301C4509F004CF8093FF0201CFF6
:1033A0008091FF028B7F0D30ECE51E07B1F3809119
:1033B000FF028D7F0E301C4580F38091FF02877FD6
:1033C000ECCF0A3F2CE5120709F45AC048F5023148
:1033D0008CE5180709F47AC060F40031ECE51E07AB
:1033E00009F470C08091FF028F7B01311C45A9F266
:1033F000D8CE04312CE5120709F476C008F46CC06D
:1034000005311C4509F0CDCE8091FF0282FB992742
:1034100090F921E0922790FB82F990FB83F9BDCFD0
:103420000D3F9CE5190709F445C070F40B3FFCE51E
:103430001F0751F1809100038E7F0C3F1C4509F05E
:10344000B0CE80930003ADCE0F3F3CE5130709F4E7
:1034500047C040F101151D4509F0A3CE809100033E
:10346000982F909591708E7F892B90FB81F9E9CFF1
:103470008091FF02816091CF8091FF0284608DCFA7
:10348000809100038160DDCF809100038260D9CFFD
:103490008091FF02806481CF0E94090D8091FF021C
:1034A00080687BCF809100038360CBCF8091FF0247
:1034B0008E7F73CF809100038D7FC3CF8091FF02F9
:1034C0008F7E6BCF8091FF028F7D67CF0E94090DA9
:1034D0008091FF028F7761CF8091FF02837F5DCF64
:1034E000809100038C7FADCF0E94090D9091FF0267
:1034F000892F97FB87F9805850CF9091DD02892F53
:103500008272F801E25CFC45E431F10508F0AEC0DE
:10351000EE52F84D0C941F2680912D0380FF17C0AA
:103520000F900F900F900F900F90DF91CF911F9100
:103530000F91FF90EF90DF90CF90BF90AF909F9052
:103540008F907F906F905F904F900C94E21381600A
:1035500080932D0386950F900F900F900F900F90F2
:10356000DF91CF911F910F91FF90EF90DF90CF905F
:10357000BF90AF909F908F907F906F905F904F9093
:103580000C945E1641E656E16AE676E10F900F90E4
:103590000F900F900F90DF91CF911F910F91FF909F
:1035A000EF90DF90CF90BF90AF909F908F907F90E3
:1035B0006F905F904F900C9452064AE656E161E698
:1035C00076E1E4CF40ED53E169ED73E1DFCF49ED02
:1035D00053E160ED73E1DACF48EB53E164EC73E162
:1035E000D5CF44EC53E168EB73E1D0CF40EA53E12F
:1035F0006CEA73E1CBCF4CEA53E160EA73E1C6CFEA
:1036000045E75CE064E67CE0C1CF44E65CE065E76A
:103610007CE0BCCF65E082E00F900F900F900F90A0
:103620000F90DF91CF911F910F91FF90EF90DF905E
:10363000CF90BF90AF909F908F907F906F905F9052
:103640004F900C94741668E086E0E6CF6EE089E057
:10365000E3CF64E18FE0E0CF67E185E1DDCF88E192
:103660007ACF62E289E1D8CF83E275CF0115ECE52C
:103670001E0759F10E3DFCE51F0709F463C0063132
:103680001C4509F07AC09A7A81E009F480E08093C1
:10369000680289E2911185E30E94ED040F900F907A
:1036A0000F900F900F90DF91CF911F910F91FF908E
:1036B000EF90DF90CF90BF90AF909F908F907F90D2
:1036C0006F905F904F900C947D040E94090D2FEF36
:1036D00034E38CE0215030408040E1F700C000002E
:1036E000F89481E08093E00080E28093D80010920B
:1036F000C900EFE1FEE43197F1F700C000001DBA08
:10370000109268001CBC10BE1FBA10927A00109272
:103710006E0010926F001092710010927200109261
:10372000C9001092BC0014B817B81AB81DB810BA66
:103730001092BC0015B818B81BB81EB811BA0C947A
:10374000003F28CC0F900F900F900F900F90DF91BB
:10375000CF911F910F91FF90EF90DF90CF90BF908E
:10376000AF909F908F907F906F905F904F900C9450
:10377000950C06311C4509F43FC0F601008111810A
:10378000222309F443C0C8010E946209F82E682F61
:10379000C8010E944A05B8018F2D0E9440078C0184
:1037A000B82EF601E580E2943FE0E322F280F110CA
:1037B0001092DC028091DA02877079F0FF2069F0C4
:1037C00080E2800F883048F082E00E946F1780917D
:1037D000DA028770AA24A3948111A12C912E9294CD
:1037E0002FE09222FBE0F91508F44AC0E92DF0E041
:1037F000EA51F84D0C941F2680916802811104C093
:1038000089E20E94C2044ACF85E3FBCFC8010E942F
:103810002105F82EC0CF212F2F70E22E107F19F036
:10382000E29490EFE922FF20C9F0EE2069F080E2F7
:10383000800F883010F0B1100BC08091DD02E82AB3
:10384000E092DD020E947D04802F0E94AB0A18C026
:103850008091DC02E82AE092DC02F4CF802F0E9403
:10386000FC05EE2069F0E094005E083010F0B11025
:103870003CC08091DD02E822E092DD020E947D04DE
:10388000292D2850330B2430310510F40E94F00507
:10389000AA2009F47FCB8091DA0280FD7BCBF60170
:1038A00012828595859585950E948717C6010E948D
:1038B000A8178091DA028595859585950F900F90D0
:1038C0000F900F900F90DF91CF911F910F91FF906C
:1038D000EF90DF90CF90BF90AF909F908F907F90B0
:1038E0006F905F904F900C944C178091DC02E8220F
:1038F000E092DC02C3CF312F3F70832E107F103255
:1039000019F0829480EF8822802FBB2041F091E053
:10391000B91631F1FF2079F1EE2041F195CFFF206A
:1039200091F09091DE02892F8829E11003C00E9456
:10393000A205A6CFE1E0EE12FACF981709F4A0CFC6
:103940008093DE029DCFE11006C00E947704882D8F
:103950000E94970595CFF1E0EF1609F491CFF5CFCE
:10396000FF2031F021E02E1508F48ACF882DDFCF1B
:10397000E11086CFECCFEE2051F3893349F43FEFCD
:1039800087EE93E0315080409040E1F700C00000A6
:10399000802F0E94FC0574CF812F869586958370B9
:1039A00061F0813009F06CCFC8019370F11002C052
:1039B00090E080E00E94AC0563CFC8019370F110E5
:1039C00002C090E080E00E94C2055ACF812F837030
:1039D00009F066C0F11054CF802F829586958770CC
:1039E000880F880F602F6F70462E512C712C612C20
:1039F000082E04C0440C551C661C771C0A94D2F790
:103A000040E050E0BA0104FF0FC04FE050E060E03A
:103A100070E004C0440F551F661F771F8A95D2F7C8
:103A20004095509560957095812F86958695837009
:103A3000823019F1D8F40091DF021091E002209158
:103A4000E1023091E202813069F04429552966296A
:103A50007729CB01BA0160237123822393230E942B
:103A6000E6050ECF402A512A622A732ACB01BA01F9
:103A70006429752986299729F2CF44295529662971
:103A800077290091DF021091E0022091E10230914C
:103A9000E202CB01BA016027712782279327DFCF8B
:103AA0008695FF2011F0812F8170882309F4E8CEDC
:103AB000802F829586958770880F880F602F6F7092
:103AC000462E512C712C612C082E04C0440C551C20
:103AD000661C771C0A94D2F740E050E0BA0104FF5C
:103AE0000FC04FE050E060E070E004C0440F551F8D
:103AF000661F771F8A95D2F740955095609570950F
:103B0000812F869586958370823019F1D8F40091C3
:103B100002031091030320910403309105038130C7
:103B200069F04429552966297729CB01BA01602318
:103B30007123822393230E944017A2CE402A512A48
:103B4000622A732ACB01BA0164297529862997292B
:103B5000F2CF442955296629772900910203109153
:103B600003032091040330910503CB01BA016027C0
:103B7000712782279327DFCF1F70FF2029F0812F25
:103B80000E948717802FD3CE802F0E949705812F08
:103B90000E944C1775CE802FE2EFBE1609F44EC07E
:103BA000EB1578F0F0EFBF1619F121EFB21609F41A
:103BB0003DC0FF2009F465C0E11046CE812F8F7112
:103BC0003AC033EFB31609F43EC094EFB912F1CF07
:103BD000FF2009F44BC01F71812F0E948717F8E066
:103BE0001F9FC001112483608093DA02812F23C0BC
:103BF000FF20B9F0E11044CE1F7161E070E080E079
:103C000090E004C0660F771F881F991F1A95D2F79E
:103C100000910203109103032091040330910503E6
:103C2000A6CFE1E0EE1508F42BCEE6CF812F8F7101
:103C3000FF2009F4ADCF0E94871722CE812F8F710C
:103C4000FF20C9F3A5CF60E070E0CB01FF2009F4AD
:103C500072CF1F7161E070E080E090E004C0660FF9
:103C6000771F881F991F1A95D2F765CF81E00E94B0
:103C70006F1721E02E1508F003CE82E00E946F1727
:103C8000FFCDE1107ACE812F8F7182CFE2EFBE1689
:103C9000D1F1EB1500F1F0EFBF1649F121EFB216AB
:103CA000D1F180916902EE2009F441C0882341F0EE
:103CB00080916A0291E0892780936A0210926902DA
:103CC000802FF110C2CD0E94FC0586E0F601119212
:103CD0008A95E9F7D5CD34EFB316C1F0B31688F065
:103CE00085EFB812DECFF110CBCD81E007C0FF2009
:103CF00009F4C6CD80916A0291E0892780936A0217
:103D0000BFCD81E0F826F0926A02BACDF110B8CDAD
:103D100010926A02B5CDFF2039F0809169028823A4
:103D200049F310926902ACCDEE2021F3A9CD88238E
:103D300009F4A6CDF110A4CD80916A0291E0892703
:103D400080936A02EECF85E0DE01119601900D921C
:103D50008A95E1F7F601228189819A81211130C982
:103D60000E942105082F34C91F93CF93DF938091C0
:103D70007002807FC1F480916D028823A1F0809150
:103D8000A202C091710260916B0270916C0240912D
:103D90006E0250916F02D62FD723DA01A095B0950D
:103DA00016E0C81304C0DF91CF911F91089590E0F1
:103DB0004115510511F0DF3F31F401968770F1CFC5
:103DC0002A0F3B1F17C0189FF001199FF00D1124F7
:103DD000EE58FD4F21812713F0CF20812613EDCF20
:103DE00022812111EACF238134812417350740F342
:103DF000241B350B283C310500F7209170022F70F1
:103E000020612093700226E0289FF001299FF00D89
:103E10001124E958FD4F80818F70806180838BE68B
:103E200092E00E94A817DF91CF911F910C94780522
:103E3000BF92CF92DF92EF92FF920F931F93CF9397
:103E4000DF93CDB7DEB761970FB6F894DEBF0FBE34
:103E5000CDBF8C0185E0F801DE011D9601900D9229
:103E60008A95E1F7D8012C9111963C911197129601
:103E7000EC90129780916E0290916F02009709F476
:103E800063C140916B0250916C02642F65236F3FB8
:103E900009F45AC11396CD90DC90B0906D02BB200E
:103EA00009F413C1C816D906C0F1F601E81BF90BD5
:103EB000CF01FF24F394883C910508F0F12C809108
:103EC0007002982F907FFF2009F4C1C091117DC02E
:103ED000FE2C531327C0421325C0E11023C08F705E
:103EE0008061809370028BE692E00E94A817809117
:103EF0007002D80115968C938F2D61960FB6F894A9
:103F0000DEBF0FBECDBFDF91CF911F910F91FF900C
:103F1000EF90DF90CF90BF900895809590958C0D95
:103F20009D1DC7CFCD2829F0822F83238F3F09F015
:103F300035C180E0B82FB170DB2E80FF3CC080918E
:103F4000A2024091710256E0841315C02D873E876E
:103F50008D859E850E94A409292F22952F702230DD
:103F6000F0F0243018F59F70F1F0F8019581907F02
:103F7000D1F4D12C1EC090E0589FF001599FF00D54
:103F80001124EE58FD4F6181361306C0608126135F
:103F900003C06281E6120FC001968770D5CF9F7073
:103FA00011F0882331F3805E883018F3C8010E9435
:103FB000A817FD2CA1CFEE2009F49ECF80917002AE
:103FC000816080937002F12C97CF531313C042137A
:103FD00011C0E1100FC0D80115968C93C8010E9442
:103FE000A81786E0F801ABE6B2E001900D928A9541
:103FF000E1F782CF2D873E878D859E850E94AE0991
:10400000882309F1EE20F9F080917002803270F07F
:1040100020916B0230916C0238872F831986DB86E2
:10402000CA868C87CE0107960E94A81786E0F80101
:10403000ABE6B2E001900D928A95E1F70E94B41EC2
:10404000FF24F39459CFC8010E94A817F9CF91110A
:104050000CC08BE692E00E94A81786E0EBE6F2E047
:10406000DF011D928A95E9F747CF531312C042131F
:1040700010C0E1100EC0F8018583C8010E94A81786
:10408000EBE6F2E086E0DF011D928A95E9F7FB2C72
:1040900033CF2D873E878D859E850E94AE0988236C
:1040A00091F2EE2081F280917002803208F4BECF4E
:1040B00020916B0230916C023A8329831B82DD824E
:1040C000CC828E83CE010196AFCFC816D90640F0C0
:1040D000C81AD90AB8ECCB16D10448F0F12CBDCFE0
:1040E000809590958C0D9D1D883C9105B8F7FE2C10
:1040F000EE2009F4A8CF531316C0421314C08091C8
:10410000700280FD6ECF982F907F09F46ACFF8017E
:104110008583903F09F462CF982F907F905F8F70D6
:10412000892B85835BCF2D873E878D859E850E9459
:10413000AE0981117BCF8091700281608093700203
:10414000C8010E94A817D8CEEE2009F47CCF2D8795
:104150003E878D859E850E94AE09F82E882309F43E
:1041600072CF86E0F801ABE6B2E001900D928A953D
:10417000E1F780916B0290916C020E94A4099295E4
:104180009F70963041F480916A0291E08927809374
:104190006A02909369020E94B41EAECE81E08E2521
:1041A000C9CE1F93CF93DF93CDB7DEB767970FB616
:1041B000F894DEBF0FBECDBF6D8B7E8B8F8B8E894B
:1041C0009F89892BE1F0852F84238F3F09F098C0C8
:1041D0005FEF4FEF14C030916A02332309F44EC0F1
:1041E000E42FF0E036E0539FE00DF11D1124EE0FB7
:1041F000FF1FEB5BFE4F40815181822B8C931A8A0B
:10420000198A4B8B5C8B85E0FE017396DE011D964F
:1042100001900D928A95E1F786E0FE013D96DE0160
:10422000179601900D928A95E1F7CE0107960E94AC
:10423000181F811112C086E0FE013796DE0111962B
:1042400001900D928A95E1F78A859B85892B29F04B
:104250008F81988589238F3FC9F516E08091A2024E
:1042600090917102891320C067960FB6F894DEBF53
:104270000FBECDBFDF91CF911F910895809582230E
:10428000BDCF96E0929FD001939FB00D1124AE5800
:10429000BD4FFE01319601900D929A95E1F7809302
:1042A00071020E947805D9CF819FC00111248E58D8
:1042B0009D4F0E94181F8823B9F28091A20290E0BE
:1042C0000196877099278093A202C8CF209171022E
:1042D00030E0C9010196877099274091A2024817E2
:1042E000190679F60E94090D109271021092A2022D
:1042F00086E0EBE6F2E0DF011D928A95E9F7ADCFAB
:1043000081E090E0042E01C0880F0A94EAF7A52FFF
:10431000B0E0A95ABD4F2C913D8931115CCF322FAD
:1043200038235BCF8F929F92AF92BF92CF92DF9252
:10433000EF92FF920F931F93CF93DF93809113011E
:1043400090911401892B91F0809110028F5F8093DE
:10435000100281110BC00E94371090E0909314015D
:1043600080931301892B11F40E94C40B01EF12E01A
:104370007801C0E0912C37E0C32ECC0E8C2F0E9428
:10438000E30F8C2D0E94E30F8C2F0E94FA13D701AC
:104390009D917D01D12C891729F0FD0131978083F2
:1043A000DD24D3948C2D0E94FA13F701968189178E
:1043B00009F466C0868381E08D29982A0E94E70966
:1043C000CF5FC730C1F60E94B0146AEF70E00E9460
:1043D000F725882ED0910F02DD2309F45DC01092DD
:1043E0000F02E091E702F091E8027F012EE0E20E79
:1043F000F11C40E0CBEF2AEFC22ED12C51915B3F54
:1044000081F0652F70E0282D392F8517D8F1261BF4
:10441000370B2E313105E4F19F0121503109D901CB
:10442000CC93EE16FF0651F740930F02911002C095
:10443000411134C010920E02A091E702B091E8023F
:1044400020910F02E9E0F3E047E153E090E0619151
:10445000E80139918E01631751F06C916B3FD1F4F3
:104460008C93BF0161507109EB01388321E01196F3
:104470004E175F0761F720930F0290930E0212C050
:1044800080E09ACFD601A61BB70B2A0F3B1FC1CFE6
:104490004D2FC7CF91E0EBCF9110CCCF90910E0272
:1044A0009111C8CF892DDF91CF911F910F91FF906E
:1044B000EF90DF90CF90BF90AF909F908F90089536
:1044C000CDB7DEB72A970FB6F894DEBF0FBECDBFCB
:1044D00084B7877F84BF0FB6F894A8958091600059
:1044E000886180936000109260000FBE80E890E0C9
:1044F0000FB6F89480936100909361000FBE85B76A
:10450000806885BF85B7806885BF0E94BE020E9413
:1045100089038091E20084608093E2007894809126
:104520005B038823A1F01091E9001F709091EC00CB
:10453000892F817090FD80E8182B1092E9008091FE
:10454000E80083FD0E941E0D1F701093E90082E0B9
:1045500084BD93E095BD9AEF97BD80936E000E9455
:10456000371090E090931401809313010E94E709A3
:104570000E94F609A1EFB2E017E1E12E13E0F12E5F
:10458000E9E0F3E011921D92EE16FF06D9F78EE0F6
:1045900090E00E9479268093E7029093E802FC0164
:1045A0000E962BEF2193E817F907E1F790E080E0F2
:1045B0000E943F268F3E9E4F11F00E94950C8CE08A
:1045C00090E00E94312690E0B0E0A0E08093E90204
:1045D0009093EA02A093EB02B093EC0289EA8093F5
:1045E000800089E08093810024982C983F988AB1BC
:1045F0008F7C8AB96E98479A8BB180638BB9769A13
:104600008FE090E00E9439266093ED027093EE02F5
:104610008093EF029093F00267708FEF689FB00174
:10462000112475956795759567957727709389001F
:104630006093880070938B0060938A0070938D0064
:1046400060938C000E94C40B90E080E00E943F26A3
:104650008F3E9E4F11F00E94950C82E090E00E94E8
:104660003126809318030E943E0C909300038093A0
:10467000FF0283E090E00E943126682F70E090E016
:1046800080E00E94E60580910103811136C090E030
:1046900080E00E943F268F3E9E4F21F00E94950CA5
:1046A0000E94860C88E090E00E94392660932D03DA
:1046B00070932E0380932F03909330036E7F71F4D9
:1046C0000E94860C88E090E00E94392660932D03BA
:1046D00070932E0380932F03909330030E9457060C
:1046E0001092330380912D0380FF04C060E0869513
:1046F0000E94361581E0809301036091020370915E
:10470000030380910403909105030E94811685E1C3
:1047100091E09093070380930603F1E0CF2EF4E03D
:10472000DF2E80915B03853009F481C00E949221C5
:10473000E9E1F3E0A9E0B3E010E000E0302F8D9173
:104740002191281709F4DFC090E0BB24B3942827F7
:10475000422F4B2109F4D2C099833A838B2191E0F7
:1047600009F490E09B830E94B0148160782F9D83B0
:104770008C8349815A816B818D810E94D120F801FF
:10478000E75EFC4F8081B826B0820E94F0059091D0
:104790001703891721F00E94F00580931703809179
:1047A0003303882309F4BDCF80913203E0912D03B8
:1047B000E695E81BE0932903823009F0BBC0F0E0E6
:1047C000E15FFB4FE4910E2F10E0E6EEAE2EE2E14A
:1047D000BE2E80912A03882389F010922A030E941A
:1047E000B014980120953095820F931F9093280361
:1047F0008093270310922C0310922B0380912703A0
:10480000909128030E944D048017910708F489CFE6
:10481000E0912703F09128030E0F1F1F1093280328
:104820000093270387E293E0F50109957ACF809101
:104830005B03843009F441C01092080388E190E0E2
:1048400020E40FB6F894A895809360000FBE2093E3
:1048500060001092330380913603811117C081E00C
:104860008093360380912D03982F91709093350398
:104870008E7F80932D032FEF80E792E021508040C0
:104880009040E1F700C000000E94AE1083B7817F26
:10489000846083BF83B7816083BF7894889583B732
:1048A0008E7F83BF0FB6F894A895809160008861D1
:1048B00080936000109260000FBE80915A0388239D
:1048C00009F42FCF0E94371090E090931401809349
:1048D00013010E94E7090E94F609E9E0F3E0119252
:1048E000EE16FF06E1F70E949221E9E0F3E08191E4
:1048F000811179C0EE16FF06D1F713CF9F5FBB0C75
:10490000963009F025CF0F5F1F4F0E30110509F0CB
:1049100015CF8FEF8E838F8318860E94B01481602D
:10492000782F9A8789874E815F8168858A850E9462
:10493000D1202BCF863059F4F0E0E45FFB4FE491B7
:104940000E2F10E07AEFA72E72E1B72E42CF8930FA
:1049500061F4E695F0E0E75FFB4FE4910E2F10E085
:104960006CE5A62E61E1B62E34CF8F3061F4E6956A
:10497000F0E0EA5FFB4FE4910E2F10E056E8A52E21
:1049800051E1B52E26CF853159F4F0E0ED5FFB4FB4
:10499000E4910E2F10E045EFA42E41E1B42E19CF83
:1049A00008EE13E095E4A92E92E1B92E883109F4BE
:1049B00010CF833241F4F601059114913BE8A32E08
:1049C00032E1B32E06CF04EF11E023E2A22E21E163
:1049D000B22E843209F4FDCE00ED17E088E4A82E53
:1049E00084E0B82EF6CE80E189BD82E189BD09B4AC
:1049F00000FEFDCF8091D8008F7D8093D8008091FC
:104A0000E00082608093E0008091E00081FDFCCFB7
:104A100088CE1F921FB61F9211248F939F93AF933E
:104A2000BF9380910803811113C08091E30290919C
:104A3000E402A091E502B091E6024196A11DB11DEC
:104A40008093E3029093E402A093E502B093E60220
:104A5000BF91AF919F918F911F901FBE1F9018958E
:104A60001092B9008CE08093B8000895EF92FF9205
:104A70000F931F93CF93DF93182FEB011092BC007D
:104A800084EA8093BC000E94B0147C018091BC0039
:104A900087FF27C08091B900887F883029F08091F6
:104AA000B900887F8031D9F51093BB0084E88093EA
:104AB000BC000E94B0148C018091BC0087FF24C010
:104AC0002091B900287F90E080E02831B1F081E0AA
:104AD00090E0203411F490E080E091958195910967
:104AE0000CC0CF3FDC0791F20E94B0148E199F09D1
:104AF0008C179D0758F28EEF9FEFDF91CF911F919A
:104B00000F91FF90EF900895CF3FDC07A9F20E942C
:104B1000B014801B910B8C179D0770F2ECCF8FEFB8
:104B20009FEFEBCF0F931F93CF93DF93EB01809316
:104B3000BB0084E88093BC000E94B0148C0180917B
:104B4000BC0087FF11C02091B900287F81E090E070
:104B5000283211F490E080E0919581959109DF91E0
:104B6000CF911F910F910895CF3FDC0741F30E9431
:104B7000B014801B910B8C179D0708F38EEF9FEFED
:104B8000EECF0F931F93CF93DF93EC0184E88093D4
:104B9000BC000E94B0148C018091BC0087FF08C04B
:104BA0008091BB0090E0DF91CF911F910F9108950C
:104BB000CF3FDC0789F30E94B014801B910B8C1748
:104BC0009D0750F38EEF9FEFEECF84E98093BC00FA
:104BD000089587FB082E062687FD819567FD619560
:104BE0000E9425260EF4919507FC81950895AA1B35
:104BF000BB1B51E107C0AA1FBB1FA617B70710F0C8
:104C0000A61BB70B881F991F5A95A9F780959095F9
:104C1000BC01CD01089597FB072E16F4009407D030
:104C200077FD09D00E94F72507FC05D03EF490954A
:104C300081959F4F0895709561957F4F0895EE0F70
:104C4000FF1F0590F491E02D0994991B79E004C0B1
:104C5000991F961708F0961B881F7A95C9F78095BB
:104C60000895F999FECF92BD81BDF89A992780B534
:104C70000895A6E1B0E044E050E00C946B26A8E172
:104C8000B0E042E050E00C946B26262FF999FECF5D
:104C900092BD81BDF89A019700B4021639F01FBA8F
:104CA00020BD0FB6F894FA9AF99A0FBE08950396AC
:104CB000272F0E9446260E944526252F0E94462621
:104CC000242F0C9446260196272F0E9446260C94EA
:104CD0004526DC01CB01FC01F999FECF06C0F2BDEF
:104CE000E1BDF89A319600B40D9241505040B8F7AA
:104CF00008950F931F93CF93DF938230910510F4A3
:104D000082E090E0E0916703F091680330E020E0FA
:104D1000B0E0A0E0309799F42115310509F447C0BF
:104D2000281B390B24303105C0F58A819B81611520
:104D3000710571F1FB0193838283FE0111C04081F3
:104D400051810281138148175907F8F04817590714
:104D500099F4109761F012960C93129713961C9386
:104D60003296CF01DF91CF911F910F91089500935B
:104D7000670310936803F4CF2115310519F042172A
:104D8000530718F49A01BD01EF01DF01F801C2CF0A
:104D90009093680380936703D0CFFE01E20FF31F67
:104DA000819391932250310939832883DACF20915E
:104DB000650330916603232B41F420910201309169
:104DC0000301309366032093650320910001309125
:104DD00001012115310541F42DB73EB74091040181
:104DE00050910501241B350B4091650350916603DA
:104DF0004217530708F0B5CF241B350B2817390786
:104E000008F4AFCFBC016E5F7F4F2617370708F459
:104E1000A8CF640F751F7093660360936503FA0152
:104E2000819391939ECFCF93DF930097E9F0FC019C
:104E3000329713821282C0916703D0916803DE011A
:104E400030E020E02097A1F420813181820F931F70
:104E500020916503309166032817390709F067C070
:104E6000F0936603E0936503DF91CF910895DA0133
:104E7000AE17BF0708F040C012964D915C91139792
:104E80009D014115510599F7D9011396FC93EE93B5
:104E900012974D915D91A40FB51FEA17FB0779F4A6
:104EA000808191810296840F951FD90111969C9360
:104EB0008E938281938113969C938E931297B0E088
:104EC000A0E08A819B810097B9F5FE0181919191C3
:104ED000E80FF91F80916503909166038E179F0775
:104EE00019F6109761F51092680310926703D0933A
:104EF0006603C0936503B8CFB383A2834081518119
:104F0000840F951FA817B90771F44E5F5F4F8D91FD
:104F10009C911197480F591F5183408312968D9190
:104F20009C91938382832115310509F0ADCFF093D5
:104F30006803E093670398CFDE01EC01C2CF1396BC
:104F40001C921E921297D3CFFC014150504030F07A
:104F500001900616D1F73197CF0108958827992738
:104F60000895F894FFCFBD09BD09C609C609C8094F
:104F7000C609C609C609BD09BD09CD09C609C609C4
:104F8000CD09010E290ECB0F290ECB0F5C0E7D0E25
:104F9000CB0F860F930FDF16F0161817EE161617A5
:104FA0001D171B178C1AC21ADD1AE21AE71AEC1A1F
:104FB000F11AF61AFB1A001B051B01190A1B231B09
:104FC000261B291B2C1B2F1B311B341B0B1C0B1CE2
:104FD0007B1C7B1CCC1C401C461E401CE61CBC1DC4
:044FE000CB1DCB1DFD
:104FE40000006903200001191A1B1C1D1E1F20212B
:104FF40022010220004A04670A4904310AFD09011A
:105004000001020202020606060909090909090F3C
:105014000F0F0F0F0F15151518191919191919193B
:105024001919192324000D010D020D030D040D059A
:105034000D000C010C020C030C040C050C000B01FC
:105044000B020B030B040B050B000A010A020A03F3
:105054000A040A050A0009010902090309040905E9
:1050640009000801080208030804080508000701EC
:1050740007020703070407050700060106020603E3
:1050840006040605060005010502050305040505D9
:1050940005000401040204030404040504000301DC
:1050A40003020303030403050300020102020203D3
:1050B40002040205020001010102010301040105C9
:0E50C4000100000100020003000400050000CE
:00000001FF
