:100000000C9417040C94B2150C945E040C945E04CA
:100010000C945E040C945E040C945E040C945E04D8
:100020000C945E040C945E040C94282A0C94FA2A16
:100030000C943F240C945E040C945E040C945E04B7
:100040000C945E040C945E040C945E040C945E04A8
:100050000C945E040C94A7240C945E040C945E042F
:100060000C945E040C945E040C945E040C945E0488
:100070000C945E040C945E040C945E040C945E0478
:100080000C945E040C945E040C945E040C945E0468
:100090000C945E040C945E040C945E040C945E0458
:1000A0000C945E040C945E040C945E04D30FD60F83
:1000B000DB0FE20FE70FEC0FF10FF60FFB0F001055
:1000C00005100A100D100D100D100D100D100D1053
:1000D0000D100D10271A271A591A591AA61A091C99
:1000E000091C091CC61A631B741B741BD51BDE1B61
:1000F000091C021C871C871C991C991C901C991CAC
:10010000991C991C871C871C951C991C991C951C73
:10011000672B8E2B802C8E2B802CDA2BFD2B802CAA
:10012000532C622C29001E001F00200021002200F9
:100130002B0014001A0008001500170035000400F9
:100140001600070009000A00E1001D001B00060060
:100150001900050000000000E000E3000151E2008A
:100160002A00270026002500240023003100130068
:1001700012000C0018001C00280033000F000E00B5
:100180000D000B003400380037003600100011005D
:1001900000000000E000E3002C00E20001003A0053
:1001A0003B003C003D003E00010001000100260232
:1001B000270201000100010001002F0230020100AE
:1001C000C25C010001002F003000010000000000AF
:1001D00001000100010001004C0043004200410009
:1001E00040003F0044000100010052002E002D009D
:1001F000450001004F00510050004B00010001007C
:100200004D0001004A004E00000000000100010006
:100210000100010044454255473A20646973616218
:100220006C65642E0A0044454255473A20656E616C
:10023000626C65642E0A000A0025303862003A209C
:100240000025303258000A722F63203031323334A7
:100250003536370A007267626C69676874207365A7
:100260007420687376205B4E4F454550524F4D5D6C
:100270003A2025752C25752C25750A007267626C4D
:10028000696768742073657420687376205B4545E0
:1002900050524F4D5D3A2025752C25752C25750A39
:1002A000007267626C696768742064697361626C6C
:1002B00065205B4E4F454550524F4D5D3A20726769
:1002C000626C696768745F636F6E6669672E656EDE
:1002D00061626C65203D2025750A007267626C6959
:1002E0006768742064697361626C65205B45455082
:1002F000524F4D5D3A207267626C696768745F6344
:100300006F6E6669672E656E61626C65203D2025A3
:10031000750A007267626C6967687420656E616255
:100320006C65205B454550524F4D5D3A20726762C7
:100330006C696768745F636F6E6669672E656E616E
:10034000626C65203D2025750A007267626C6967E2
:10035000687420746F67676C65205B454550524F29
:100360004D5D3A207267626C696768745F636F6E97
:100370006669672E656E61626C65203D2025750A91
:10038000007267626C69676874206D6F6465205BDA
:100390004E4F454550524F4D5D3A2025750A00722B
:1003A00067626C69676874206D6F6465205B4545A2
:1003B00050524F4D5D3A2025750A007267626C6994
:1003C0006768745F696E6974207267626C696768D8
:1003D000745F636F6E6669672E6D6F6465203D2084
:1003E000302E2057726974652064656661756C747F
:1003F0002076616C75657320746F20454550524FAF
:100400004D2E0A007267626C696768745F696E6975
:1004100074206565636F6E666967206973206E6F0F
:100420007420656E61626C65642E0A007267626C8E
:10043000696768745F696E6974207374617274218E
:100440000A007267626C696768745F696E6974201C
:1004500063616C6C65642E0A007267626C69676820
:10046000745F636F6E6669672E7370656564203DA7
:100470002025640A007267626C696768745F636F45
:100480006E6669672E76616C203D2025640A0072D5
:1004900067626C696768745F636F6E6669672E7305
:1004A0006174203D2025640A007267626C69676888
:1004B000745F636F6E6669672E687565203D2025E1
:1004C000640A007267686C696768745F636F6E6660
:1004D00069672E6D6F6465203D2025640A00726790
:1004E000626C696768745F636F6E6669672E656EBC
:1004F00061626C65203D2025640A007267626C6948
:100500006768745F636F6E66696720454550524F38
:100510004D3A0A006261636B6C696768742073749A
:1005200065703A2025750A006261636B6C696768C3
:10053000742064697361626C650A006261636B6C4C
:100540006967687420656E61626C650A0062616348
:100550006B6C6967687420746F67676C653A2025F7
:10056000750A006261636B6C696768742064656317
:1005700072656173653A2025750A006261636B6C70
:100580006967687420696E6372656173653A2025D6
:10059000750A0000010101010101010101020202CD
:1005A000020202020202030303030303030304041F
:1005B00004040404040505050505060606060607E9
:1005C0000707070708080808090909090A0A0A0BA2
:1005D0000B0B0C0C0C0D0D0D0E0E0E0F0F0F101043
:1005E00011111112121313141415151616171718CA
:1005F0001819191A1A1B1B1C1D1D1E1E1F20202135
:100600002222232424252626272829292A2B2C2D7B
:100610002D2E2F30313232333435363738393A3B9C
:100620003C3D3E3F404142434445464748494A4C91
:100630004D4E4F50515354555658595A5B5D5E5F5D
:10064000616264656668696B6C6D6F7072737577F3
:10065000787A7B7D7E8082838587888A8C8E8F9155
:10066000939596989A9C9EA0A2A3A5A7A9ABADAF7F
:10067000B1B3B5B7BABCBEC0C2C4C6C9CBCDCFD169
:10068000D4D6D8DBDDDFE2E4E7E9EBEEF0F3F5F812
:10069000FAFDFF0A002530325820006B6579626F41
:1006A0006172645F7265706F72743A20000A00258F
:1006B000303258006B6579626F6172645F73657484
:1006C0005F6C65643A20005B735D004B6579626F17
:1006D0006172642073746172742E0A005B575D004E
:1006E0005B535D005B525D005B445D005B435D00FE
:1006F0000403300000001C0349007200690073000D
:1007000020004B006500790062006F0061007200FC
:10071000640000000E034B00650065006200690084
:100720006F0000000403090409025B00030100A03C
:10073000FA0904000001030101000921110100016F
:100740002240000705810308000A09040100010393
:100750000000000921110100012236000705820373
:1007600020000A090402000203000000092111010F
:10077000000122220007058303200001070503036F
:10078000200001120110010000000810CB561200D9
:1007900004010203010631FF0974A1010975150066
:1007A00026FF009520750881020976150026FF00B6
:1007B000952075089102C005010980A10185031AE1
:1007C00081002A830016010026030095017510811F
:1007D00000C0050C0901A10185041A01002A9C0230
:1007E000160100269C02950175108100C0050109C3
:1007F00006A101050719E029E715002501950875EF
:100800000181029501750881010507190029FF156D
:100810000026FF00950675088100050819012905C5
:10082000950575019102950175039101C000112490
:100830001FBECFEFDAE0DEBFCDBF04B603FE27C098
:1008400080916F0290917002A0917102B09172023A
:100850008730904BA740B04BD1F410926F021092AA
:100860007002109271021092720214BE84B7877FD8
:1008700084BF0FB6F894A89580916000886180933A
:100880006000109260000FBEE0E0F8E3099511E00F
:10089000A0E0B1E0EEEDFAE502C005900D92AA35B8
:1008A000B107D9F722E0AAE5B1E001C01D92AF3649
:1008B000B207E1F70E9448270C946D2D0C940000BC
:1008C000FF93EF93E0915A01F0915B01309709F0AB
:1008D0000995EF91FF910895FC018591803011F009
:1008E000EFDFFBCF0895FF27E0E230E247FF0CC0C7
:1008F000419597FF09C0EDE26095709580959095C0
:10090000611D711D811D911D27FF02C0219530E3DE
:1009100050E2AA27660F771F881F991FAA1FA417E6
:1009200010F0A41B63955A95A9F7AA3008F0A95FA7
:10093000A05DAF93F395611571058105910541F7B0
:10094000ED3211F4EF93F395F21718F43F93F3950A
:10095000FBCF8F91B5DFFA95E1F70895E991F99111
:100960008591803021F0853219F0AADFF9CF089502
:1009700020E0E89455915532C1F3503311F4689456
:1009800055915A3348F4505390F3220F022E220F00
:10099000220F200D250FF4CF0EF421958991999106
:1009A000533619F3533729F1533559F1BC018827D0
:1009B0009927E8945C3621F489919991689455912E
:1009C000543639F446EF7EF077FF0DC08FEF9FEF7E
:1009D0000AC055374AE039F0583540E121F0523627
:1009E00042E009F00895FF93EF937DDFEF91FF91CF
:1009F000B7CFFF93EF93FC0181918030B9F360DFB3
:100A0000FBCFFF93EF9368DFF1CFDF93CF93CDB7A9
:100A1000DEB72596A3DFCF91DF91089581E0089599
:100A200081E008950C9410051F93CF93DF9300D0BD
:100A300000D01F92CDB7DEB749835A83209196012B
:100A400089819A81211112C0662349F00E94AE214A
:100A5000182F682F89819A810E94512103C00E941A
:100A60008121182F69817A81812F04C00E94AE21D3
:100A700069817A810F900F900F900F900F90DF9106
:100A8000CF911F910C940606FC0140815181628137
:100A9000738184810C9414050E94F922811102C093
:100AA0000E94A2230E94D0110E941A120C94D9080D
:100AB0000E947C120C94DC0808950C945C0581E083
:100AC00008950C945F05CF93C82F0E945D058C2F6D
:100AD0000E946105CF91089508950E94771C0E949D
:100AE0006C052FEF84E39CE0215080409040E1F7BB
:100AF00000C000000C94CD240F931F93CF93DF937D
:100B00008C010E944405EC01B8010E941205882363
:100B100009F471C0B801CE010E948D13882309F435
:100B20006AC0B801CE010E94CE13882309F463C0C5
:100B3000B801CE010E94BC0F882309F45CC0F80103
:100B40008281882339F1C1308CE5D80759F0CE3D38
:100B5000ECE5DE07E1F0C115FCE5DF07D9F40E9402
:100B60006D0549C080910C02C82FC095C170C0FBB3
:100B700080F980930C02CC2329F086E292E00E9457
:100B80006C0439C084E192E00E946C0435C00E947C
:100B9000A22331C0C631DC4539F50E942E22282F10
:100BA000F80182814091250150912601882379F036
:100BB0002A7A91E009F490E090935C01911102C0CF
:100BC00069E201C065E3CA010E94DB230AC080918B
:100BD0005C01811102C069E201C065E3CA010E94A3
:100BE000DD230E947A2207C0C801DF91CF911F91B7
:100BF0000F910C940E05C0E08C2FDF91CF911F91C7
:100C00000F91089580E090E00895089596E0799F0F
:100C1000F00111249CE3899FE00DF11D1124E60FE2
:100C2000F11DEE0FFF1FEC5DFE4F8591949108952D
:100C3000880F991FFC01E95CFD4F859194910895FF
:100C4000CF93DF930E9406060E940108EC018115F4
:100C500022E5920708F046C0811531E5930708F0B8
:100C600052C1883E910500F5803E910508F0C5C14E
:100C7000883A910570F4853A910508F0B1C0813049
:100C8000910509F4BAC108F46BC1049708F0B5C125
:100C900067C18F3B910508F4AEC0803C910508F414
:100CA0005FC1805C910906C1811540E4940790F40E
:100CB000C11580E3D80708F001C1C11521E0D207B2
:100CC00008F44EC1C11530E2D30708F496C1CE0135
:100CD0009F70F0C0811540E5940708F0F9C0DF70FF
:100CE000D06A8BC1C11589E5D807B8F5C11528E5CB
:100CF000D20708F021C1C11534E5D307D0F42C2F59
:100D000026952695CE0183709927C115D34508F005
:100D1000FFC040E2249F90011124C1E0D0E002C056
:100D2000CC0FDD1F8A95E2F72C2B3D2BE901DC6807
:100D300064C1C11585E5D80708F4F9C0C11526E5D9
:100D4000D20708F00DC18C2F0E9495088F71C82F13
:100D5000D0E0DC2FCC27D06250C1CD3B3CE5D3079F
:100D600009F4F5C0E0F4CB3B8CE5D80709F4E9C001
:100D700008F0EAC0C1153AE5D30708F0F1C08C2F9E
:100D80008F700E94950894E0D695C7959A95E1F7E3
:100D9000CF70D0E0DC2FCC27D069C82B2EC1C03C4F
:100DA0004CE5D40709F4D9C060F4CE3B2CE5D2075A
:100DB00009F4D0C0CF3BDC4509F0D2C0C0E0D2ED91
:100DC0001CC1CE0190568115904208F0C9C08D2FEC
:100DD0008F710E949508DD27D0628F71D82B0DC1CD
:100DE000853A910509F4BFC0863A910509F0BEC065
:100DF000C2E8D0E402C1883A910509F4BAC0893A40
:100E0000910509F4B9C08A3A910509F4B8C08B3A42
:100E1000910509F4B7C08C3A910509F4B6C08B3B33
:100E2000910509F4B5C08C3B910509F4B4C08D3A25
:100E3000910509F4B3C0803B910509F4B2C08E3A24
:100E4000910509F4B1C08F3A910509F4B0C0813B16
:100E5000910509F4AFC0823B910509F4AEC0833B14
:100E6000910509F4ADC0843B910509F4ACC0853B04
:100E7000910509F4ABC0863B910509F4AAC0873BF4
:100E8000910509F4A9C0883B910509F4A8C0893BE4
:100E9000910509F4A7C08D3B910509F4A6C08E3BCE
:100EA000910509F4A5C08A3B910509F4A4C0C0E0EE
:100EB000D4E4A3C00E941806EC019FC0CE0199277C
:100EC000D3FF03C0EC01D86C98C0EC01D06C95C086
:100ED000837021E030E002C0220F331F8A95E2F7D1
:100EE0003C68CE0174E0969587957A95E1F783701A
:100EF000382BCF70C695C69580E2C89FE0011124BB
:100F0000C22BD32B7AC0D82FCC27C16FD06A75C023
:100F100040E2249F90011124C1E0D0E002C0CC0F38
:100F2000DD1F8A95E2F7C22BD32BDA6866C0DC2F6F
:100F3000CC27C46FD06A61C0DC2FCC27C06FD06AC9
:100F40005CC0C0E0D4ED59C0C0E0D5ED56C0C0E0F3
:100F5000D1ED53C0C0E0D0ED50C0C0E0D3ED4DC0E6
:100F6000C0E0D0E04AC0C1E8D0E447C0C3E8D0E464
:100F700044C0C2EED4E441C0C9EED4E43EC0CAEEDF
:100F8000D4E43BC0C5EBD4E438C0C6EBD4E435C0F0
:100F9000C3EBD4E432C0C4EBD4E42FC0C7EBD4E439
:100FA0002CC0CCECD4E429C0CDECD4E426C0C3E8FA
:100FB000D5E423C0CAE8D5E420C0C2E9D5E41DC009
:100FC000C4E9D5E41AC0C1E2D6E417C0C3E2D6E44E
:100FD00014C0C4E2D6E411C0C5E2D6E40EC0C6E235
:100FE000D6E40BC0C7E2D6E408C0CFE6D4E405C01F
:100FF000C0E7D4E402C0CAE2D6E4CE01DF91CF91CB
:1010000008958238910569F1B0F48133910509F4AE
:101010006DC048F48932910509F463C08A329105A4
:1010200009F469C008958533910509F455C08933E1
:101030009105B9F00895833E910569F138F4803E39
:101040009105B1F0823E910509F10895863E910522
:10105000A9F1873E9105B9F1843E910509F064C07C
:1010600023C02091600220FD4FC021FD4DC0089596
:101070008091600280FD44C08091610280FF44C085
:101080008091600284FD42C083EE4DC08091600279
:1010900082FF38C0F5CF8091600282FD33C080911D
:1010A000610280FD31C0ECCF8091610281FF32C0CE
:1010B0008091600284FD2AC087EE35C08091600275
:1010C00083FF26C0F5CF8091600283FD21C080910F
:1010D000610281FD1FC0ECCF8091600285FD1CC0C4
:1010E0001DC08091600285FD19C016C0809160020C
:1010F00086FD16C017C08091600286FD13C010C027
:1011000089E311C082EE0FC080EE0DC080E00BC0FD
:1011100086EE09C084EE07C089E205C085E303C0FE
:101120008AE201C081E390E008959091600292FF0D
:101130000DC0282F2871283019F4877F846006C0DD
:10114000282F2471243011F48B7F886093FF0DC009
:10115000282F2871283119F4877E846106C0282F32
:101160002471243111F48B7E88612091610220FF6B
:101170000DC0382F3871383019F4877F816006C070
:10118000382F3171313011F48E7F886021FF0DC00E
:10119000282F2871283119F4877E816106C0282FF5
:1011A0002171213111F48E7E886194FD877E08952E
:1011B00008950C94D80808950C94DB08E82FF0E00B
:1011C000EA5DFD4F80810895CF92DF92EF92FF920A
:1011D0000F931F93CF93DF9386E492E00E946C04F9
:1011E00086E2E82E82E0F82EC0E0D0E091E4C92E3D
:1011F00092E0D92E09E312E0DF93CF93DF92CF92F2
:101200000E9405058EE392E00E946C04F701819133
:101210007F010E94E3221F928F931F930F930E94DE
:10122000050587E392E00E946C0421968DB79EB776
:1012300008960FB6F8949EBF0FBE8DBFCA30D10579
:10124000D9F6DF91CF911F910F91FF90EF90DF9032
:10125000CF9008950895CF93DF93CDB7DEB7609711
:101260000FB6F894DEBF0FBECDBF0E94FD0A80917D
:10127000100181112CC0FE0131968AE0DF011D9220
:101280008A95E9F781E3898382E38A8382E98B8304
:1012900081EF8C8384EF8D83A6E0B1E08AE08E0F2E
:1012A00091919D938E13FCCF86E0E2E3F1E0DE01A5
:1012B0001B9601900D928A95E1F7A0E0B1E0FE0146
:1012C0003B9686E08E0F91919D938E13FCCF80917B
:1012D0001001811102C095E001C090E090933102AD
:1012E00085E0891B80933002A6E0B1E041E050E048
:1012F00025E02A0F8D91E82FE295EF70F0E031A103
:101300008F70BA0102C0660F771F8A95E2F7CB0192
:10131000962F9095932391A392A1892B82A32A13B0
:10132000E9CFA0E0B1E041E050E026E02A0F8D9146
:10133000E82FE295EF70F0E031A18F70BA0102C0A2
:10134000660F771F8A95E2F7CB01962F909593232E
:1013500091A392A1892B82A32A13E9CFA6E2B2E03E
:10136000ECE1F2E08AE08E0F11921D928E13FCCF19
:1013700085E00E94A30A60960FB6F894DEBF0FBE08
:10138000CDBFDF91CF910C944C050E94E00A8823D9
:1013900021F18091300290E08A5D9D4F0E943B0BCD
:1013A000811117C080915D018F5F80935D01863050
:1013B00090F02091300280E090E030E0FC01E20FFC
:1013C000F31FEA5DFD4F1082019685309105B1F75C
:1013D00002C010925D010C9458058091310290E09A
:1013E0008A5D9D4F0E94680B0E947C120C942A0912
:1013F000CF92DF92EF92FF920F931F93CF93DF93E1
:10140000A6E0B1E0ECE1F2E0D12C41E050E085E073
:10141000C82ECE0ECF01F08010826C91262F22951F
:101420002F7030E0E90119A16F70EA0102C0CC0F02
:10143000DD1F6A95E2F7BE01612BE90169A33C91CA
:10144000632F62956F7070E0EB011AA13F70EA01A3
:1014500002C0CC0FDD1F3A95E2F79E0120952123B3
:10146000EB012AA3D0EADA95F1F700E011E020E0E1
:1014700030E0E801E9908E016E2D62956F7070E0AA
:10148000EB0168A170E0DE2DDF7002C075956795F5
:10149000DA95E2F760FD07C0BA01022E01C0660FBF
:1014A0000A94EAF702C060E070E07081672B608305
:1014B0002F5F3F4F26303105E1F67C91272F229593
:1014C0002F7030E0E90119A17F70EA0102C0CC0F52
:1014D000DD1F7A95E2F7BE0160956123E90169A3FA
:1014E0006D91262F22952F7030E0E9011AA16F70BF
:1014F000EA0102C0CC0FDD1F6A95E2F7BE01612B45
:10150000E9016AA3319621E0EC018881F81201C05B
:1015100020E0D22ACE127ECF6091310270E06A5D67
:101520007D4F2D2D45E08CE192E00E94A40A0E949F
:10153000C5098D2DDF91CF911F910F91FF90EF90F5
:10154000DF90CF9008950895FF920F931F93CF934C
:10155000DF938C01F62ED72FC42F222349F081E090
:10156000809360010E94712490935F0180935E01DB
:10157000809160018823C1F080915E0190915F01AC
:101580000E947D24069780F0EF2DFD2FD8014C2F6F
:1015900050E0CD01801B910B841795071CF48D91B1
:1015A0008193F7CF10926001DF91CF911F910F913E
:1015B000FF900895559889B185FB882780F9089593
:1015C00080916101811112C08091D8008061809367
:1015D000D8008AE18A95F1F700C08091D90080FD9A
:1015E00002C082E001C081E08093610181E09091BE
:1015F0006101913009F080E008950E94DA0A809339
:1016000010018091100166E0882311F080E001C094
:1016100086E00E94200C0E94E00A81110C94120BBB
:101620000C94180B62E070E081E191E00C94571586
:1016300062E070E081E191E00C9460150E94760F09
:10164000882361F08BE691E00E947C0F81E090E0BE
:101650000E944216892B11F40C94790F0895809101
:101660006A01883039F460E08BE691E00E948F0FC8
:1016700010926A010895CF93DF93D82FC92F0E944B
:101680001E0B80E090E00E944216892BE9F4ED2FBA
:10169000FC2F80E090E0DC01AC59BE4F2C912193EF
:1016A000019685309105B9F70E941210882319F030
:1016B0000E94161001C080E08093630189E691E0EA
:1016C0000E94ED1281E001C080E0DF91CF9108958A
:1016D000CF93DF9300D0CDB7DEB789839A830E9482
:1016E0002F0B8981E82F9A81F92F80E090E02191DA
:1016F000DC01AC59BE4F2C93019685309105B9F7AA
:10170000809163010E94731189E691E00F900F9020
:10171000DF91CF910C94E412AF92BF92CF92DF92FF
:10172000FF920F931F93CF93DF93D62E372FE82F7F
:10173000F0E0711106C0ED56FA4F6491762F862FB6
:1017400075C0C72FD0E0ED56FA4F2491F22E022F2C
:1017500010E046E0649FC0011124EFEFF0E0BF010C
:101760000E94CF2CAB016BEA6403C001659F900D12
:1017700011248D0D911D8D0D911D982F990F890F9D
:10178000DF01AC1BBD0B0A9FB0010B9F700D1A9FB0
:10179000700D1124972F839FD0011124AB2FBB27ED
:1017A0006F01CA1ADB0A0C9DD0010D9DB00D1C9D66
:1017B000B00D11245F01A81AB108AC9E6001AD9E66
:1017C000D00CBC9ED00C1124CD2DDD27EC1BFD0BC5
:1017D0000E9FE0010F9FD00D1E9FD00D1124ED2F05
:1017E0004230510591F04CF441155105E1F0413082
:1017F0005105B9F4E22F2B2F16C04430510569F082
:1018000044F04630510579F00CC0E22F272F9D2F70
:101810000AC0272F9F2DEB2F06C0E72F922F2D2FC9
:1018200002C0E72F9B2F6E2F722F892FDF91CF9150
:101830001F910F91FF90DF90CF90BF90AF900895D0
:1018400080937401609322010895CF93DF93762FE4
:10185000E901682F842F0E948C0B798368838A8327
:10186000DF91CF91089580913202982F9695913013
:1018700021F08170826080933202089588E090E0C8
:101880000C942D2DCF93DF9300D000D0CDB7DEB7D1
:10189000AB01BC0149835A836B837C830E94330C68
:1018A00049815A816B817C8188E090E00F900F9094
:1018B0000F900F90DF91CF910C944B2DE2E3F2E06B
:1018C00083E0808311828FEF828383831482A6E773
:1018D000B1E012968C911297836012968C9360817E
:1018E0007181828193810C94420C80910C0280FF63
:1018F00008C08BEF94E09F938F930E9405050F9093
:101900000F9080910C0280FF0FC080913202817095
:101910001F928F938EED94E09F938F930E94050505
:101920000F900F900F900F9080910C0280FF0FC0CE
:101930008091320286951F928F9383EC94E09F935F
:101940008F930E9405050F900F900F900F9080913C
:101950000C0280FF0EC0809133021F928F9389EAA0
:1019600094E09F938F930E9405050F900F900F9026
:101970000F9080910C0280FF0EC0809134021F9264
:101980008F938FE894E09F938F930E9405050F90AB
:101990000F900F900F9080910C0280FF0EC08091ED
:1019A00035021F928F9385E794E09F938F930E9457
:1019B00005050F900F900F900F9080910C0280FF03
:1019C0000EC0809136021F928F9389E594E09F9319
:1019D0008F930E9405050F900F900F900F90089520
:1019E00080913602833018F48F5F809336026091C5
:1019F00032027091330280913402909135020C943E
:101A0000420C80913602882319F08150809336026F
:101A100060913202709133028091340290913502CC
:101A20000C94420C6091220170E08091320280FFA0
:101A30000AC08091740123E0829FC0011124895C57
:101A40009D4F0C941412809173019091210189177C
:101A500080F7E82FF0E09F01220F331FE20FF31F02
:101A6000E95CFD4F1182108212828F5FF0CF80916E
:101A700032028E7F80933202609132027091330283
:101A800080913402909135020E94420C80910C02A8
:101A900080FF0FC08091320281701F928F938BED77
:101AA00092E09F938F930E9405050F900F900F90E7
:101AB0000F90809178018160809378012FEF80E70B
:101AC00092E0215080409040E1F700C000000C946B
:101AD000120D809132028E7F8093320280910C022F
:101AE00080FF0CC01F921F9281EA92E09F938F9318
:101AF0000E9405050F900F900F900F908091780134
:101B00008160809378012FEF80E792E02150804040
:101B10009040E1F700C000000C94120D9091320249
:101B200090FF16C09091730120912101921770F4DB
:101B3000E92FF0E0DF01AA0FBB1FEA0FFB1FE95CF2
:101B4000FD4F8183608342839F5FF0CF0C94120D21
:101B50000895EF92FF920F931F93CF93DF9300D0DE
:101B60001F92CDB7DEB79091320290FF65C0E22E92
:101B7000F42E062F182FE92FE695F0E0E85CFE4FD3
:101B80008081809376019E7F923059F49E012F5F71
:101B90003F4F812F0E94250C4B8169818A810E94D1
:101BA0008E0D80913302811308C08091340280131E
:101BB00004C0809135028F1529F0809178018260F0
:101BC000809378011093330200933402F09235022F
:101BD000EE20E9F06091320270913302809134027C
:101BE000909135020E94420C80910C0280FF24C02B
:101BF000809135021F928F93809134021F928F93B0
:101C0000809133021F928F938CE792E00CC08091F9
:101C10000C0280FF11C01F92FF921F920F931F9220
:101C20001F9385E592E09F938F930E9405050FB661
:101C3000F894DEBF0FBECDBF0F900F900F90DF91D5
:101C4000CF911F910F91FF90EF900895E2E3F2E0A2
:101C50009181282F4381628188E0890F0C94A90D1E
:101C600081E00C94260EE2E3F2E09181282F43817B
:101C7000628188EF890F0C94A90D81E00C94330EDA
:101C8000E2E3F2E0628121E1620F08F46FEF282FB6
:101C9000438181810C94A90D81E00C94400EE2E314
:101CA000F2E0628121E1621B08F460E0282F4381A9
:101CB00081810C94A90D81E00C944F0EE2E3F2E0D7
:101CC000438121E1420F08F44FEF282F6281818187
:101CD0000C94A90D81E00C945E0EE2E3F2E04381E6
:101CE00021E1421B08F440E0282F628181810C949D
:101CF000A90D81E00C946D0E20E00C94A90D80914B
:101D0000320280FF3AC081708260809332028091FB
:101D100078018160809378016623B1F0609132028E
:101D20007091330280913402909135020E94420CEE
:101D300080910C0280FF19C08091320286951F921B
:101D40008F938FE993E009C080910C0280FF0DC052
:101D50001F9281E08F9381E893E09F938F930E947D
:101D600005050F900F900F900F90409135026091F4
:101D70003402809133020C947C0E0895682F81E028
:101D80000C947F0E81E00C94BE0E682F909132026D
:101D900096958FEF890F09F481E00C947F0E81E016
:101DA0000C94C50E61E00C947F0E8091320281602C
:101DB0008093320280910C0280FF0DC01F9281E05F
:101DC0008F9383E193E09F938F930E9405050F907B
:101DD0000F900F900F908091320286950C94D20E46
:101DE00080910C0280FF10C080913202809581703A
:101DF0001F928F938AE493E09F938F930E9405052F
:101E00000F900F900F900F908091320280FD0C94F4
:101E1000370D0C94D50E60E00C947F0E8091750107
:101E2000811163C080910C0280FF08C082E494E0BD
:101E30009F938F930E9405050F900F9080910C0245
:101E400080FF08C08CE294E09F938F930E94050569
:101E50000F900F900E94F922811110C080910C0206
:101E600080FF08C084E094E09F938F930E94050553
:101E70000F900F900E94A2230E945E0C0E943E0CC5
:101E80006093320270933302809334029093350250
:101E9000809178018360809378016E7FC1F4809196
:101EA0000C0280FF08C08BEB93E09F938F930E94FE
:101EB00005050F900F900E945E0C0E943E0C6093EF
:101EC00032027093330280933402909335020E9461
:101ED000330C0E94750C8091320280FF03C08695FE
:101EE0000E940B0F81E08093750108958091780125
:101EF000089510927801089525E0E2E3F2E0DC0114
:101F000001900D922A95E1F72091760130917701A9
:101F100040917801FC0125833683478308951F9300
:101F2000CF93DF93EC01162F8F8180FF0FC0888144
:101F300080FF0AC0809132028160809332028881E2
:101F400086950E947F0E02C00E94690D8F8181FFDD
:101F500009C0212F4B816A818981DF91CF911F9127
:101F60000C94A90DDF91CF911F910895882311F052
:101F7000FA0101C0FB0109941F93CF93DF93FB018A
:101F8000128111114AC0EC010E942E228272FE01C0
:101F9000E25CFC45E431F10520F4EA5AFF4F0C9471
:101FA000052D11E03AC00E94F00E37C04FEC5EE004
:101FB00062EC7EE004C042EC5EE06FEC7EE00E94EA
:101FC000B60F2BC04DE35EE060E37EE0F8CF40E368
:101FD0005EE06DE37EE0F3CF4BE55EE06CE47EE037
:101FE000EECF4CE45EE06BE57EE0E9CF49E75EE0F2
:101FF0006AE67EE0E4CF4AE65EE069E77EE0DFCFB6
:1020000041E05DE060EF7CE0DACF40EF5CE061E072
:102010007DE0D5CF81E00E94D20E812FDF91CF915C
:102020001F91089580915B028170089580915B02F9
:1020300086958695869508950E94F922811102C0A1
:102040000E94A2230E942A2380935B02282F2695B8
:102050002695269530E02630310524F08770886279
:1020600080935B0280915B0280FF04C08695869519
:10207000869501C080E00C94731120915B02822F41
:10208000869586958695482F50E04530510554F445
:102090008F5F982F990F990F990F822F8770892B37
:1020A00080935B0280915B02816080935B020E945F
:1020B0002E2380910C0280FF11C080915B028695D7
:1020C000869586951F928F938BE795E09F938F93CC
:1020D0000E9405050F900F900F900F9080915B026A
:1020E0008695869586950C94731180915B02982F46
:1020F000969596959695A1F0915E990F990F990FE7
:102100008770892B80935B02887F91E009F490E0CF
:1021100080915B0290FB80F980935B020E942E23EA
:1021200080910C0280FF11C080915B02869586959C
:1021300086951F928F9383E695E09F938F930E94DD
:1021400005050F900F900F900F9080915B02869580
:10215000869586950C94731180915B0280FD1FC05B
:10216000816080935B02813019F489E080935B0287
:1021700080915B020E942E2380910C0280FF08C098
:102180008BE395E09F938F930E9405050F900F902E
:1021900080915B028695869586950C9473110895BF
:1021A00080915B0280FF14C08E7F80935B020E944F
:1021B0002E2380910C0280FF08C088E295E09F9357
:1021C0008F930E9405050F900F9080E00C9473117F
:1021D0000895CF93C0915B02C17080910C0280FF83
:1021E0000CC01F92CF938DE495E09F938F930E9434
:1021F00005050F900F900F900F90CC2319F0CF9101
:102200000C94D010CF910C94AC1090915B02892F5C
:102210008695869586958F5F8F719770863038F496
:10222000880F880F880F892B80935B0202C09093E0
:102230005B0280915B02887F91E009F490E08091DD
:102240005B0290FB80F980935B020E942E238091B9
:102250000C0280FF11C080915B0286958695869561
:102260001F928F9384E195E09F938F930E940505C1
:102270000F900F900F900F9080915B02869586953E
:1022800086950C947311863008F085E090915B027E
:102290009770282F220F220F220F922B90935B0210
:1022A000987F21E009F420E090915B0220FB90F9F7
:1022B00090935B020C9473110E94431180915B0216
:1022C0000C942E23E82FE295EF70F0E032A1282F36
:1022D0002F7081E090E001C0880F2A95EAF7809581
:1022E000832382A30895CF92DF92EF92FF928630EC
:1022F00030F4811105C0909180009F7704C085E083
:1023000090918000906890938000282F30E0AFEF8C
:10231000BFEF0E940B2D25E030E040E050E00E942E
:10232000E32C2C3784E138074105510530F4C9010D
:1023300069E070E00E94CF2C29C0DA01C9018A50FF
:10234000974DAF4FBF4F6627782F892F9A2F25EFD4
:1023500038E241E050E00E94E32C69017A01CA01B1
:10236000B9010E94B32C9B01AC01C701B6010E94C8
:10237000B32CBB27A92F982F872F009721E0A20706
:10238000B10511F0BC0102C06FEF7FEF70938900BF
:1023900060938800FF90EF90DF90CF9008950895AC
:1023A000259A85E30E94621182E88093800089E18A
:1023B000809381008FEF9FEF90938700809386003A
:1023C0000C941C102BB1342F309523233BB1432B9D
:1023D0003FB7F894FC01680F791FE617F70789F0FB
:1023E000819198E04BB9000000C087FF2BB9880F9E
:1023F000000000C000C000C02BB900C09A9591F742
:10240000ECCF3FBF08952AB1242B2AB99B01220F9C
:10241000331F620F731F0E94E21187EC90E0019757
:10242000F1F700C00000089540E40C9403120895F1
:102430000C94171280911001882309F448C0209150
:102440002401A22FA295AF70B0E091966C91919764
:102450002F7081E090E0AC01022E01C0440F0A947D
:10246000EAF7342F3095362391963C9391979296C4
:102470003C919297432B92964C93929740912301D3
:10248000E42FE295EF70F0E031A14F70042E01C00F
:10249000880F0A94EAF7982F9095932391A392A11D
:1024A000892B82A390968C9190E002C09595879598
:1024B0002A95E2F78170992720A130E002C0359576
:1024C00027954A95E2F720FD09C020E008C087EF74
:1024D0008093240186EF80932301B1CF22E0822BE9
:1024E00080937E019091100181E0982790937A016A
:1024F000891B809379010895CF93E0917E015E2F2F
:10250000550F550F20912401E22FE295EF70F0E076
:1025100080A190E02F7002C0959587952A95E2F7EB
:102520008170992740912301E42FE295EF70F0E04C
:1025300020A130E04F7002C0359527954A95E2F70B
:10254000F901E170FF2720FF02C0E2E0F0E0E82B94
:10255000F92BE52BE0937E01C0917A01EF70F0E05A
:10256000E65CFE4F908180917D01890F80937D0113
:1025700084306CF0EC2F0C2E000CFF0BE558FE4F56
:1025800080818F5F808361E08C2F0E941812809180
:102590007D018D3F6CF4EC2F0C2E000CFF0BE558E9
:1025A000FE4F80818150808360E08C2F0E94181242
:1025B00080917D01837887FF03C081508C6F8F5F8E
:1025C00080937D01CF910895E0917A01F0E0E55884
:1025D000FE4F2081FC0120830895FF920F931F93EB
:1025E000CF93DF93D09179010D2F10E005581E4F46
:1025F000FC01C081F8018081C81BFC2E1F1454F41B
:10260000FA94F80180818F5F808361E08D2F0E94B2
:102610001812F4CF8C2FC7FD80E0C81BCC2351F0DB
:10262000CF5FF80180818150808360E08D2F0E9410
:102630001812F4CFDF91CF911F910F91FF90089561
:102640000F931F93CF93DF93C62FD42F022FFC013C
:1026500082818823C9F0609381010E947124909344
:10266000800180937F0180E28C0F883008F050C099
:10267000C77081E001C0880FCA95EAF7DF91CF915A
:102680001F910F910C94E71910918101161330C01E
:1026900080917F01909180010E947D24883C91056A
:1026A00038F5C0E2CD0F1D17B9F080E2810F8830F8
:1026B00040F4177081E001C0880F1A95EAF70E9474
:1026C000EE19C83048F481E09D2F977001C0880F43
:1026D0009A95EAF70E94E719802F0E94D419C83012
:1026E000B8F4D77081E001C0880FDA95EAF70AC024
:1026F00080E28C0F883060F4C77081E001C0880FE1
:10270000CA95EAF7DF91CF911F910F910C94EE19C2
:10271000DF91CF911F910F9108959C01CB01233F31
:102720004CE53407F9F078F4283DFCE53F07B9F0B3
:10273000293D4CE5340711F1273D3C4531F526E2B2
:1027400041EE61EE1EC0253FFCE53F0799F070F0B9
:10275000263F3C45D1F427E245EE66EE12C027E263
:1027600045EE0EC026E241EE60EE0BC027E245EEDC
:1027700064EE07C026E241EE62EE03C028E241E0CB
:1027800065EE0E94201380E00895FC018281882379
:1027900019F010928101089581E00895CF93DF939D
:1027A000EC01FB018281882309F41FC1C230FCE5E2
:1027B000DF0708F41BC1C6319CE5D90738F09E013C
:1027C0002A5F3C452930310508F010C10E940C23D6
:1027D0009093610280936002C031ECE5DE0709F45A
:1027E000C3C008F041C0C8308CE5D80709F49AC0CE
:1027F000F0F4C430ECE5DE0709F487C068F4C230B9
:102800008CE5D80709F477C0C330DC4509F0E3C094
:1028100080916002826076C0C630ECE5DE0709F484
:102820006EC008F07BC08091600288606BC0CC30C5
:102830008CE5D80709F485C068F4CA30ECE5DE07FA
:1028400009F474C008F079C00E94771C809160027E
:10285000806858C0CE308CE5D80709F476C008F0FF
:102860007FC0809160028BC0CB3FECE5DE0709F4AE
:102870004FC018F5C3318CE5D80709F47DC078F452
:10288000C131ECE5DE0709F473C0C231DC4509F063
:10289000A2C00E94771C809160028F7733C0C5313F
:1028A0008CE5D80709F472C008F486C0CA3FDC453D
:1028B00009F091C0809161023EC0CF3FFCE5DF0787
:1028C00009F45FC058F4CD3F9CE5D90709F444C032
:1028D00008F43FC08091610282602DC0C130FDE5E7
:1028E000DF0709F475C008F45DC0C230DD4509F0AA
:1028F00072C080E06EC080916002816003C08091F0
:10290000600280618093600266C08091600211C0A5
:10291000809161028260809361025DC0809160025B
:102920008062F0CF809160028064ECCF8091600281
:1029300088608460E7CF8160EECF809160028E7FF7
:10294000E1CF809160028D7FDDCF80916002877F33
:10295000D9CF8091610218C0809161028D7FDBCF59
:10296000809160028F7ECECF809160028F7DCACF32
:10297000809160028F7BC6CF80916002877F8B7FC2
:10298000C1CF809161028D7F8E7FC5CF8091600223
:1029900082FB222720F991E0922790FB82F990FB9D
:1029A00083F9B0CF80916102982F909591708E7FBE
:1029B000892B90FB81F9AFCF0E94771C8091600238
:1029C00087FB222720F991E0922790FB87F99ACF85
:1029D00081E00E94A42380916002909161020E9494
:1029E0001D230E94771C80E001C081E0DF91CF9120
:1029F00008958EE1489B02C08150E1F7489BFECFCD
:102A00000895589880E28A95F1F7589A0895FC0144
:102A10003AE03A95F1F720E090E080E031E0961757
:102A200079F040E14A95F1F7880F489B02C0816038
:102A3000232700C0000040E14A95F1F79F5FEFCFE8
:102A400090E19A95F1F799B100C0000030E13A9514
:102A5000F1F7917092272081920F90830895EF9261
:102A6000FF920F931F93CF93DF931F92CDB7DEB7E3
:102A7000F62E1982E82E8C01802F8E198F1558F4AE
:102A80000E94F91468E0CE0101960E940715F80132
:102A900081938F01F1CF81E09981911180E00F90B6
:102AA000DF91CF911F910F91FF90EF900895909338
:102AB00084018093830160938201509A589A08950B
:102AC0009093840180938301609382015098589A77
:102AD000E89AE9E6F0E080818C7F80830895615078
:102AE00091E001C0990F6A95EAF720E031E099235F
:102AF00061F0492F482319F0589A232701C05898AC
:102B000040E24A95F1F79695F2CF222311F0589AB8
:102B100001C0589880E28A95F1F758980895EF928D
:102B2000FF920F931F93CF93DF931F92CDB7DEB722
:102B3000162F082F7C018E2D801B811758F4F7016A
:102B400081917F0189830E94011568E089810E943B
:102B50006F15F1CF0F90DF91CF911F910F91FF90E3
:102B6000EF9008951F920F920FB60F9211240F93BA
:102B70001F932F933F934F935F936F937F938F9305
:102B80009F93AF93BF93EF93FF93CF93DF931F92E6
:102B9000CDB7DEB719820E94F91467E0CE01019625
:102BA0000E940715382F369536953695932F9695B2
:102BB0009570232F2570920F292F23709695969547
:102BC0008770920F891348C08981811145C0809117
:102BD0008201831708F440C080E18A95F1F7589A82
:102BE000509AA2E0AA95F1F700C0009183011091DC
:102BF0008401B8E03B9F000D111D11245898F80185
:102C00006581662321F0868197810E948F150E943D
:102C10000115F0E1FA95F1F758985098589A80E12B
:102C20008A95F1F7D80112966C911297662369F094
:102C300013968D919C9114970E942F15D801ED91B8
:102C4000FC91811105C082E004C0D801ED91FC9196
:102C500088E080830E94F9140F90DF91CF91FF915B
:102C6000EF91BF91AF919F918F917F916F915F9104
:102C70004F913F912F911F910F910F900FBE0F9089
:102C80001F9018950F931F93CF93DF93209182018C
:102C900030E0281739070CF471C09C0193E0220F33
:102CA000331F9A95E1F7C0918301D0918401C20F3F
:102CB000D31FF894509A589845E04A95F1F70000D0
:102CC000982F969595708570890F982F937086959B
:102CD0008695890F8901082B0E94011584E08A9549
:102CE000F1F700C067E0802F0E946F1540E14A9520
:102CF000F1F75098589A489902C000C0FCCF87E07D
:102D000090E0489B0EC0019751F4509A589AE88180
:102D1000F98181E08083789481E090E031C000C047
:102D2000F0CF6D81662381F08E819F810E942F15E7
:102D300081110AC0509A589AE881F98182E0808313
:102D4000789482E090E01CC00E94F91480E28A9599
:102D5000F1F75898509A40E14A95F1F76A81662355
:102D600021F08B819C810E948F150E940115E881C2
:102D7000F9811082789480E090E002C084E090E0D5
:102D8000DF91CF911F910F91089590938A018093C5
:102D900089010895E0918901F0918A01309721F02D
:102DA0000190F081E02D099480E00895EF92FF9268
:102DB0000F931F93CF93DF93E0918901F0918A01E4
:102DC0003097B1F18C010280F381E02D099580915B
:102DD0000C0282FF2DC080FF04C08BE996E00E94A8
:102DE0006C04E80118E085E9E82E86E0F82E809171
:102DF0000C0280FF0BC088811F928F93FF92EF928D
:102E00000E9405050F900F900F900F901150219682
:102E10001111EDCF80910C0280FF0AC083E996E08A
:102E2000DF91CF911F910F91FF90EF900C946C0464
:102E3000DF91CF911F910F91FF90EF900895209116
:102E40008701309188018217930771F09093880170
:102E500080938701E0918901F0918A01309721F0F8
:102E60000680F781E02D0994089520918501309125
:102E700086018217930771F09093860180938501F4
:102E8000E0918901F0918A01309721F00084F18569
:102E9000E02D0994089585B7806885BF85B780685F
:102EA00085BF0895089508950C94531708950C94C0
:102EB00056170E944B170E9452170C9454170E94E9
:102EC00068240E942B090E94F1240E941C100E9479
:102ED0000E0F0C945717CF93C82F80910C0282FFCE
:102EE0001EC080FF04C084EB96E00E946C048091B9
:102EF0000C0280FF0CC01F92CF938FEA96E09F9345
:102F00008F930E9405050F900F900F900F90809166
:102F10000C0280FF04C08DEA96E00E946C048C2FA6
:102F2000CF910C946305BF92CF92DF92EF92FF9204
:102F30000F931F93CF93DF93CDB7DEB72B970FB6C9
:102F4000F894DEBF0FBECDBF0E94F8090E94E00AD0
:102F5000811111C08FEF89838A831B820E947124A3
:102F60008160782F9D838C8349815A816B818D810B
:102F70000E942A1842C08CE8C82E81E0D82E00E0BA
:102F800010E0B02E802F0E94DE08F601E1906F0164
:102F9000E82631F40F5F1F4F0A30110591F7DACFA1
:102FA00090910C0291FF04C08B870E94E4088B85EE
:102FB00090E0FF24F3942F2D2E21D1F09E83BF8229
:102FC0008F2191E009F490E098870E94712481603C
:102FD000782F9A8789874E815F8168858A850E94CC
:102FE0002A18F801E457FE4F8081F826F08205C0C8
:102FF0009F5FFF0C9630F9F6CDCF0E94CF11109154
:103000008B010E94CA161817A9F00E94CA16809355
:103010008B012B960FB6F894DEBF0FBECDBFDF91AC
:10302000CF911F910F91FF90EF90DF90CF90BF90C5
:103030000C946B172B960FB6F894DEBF0FBECDBF66
:10304000DF91CF911F910F91FF90EF90DF90CF9084
:10305000BF900895CF93DF93CDB7DEB72B970FB610
:10306000F894DEBF0FBECDBF4F83588769877A873C
:103070008B87DE01119686E0FD0111928A95E9F7B2
:1030800085E0FE01379601900D928A95E1F749811E
:103090005A816B817C818D819E810E94211F2B969C
:1030A0000FB6F894DEBF0FBECDBFDF91CF9108956C
:1030B000FC01808191810E94EF210895882309F409
:1030C00013C1682F8238C1F40E94CA1681FD0CC159
:1030D00069E380912501909126010E94DB230E94E3
:1030E0007A222FEF81EE94E0215080409040E1F76A
:1030F00000C0000069E319C08338F9F40E94CA16C1
:1031000080FDF2C063E580912501909126010E9427
:10311000DB230E947A222FEF81EE94E02150804041
:103120009040E1F700C0000063E580912501909197
:1031300026010E94DD230C947A228438C1F40E9477
:10314000CA1682FDD1C067E48091250190912601C5
:103150000E94DB230E947A222FEF81EE94E021501F
:1031600080409040E1F700C0000067E4DECF8CEFC4
:10317000860F813A38F480912501909126010E94B2
:10318000DB23D9CF80E2860F883048F4677081E076
:1031900001C0880F6A95EAF70E943122CCCF8BE5F7
:1031A000860F833070F4653A29F0663A31F083E88F
:1031B00090E005C081E890E002C082E890E00C94C5
:1031C0001F1788E5860F873108F08EC0683A09F42A
:1031D00045C0693A09F445C06A3A09F445C06B3AFA
:1031E00009F445C06C3A09F445C06B3B09F445C08D
:1031F0006C3B09F445C06D3A09F445C0603B09F4E5
:1032000045C06E3A09F445C06F3A09F445C0613BC8
:1032100009F445C0623B09F445C0633B09F445C06D
:10322000643B09F445C0653B09F445C0663B09F4BD
:1032300045C0673B09F445C0683B09F445C0693B9C
:1032400009F445C06D3B09F445C06E3B09F445C027
:103250006A3B09F445C080E090E044C082EE90E013
:1032600041C089EE90E03EC08AEE90E03BC085EB25
:1032700090E038C086EB90E035C083EB90E032C040
:1032800084EB90E02FC087EB90E02CC08CEC90E0BA
:1032900029C08DEC90E026C083E891E023C08AE845
:1032A00091E020C082E991E01DC084E991E01AC05C
:1032B00081E292E017C083E292E014C084E292E0DF
:1032C00011C085E292E00EC086E292E00BC087E278
:1032D00092E008C08FE690E005C080E790E002C071
:1032E0008AE292E00C9435170895882309F45BC0B4
:1032F000682F823879F40E94CA1681FF54C069E3AE
:1033000080912501909126010E94DB230E947A2260
:1033100069E310C08338B1F40E94CA1680FF43C02D
:1033200063E580912501909126010E94DB230E9494
:103330007A2263E580912501909126010E94DD2388
:103340000C947A22843879F40E94CA1682FF2BC02A
:1033500067E480912501909126010E94DB230E9461
:103360007A2267E4E7CF8CEF860F813A18F380E288
:10337000860F883048F4677081E001C0880F6A9535
:10338000EAF70E943722DCCF8BE5860F833020F4EA
:1033900080E090E00C941F17685A673120F480E0B9
:1033A00090E00C9435170895CF93C82F0E945E18B3
:1033B000C93349F42FEF87EE93E0215080409040CD
:1033C000E1F700C000008C2FCF910C947519882371
:1033D00021F00E9431220C947A220895882321F052
:1033E0000E9437220C947A220895BF92CF92DF92E6
:1033F000EF92FF920F931F93CF93DF937C01062FE1
:10340000C72FFC01158112951F70D281D1110E9426
:103410004E220E942722882379F0DD2369F080E282
:10342000800F883048F082E00E94C5220E94272247
:1034300091E0B82EB92601C0B12CCC2EC2948FE0F9
:10344000C822D12CF601E659FF4F0C94052D8C2F84
:10345000807FCF70882311F0C295C07FDD2399F063
:10346000CC2309F48DC180E2800F883010F0011167
:1034700004C08C2F0E94312203C08C2F0E94412255
:103480000E947A227DC1802F0E947519CC2309F4F5
:10349000C0C180E2800F883010F0011104C08C2F71
:1034A0000E94372203C08C2F0E9447220E947A225A
:1034B000B0C18C2F807FCF70803211F0C295C07F59
:1034C000002319F00130C9F022C0DD2371F011236F
:1034D00041F0113031F40E9461228C2B0E9467224E
:1034E00098C10E9461228C2B1DC0112319F011304C
:1034F00009F48FC10E94702225C0DD2321F016300F
:1035000008F087C10EC0153008F083C11BC0DD2351
:1035100061F0112331F0F701858180FF31C18F7097
:1035200085838C2F0E94E71974C1112359F0093348
:1035300009F037C1FFEF27EE83E0F15020408040D3
:10354000E1F72DC18C2F0E94EE1963C18C2F869557
:103550008695837090E0009719F0019761F059C14A
:10356000DD2321F0802F9C2F937002C080E090E03B
:103570000E941F1759C1DD2321F0802F9C2F9370CB
:1035800002C080E090E00E9435174EC18C2F8370FE
:1035900009F049C0D11144C1402F4295469547706A
:1035A000440F440F602F6F70862F90E0A0E0B0E0D2
:1035B000042E04C0880F991FAA1FBB1F0A94D2F7BC
:1035C00004FF10C00FE010E020E030E004C0000F66
:1035D000111F221F331F4A95D2F700951095209591
:1035E000309503C000E010E09801C695C695C37001
:1035F000D0E0BC01CD01602B712B822B932BC2300C
:10360000D10559F0C330D10559F0219719F00E9426
:10361000662006C10E94542003C10E94782000C188
:103620000E945220FDC0DD2319F08C2F817001C053
:103630008695882309F4F4C0402F4295469547703B
:10364000440F440F602F6F70862F90E0A0E0B0E031
:10365000042E04C0880F991FAA1FBB1F0A94D2F71B
:1036600004FF10C00FE010E020E030E004C0000FC5
:10367000111F221F331F4A95D2F7009510952095F0
:10368000309503C000E010E09801C695C695C37060
:10369000D0E0BC01CD01602B712B822B932BC2306B
:1036A000D10559F0C330D10559F0219719F00E9486
:1036B0002C21B6C00E941A21B3C00E943E21B0C086
:1036C0000E948D20ADC0CF70DD2339F08C2F0E9479
:1036D000B320802F0E94E719A3C0802F0E94EE190B
:1036E0008C2F0E94D4209CC0023F01F128F4003F9F
:1036F00041F0013FA1F040C0033FF9F0043F39F130
:103700003BC0DD2341F0153008F083C08C2F8F7152
:103710000E94F9207EC0163008F07BC0F7CFDD2371
:1037200039F08C2F8F710E94B32073C0DD23C9F351
:103730008C2F8F710E94D4206CC0DD2329F08C2F38
:103740008F710E949E2065C00E94992062C0DD2377
:1037500049F0CF718C2F0E94B32063E08C2F0E9420
:10376000B02257C081E00E94C522123008F451C037
:1037700082E00E94C5224DC0DD2331F0112389F281
:10378000802F0E945E1845C0112391F2093349F43D
:103790009FEFE7EEF3E09150E040F040E1F700C02A
:1037A0000000802F0E94751934C04C2F4F70602F7D
:1037B000C7010E9402060E94C51F36C0D11134C045
:1037C000CF70D0E0C230D10599F03CF4209769F079
:1037D0002197F9F40E94751027C0C430D10571F00B
:1037E00054F02597B1F480E00AC00E943D101CC03F
:1037F0000E94E91019C00E94051116C085E00E94C0
:103800005C1112C04C2F4F70602FC7010E9405063B
:103810000BC028E0C21AD10884E0C816D10420F4F5
:103820000E94CA160E946305BB20D1F00E94232289
:1038300080FD16C0F70112820E941D220E94B32053
:10384000C7010E943A1C0E941D22DF91CF911F9157
:103850000F91FF90EF90DF90CF90BF900C94D42009
:10386000DF91CF911F910F91FF90EF90DF90CF905C
:10387000BF9008950F931F93CF93DF93EC0188813E
:1038800099812B813C81232BB9F09F3F11F48F3F0D
:1038900099F0CE010E947C05882371F068817981BE
:1038A0008A810E94FA218C010E9450210E9451209D
:1038B000B801CE010E94F519DF91CF911F910F91B0
:1038C00008950E944E220E945E220E947A2280E089
:1038D00090E00E941F1780E090E00C9435178091D3
:1038E0002501909126010E94DF230C94611C0E9407
:1038F0003E220C946F1CE92FE295EF70F0E03297B6
:10390000EE30F105B0F4E658FF4F0C94052D803FE2
:1039100091F018F4883E68F40EC0843F51F40BC057
:10392000883E48F0813F29F406C093FB882780F940
:10393000089580E0089581E008950E94EF210E949B
:103940007B1C0895CF93DF9300D000D01F92CDB79A
:10395000DEB70F900F900F900F900F90DF91CF91E7
:103960000895CF93DF9300D000D000D0CDB7DEB75D
:1039700026960FB6F894DEBF0FBECDBFDF91CF9174
:1039800008951F93CF93DF93C091970116E0809124
:103990009801C81799F0D0E01C9FF0011D9FF00D11
:1039A0001124E756FE4F40815181628173818481E9
:1039B00095810E94B11C2196C770E9CFDF91CF910C
:1039C0001F9108954091C9015091CA016091CB01A6
:1039D0007091CC018091CD019091CE010C94B11CDD
:1039E0008091CE0182958F7009F054C08091CB01F7
:1039F000882309F44FC080919701A09198016091AC
:103A0000C9017091CA014091CC015091CD01B6E03D
:103A10008A1709F43FC090E041155105C1F17F3F7D
:103A200011F46F3FA1F1B89FF001B99FF00D11247F
:103A3000E756FE4F218172132AC02081621327C0EE
:103A40002281211124C0238134812417350710F4E9
:103A500021503109241B350B283C3105C0F420913D
:103A6000CE012F7020612093CE0126E0289FF00127
:103A7000299FF00D1124E256FE4F80818F708061E6
:103A8000808389EC91E00E943A1C0C94C11C019641
:103A90008770BECF0895CF92DF92EF92FF920F937F
:103AA0001F93CF93DF93CDB7DEB762970FB6F8942D
:103AB000DEBF0FBECDBF8C0185E0F801DE011D9693
:103AC00001900D928A95E1F7D8014C9111965C9185
:103AD000119712966C9112971396CD90DC901497D3
:103AE0003091C9017091CA018091CC019091CD01B2
:103AF000009709F46BC17F3F19F43F3F09F466C199
:103B0000E090CB01EE2009F4C0C02091CE01C81690
:103B1000D90628F0F601E81BF90BCF0104C0809507
:103B200090958C0D9D1DFF24F394883C910578F0B1
:103B3000F12C207F09F0C6C07C2DD98AC88A8989DA
:103B40000E94A21C89EC91E00E943A1CB1C0822F15
:103B5000807F09F046C0751314C0341312C0611180
:103B600010C02F7020612093CE010E94E21C89ECCE
:103B700091E00E943A1C8091CE01D80115968C9359
:103B80002EC0CD2819F15F3F11F44F3FF9F0F62E0A
:103B900061111CC0809197012091980136E0821735
:103BA00009F45AC090E0389FF001399FF00D1124BC
:103BB000E756FE4F7181571306C07081471303C04B
:103BC0007281711103C001968770E9CFF62E6623CA
:103BD00009F427C18091CE0181608093CE01F12C40
:103BE00020C1751308C0341306C0611104C0809150
:103BF000CE01D801C3C04D875E878D859E856A8BB7
:103C00000E949D1C6A898823E1F16623D1F12091ED
:103C1000CE01822F82958F7090E0029774F0809190
:103C2000C9019091CA0198878F831986DB86CA865D
:103C30002C87CE0107960E943A1C86E0F801A9EC79
:103C4000B1E001900D928A95E1F70E94F01C0E946C
:103C5000E21CFF24F394E5C04D875E878D859E8529
:103C60000E94EF21292F22952F7030E0223031055C
:103C70000CF0CBC09F7009F0C5C0805E883008F49E
:103C8000D0C0C8010E943A1CE4CFC816D90608F477
:103C900053C0F601E81BF90BCF01883C910508F4ED
:103CA00050C0F12C7C2DD98AC88A89890E94A21C17
:103CB000E9ECF1E086E0DF011D928A95E9F70E94C8
:103CC000E21CAFC0751314C0341312C0611110C0D0
:103CD0008091CE01F8018583C8010E943A1C86E0DC
:103CE000E9ECF1E0DF011D928A95E9F7FE2C99C01D
:103CF0004D875E878D859E856A8B0E949D1C6A8993
:103D0000882309F4BECF662309F4BBCF2091CE01EE
:103D1000822F82958F7090E002970CF48ECF809165
:103D2000C9019091CA019A8389831B82DD82CC826A
:103D30002E83CE0101967FCF809590958C0D9D1D91
:103D4000ACCFF62E662309F49CCF75132EC0341326
:103D50002CC02091CE0120FD1FC0822F82958F7034
:103D6000D9F0D80115962C9315978F3049F08F5FB5
:103D7000982F9295907F822F8F70892B15968C9318
:103D8000C8010E943A1C86E0F801A9ECB1E001905C
:103D90000D928A95E1F793CF86E0F801A9ECB1E0A6
:103DA00001900D928A95E1F73CC04D875E878D8525
:103DB0009E850E949D1C811140CF8091CE01816023
:103DC0008093CE01C8010E943A1C2BC0662309F4DF
:103DD00058CF4D875E878D859E850E949D1CF82E4D
:103DE000882309F44ECF86E0F801A9ECB1E00190F8
:103DF0000D928A95E1F789EC91E00E9458180E9493
:103E0000F01C5DCF811139CF0CC0243031050CF08E
:103E100038CF9F7009F431CFF8019581907F09F078
:103E20002CCF8F2D62960FB6F894DEBF0FBECDBF9C
:103E3000DF91CF911F910F91FF90EF90DF90CF9086
:103E400008951F93CF93DF93CDB7DEB72C970FB6AE
:103E5000F894DEBF0FBECDBF4F83588769877A873E
:103E60008B879C87CE0107960E944B1D882369F0A3
:103E70008F8198852A853B85232BF1F19F3F09F09F
:103E800063C08F3F09F060C037C086E0FE013796FF
:103E9000DE01119601900D928A95E1F76F81788588
:103EA000EA85FB85309741F17F3F11F46F3F21F1A7
:103EB0002091980130E0C9010196877099274091BF
:103EC000970150E08417950709F447C069837A8306
:103ED000FD83EC8396E0929FD001939FB00D112457
:103EE000A756BE4FFE01319601900D929A95E1F7CB
:103EF000809398010E94C11C16E0809197019091D7
:103F000098018917C1F1189FC001112487569E4F4F
:103F10000E944B1D882379F1E09197011E9FF001CB
:103F20001124E756FE4F4081518162817381848163
:103F300095810E94B11C8091970190E00196877055
:103F4000992780939701D9CF4F81588569857A85C4
:103F50008B859C850E94B11CCFCF0E94771C10924C
:103F6000980110929701E9ECF1E086E0DF011D92E3
:103F70008A95E9F7C1CF2C960FB6F894DEBF0FBE35
:103F8000CDBFDF91CF911F910895EF92FF920F93D4
:103F90001F93CF93DF938C01892B09F46CC0F12C14
:103FA000EE24E394E8012196F8018491843740F4EB
:103FB000843008F051C0813081F0823019F15BC04B
:103FC000853709F444C0A8F19CE7980F903708F0B2
:103FD00052C08F770E94751941C00E5F1F4FFE01BE
:103FE000C49180E28C0F883048F4C7708E2D01C0D8
:103FF000880FCA95EAF70E94512214C08C2F0E94A4
:104000005E182DC00E5F1F4FFE01C49180E28C0F21
:10401000883058F4C7708E2D01C0880FCA95EAF712
:104020000E9457220E947A221AC08C2F0E94751972
:1040300016C00E5F1F4FFE01C491CC2381F08FE9A3
:104040009FE00197F1F700C00000C150F6CF0E5F6E
:104050001F4FFE01F49003C00E945E188E018F2D49
:10406000882309F49FCFEFE9FFE03197F1F700C013
:1040700000008150F5CFDF91CF911F910F91FF90FC
:10408000EF90089508950C9442200E94432060937D
:10409000FB017093FC018093FD019093FE010C9451
:1040A000611C08950C9445200F931F930091FB0110
:1040B0001091FC012091FD013091FE01602B712BCC
:1040C000822B932B1F910F910C9445200F931F93DC
:1040D0000091FB011091FC012091FD013091FE0146
:1040E00060237123822393231F910F910C94452009
:1040F0000F931F930091FB011091FC012091FD0192
:104100003091FE0160277127822793271F910F911D
:104110000C94452008950C948A200E948B20609373
:10412000F7017093F8018093F9019093FA010C94D0
:10413000611C60E070E0CB010C948D200F931F9305
:1041400041E050E060E070E08A019B0104C0000F94
:10415000111F221F331F8A95D2F7C901B8011F9181
:104160000F910C948D200F931F9341E050E060E07D
:1041700070E004C0440F551F661F771F8A95D2F761
:104180008091F7019091F801A091F901B091FA01A5
:104190008A019B01082B192B2A2B3B2BC901B80143
:1041A0001F910F910C948D200F931F9341E050E0CD
:1041B00060E070E004C0440F551F661F771F8A95AA
:1041C000D2F740955095609570958091F701909148
:1041D000F801A091F901B091FA018A019B0108232D
:1041E00019232A233B23C901B8011F910F910C9475
:1041F0008D200F931F9341E050E060E070E004C019
:10420000440F551F661F771F8A95D2F78091F701DB
:104210009091F801A091F901B091FA018A019B01F6
:10422000082719272A273B27C901B8011F910F9199
:104230000C948D200F931F930091F7011091F801BA
:104240002091F9013091FA01602B712B822B932B75
:104250001F910F910C948D200F931F930091F701E4
:104260001091F8012091F9013091FA016023712336
:10427000822393231F910F910C948D200F931F93F2
:104280000091F7011091F8012091F9013091FA01A4
:1042900060277127822793271F910F910C948D20FF
:1042A0000895292F220F920F990F890FA82FA695F5
:1042B000A695A695877051E001C0550F8A95EAF73B
:1042C00085E0A89FD001112420E030E070E0F901E2
:1042D000EA0FFB1FE153FE4F4081CB01022E02C0CB
:1042E000969587950A94E2F781709927819584279E
:1042F0008523842780832F5F3F4F2530310539F791
:104300000895292F220F920F990F890F682F669514
:1043100066956695982F977085E0689FB001112487
:1043200040E050E080E0FA01E60FF71FE153FE4F56
:10433000208130E0092E02C0369527950A94E2F7D5
:1043400021703327042E01C0220F0A94EAF7822B32
:104350004F5F5F4F4530510531F70895BF92CF92BF
:10436000DF92EF92FF920F931F93CF93DF938C0115
:10437000C090FB01D090FC01E090FD01F090FE01A7
:104380008091F7019091F801A091F901B091FA01A3
:10439000C82AD92AEA2AFB2ACFE1D0E0D701C601F0
:1043A0000C2E04C0B695A795979587950A94D2F7D9
:1043B00080FF07C0BC2EB8018C2F0E9420060197F9
:1043C00019F4219758F7B12C8B2DDF91CF911F91C4
:1043D0000F91FF90EF90DF90CF90BF900895CF9313
:1043E000DF93EC010E94AE21BE010E942006DF9106
:1043F000CF9108951F93CF93DF93EB019091960196
:10440000992321F0CB010E94EF2113C0882349F0AA
:10441000CB010E94AE21182F682FCE010E9451219E
:1044200004C0CB010E948121182FBE01812F0E9460
:104430002006DF91CF911F9108958091FF0185950E
:104440008595859508958091FF01877008959091D5
:10445000FF01977081E009F480E0089580910B02DC
:10446000089590910B02892B80930B0208958095FB
:1044700090910B02892380930B02089510920B02F6
:10448000089590910A02892B80930A0208958095DD
:1044900090910A02892380930A02089510920A02D9
:1044A000089590910902892B8093090208958095BF
:1044B00090910902892380930902089510920902BC
:1044C000089580910002089508950C9464229091BB
:1044D0000002981721F0809300020C946522089541
:1044E00080910002882329F01092000280E00C9451
:1044F00065220895E0912501F091260180910B023B
:104500008083E0912501F0912601908180910A023B
:10451000892B8083E0912501F09126019081809183
:104520000902892B808380910002882381F0E09129
:104530002501F09126019081892B808380912501AE
:10454000909126010E94A92381110E9470228091DE
:104550002501909126010C94D61608950C94AD2255
:1045600098E0899F90011124262B2093FF010E943F
:10457000B3208091FF018595859585950C94AE2299
:104580001092FF0180E00C94AE222091FF018095F3
:1045900082238093FF01982F977079F430E0482FA1
:1045A000082E000C550B2417350739F08595859595
:1045B00085950E94D4200C94C022089590935B01AD
:1045C00080935A0108958295982F9C7C392F3695B7
:1045D0003695282F237344E0249FC0011124932F84
:1045E000982B292F2A7A2695892F8575880F822B5B
:1045F000089580E090E00E94332D21E08C3E9E4F94
:1046000009F020E0822F089582E090E00C94252D9F
:1046100083E090E00C94252DCF9384E090E00E94FD
:10462000252DC82F81E290E00E94252D2C2F30E00F
:10463000A901582BCA01CF910895CF93C92F682F94
:1046400084E090E00E94392D6C2F81E290E0CF91C0
:104650000C94392D86E090E00C94252D682F86E08F
:1046600090E00C94392DAB01BC018FE090E00C94EC
:104670004B2DAB01BC0183E190E00C944B2D60E02D
:1046800070E0CB010C94392360E070E0CB010E9414
:1046900033230C943F236CEE7EEF80E090E00E9489
:1046A000572D60E082E090E00E94392D60E083E0C9
:1046B00090E00E94392D1092FB011092FC011092A3
:1046C000FD011092FE0160E084E090E00E94392D2F
:1046D00060E081E290E00E94392D60E085E090E0AA
:1046E0000E94392D60E086E090E00E94392D6FEF46
:1046F00087E090E00E94392D40E050E0BA0188E068
:1047000090E00E944B2D60E08DE090E00E94392DFA
:1047100040E050E0BA0188E190E00E944B2D60E05B
:1047200087E190E00E94392D40E050E0BA018CE131
:1047300090E00E944B2D60E080E290E00E94392DD5
:104740000C9444230C944B23682F8EE090E00C943F
:10475000392DFC01329697E080E0915029F02191AB
:104760002223D9F38F5FF9CF08959C01FC01329683
:104770009FEF80E04191461789F09F3F19F4411166
:1047800001C0982F8F5F8630A9F79F3F39F0F9015C
:10479000E90FF11D97FDFA95628308950895FC01D4
:1047A000329608962081261301C010823196E817B0
:1047B000F907C1F708950C94B5230C94CF23029602
:1047C00026E0FC0111922A95E9F7089508950C94CA
:1047D000E6230E94E72380916602843061F1109203
:1047E0000D0220E488E190E00FB6F894A89580933C
:1047F00060000FBE2093600080E00E94731180E093
:104800000E9463050E94E72383B7817F846083BF92
:1048100083B7816083BF7894889583B78E7F83BF89
:104820000FB6F894A895809160008861809360002D
:10483000109260000FBE089508950895CF930E94CE
:104840001C240E94F8090E941D24C0E08C2F0E94A5
:10485000DE08811104C0CF5FCA30C1F701C081E01A
:10486000CF91089508950C9432240E94771C0E94E1
:104870001C100E94CA160E9463050C9433241F92D8
:104880000F920FB60F9211248F939F93AF93BF9304
:1048900080910D02811113C080915C0290915D02A4
:1048A000A0915E02B0915F024196A11DB11D80935F
:1048B0005C0290935D02A0935E02B0935F02BF9191
:1048C000AF919F918F910F900FBE0F901F901895F1
:1048D00082E084BD93E095BD9AEF97BD80936E0012
:1048E00008952FB7F89480915C0290915D02A09199
:1048F0005E02B0915F022FBF0895CF92DF92EF92D8
:10490000FF920F931F932FB7F89440915C02509140
:104910005D0260915E0270915F022FBF6A017B01B0
:10492000EE24FF248C0120E030E0C016D106E20620
:10493000F30610F4415051099A01281B390BC901A3
:104940001F910F91FF90EF90DF90CF900895789492
:104950001F920F920FB60F9211248F939F93AF93D4
:10496000BF9380915C0290915D02A0915E02B09134
:104970005F020196A11DB11D80935C0290935D02C0
:10498000A0935E02B0935F02BF91AF919F918F9110
:104990000F900FBE0F901F90189581E08093E0005C
:1049A00080E28093D8001092C9008FE19EE40197C5
:1049B000F1F700C0000087E090EBDC0180936F020C
:1049C00090937002A0937102B09372029CE088E110
:1049D0000FB6F894A895809360000FBE9093600086
:1049E000FFCF0E94F922811102C00E94A2230E94DF
:1049F000042380930C020E940C2390936102809305
:104A000060020E940823682F70E080E090E00C9420
:104A1000522080911902089508959FB7F89410923A
:104A200010029FBF90916602943009F057C0909198
:104A3000E9009F703091EC00232F217030FD20E8B9
:104A4000922B23E02093E9002091EB0020FF43C04C
:104A50002091EE0027FF3FC020910E02222321F07B
:104A60002091E80025FF37C010920E0226E0309119
:104A7000E80035FD15C030916602343061F53091A3
:104A8000EB0035FD28C0215021F481E080930E0217
:104A900022C0EFE9FFE03197F1F700C00000E7CF57
:104AA0008093F1008091E80085FD0AC08091E800C4
:104AB00080FFFCCF8091E8008E778093E80006C0ED
:104AC0008FB7F89421E0209310028FBF9F709093CE
:104AD000E90080E008959F709093E9008FEF0895BA
:104AE0000F931F93CF93DF9300D01F92CDB7DEB704
:104AF0008C010E94FB27823011F0843021F584E084
:104B000089831B830A8382E08093E9008FEF909171
:104B1000E800815095FD06C095ED9A95F1F70000EB
:104B20008111F5CF8091E80085FF0DC040E050E095
:104B300063E070E0CE0101960E9418288091E800A1
:104B40008E778093E8000F900F900F90DF91CF91B8
:104B50001F910F910895CF93DF9300D01F92CDB78F
:104B6000DEB720916602243031F523E02983805896
:104B700091099B838A8382E08093E9008FEF909173
:104B8000E800815095FD06C095ED9A95F1F700007B
:104B90008111F5CF8091E80085FF0DC040E050E025
:104BA00063E070E0CE0101960E9418288091E80031
:104BB0008E778093E8000F900F900F90DF91CF9148
:104BC0000895CF93DF93EC010E94FB27823011F010
:104BD000843039F581E08093E9008FEF9091E8000F
:104BE000815095FD06C095ED9A95F1F70000811171
:104BF000F5CF8091E80085FF14C040E050E068E008
:104C000070E0CE010E9418288091E8008E77809392
:104C1000E80088E0FE01A1E1B2E001900D928A95E2
:104C2000E1F7DF91CF9108958CEE96E00E946C043D
:104C300080916502811109C00E94AD290E940A2A53
:104C40008091E20084608093E200089588EE96E00F
:104C50000E946C0410926502089584EE96E00C9414
:104C60006C0480EE96E00C946C048CED96E00E944F
:104C70006C040C94352420910F022F5F822F62E385
:104C80000E94C32C992319F020930F0208951092CB
:104C90000F0280911002882371F1809166028430A6
:104CA00041F58091E9008F702091EC00922F917076
:104CB00020FD90E8892B93E09093E9009091EB0020
:104CC00090FF14C09091EE0097FF10C09091E80003
:104CD00095FF03C01092F100F9CF9091E80090FF8A
:104CE00005C09091E8009E779093E8008F708093C4
:104CF000E90010921002089542E061EC81E00E9408
:104D0000272942E261EC82E00E94272942E261EC1D
:104D100083E00C94272980916802833009F460C0F5
:104D200030F4813071F0823009F499C008958A30EE
:104D300009F485C08B3009F46BC0893009F0A7C035
:104D400020C080916702813A09F0A1C08091E800FB
:104D5000877F8093E80080916B0290916C02892B91
:104D600021F468E081E192E003C060E080E090E03F
:104D700070E00E9463288091E8008B778093E800C0
:104D8000089580916702813209F081C080916B02A1
:104D900090916C02029708F07AC08091E800877FBA
:104DA0008093E8008091E80082FD05C08091660252
:104DB0008111F8CF6CC02091F3008091F20090E057
:104DC000922B029729F48091F1008B7F813021F49E
:104DD0008091F100809319028091E8008B7753C095
:104DE00080916702813A09F052C080916B029091E4
:104DF0006C02892B09F04BC08091E800877F80937B
:104E0000E8008091E80080FFFCCF8091310136C03E
:104E1000809167028132D9F580916B0290916C028A
:104E2000892BA9F58091E800877F8093E8000E9494
:104E30005C2980916902809331010C94771C8091E8
:104E40006702813221F58091E800877F8093E80036
:104E50000E945C2980916A0280931A0208958091D1
:104E60006702813AA1F48091E800877F8093E8008F
:104E70008091E80080FFFCCF80911A028093F100BE
:104E80008091E8008E778093E8000C945C29089567
:104E900084B7877F84BF0FB6F894A895809160008F
:104EA000886180936000109260000FBE90E080E8FF
:104EB0000FB6F89480936100909361000FBE0E943A
:104EC00059170E94AD290E940A2A8091E20084604D
:104ED0008093E2008DE095E20E94DE2278940E94A9
:104EE000982C0E945F1787E291E00E94C5168BEC18
:104EF00096E00E946C0480916602853089F487EC0C
:104F000096E00E946C040E94E92380916402882349
:104F100091F30E941E24882371F30E940228EBCF94
:104F20000E949317E8CF0C949527292F332723301D
:104F30003105C9F064F42130310581F022303105AA
:104F400009F049C08BE590E028E237E048C0213203
:104F5000310521F12232310571F13DC082E190E04D
:104F600023E837E03CC099278130910571F02CF49B
:104F7000892B89F5E4E2F7E00DC08230910541F01C
:104F8000039749F5E0EFF6E005C0E4E1F7E002C081
:104F9000E6EFF6E0849190E09F0121C06330710557
:104FA000D0F4660F771FFB01ED5AFE4F208131814F
:104FB00089E090E014C06330710568F4FB01EE0FE6
:104FC000FF1FE35BFE4F20813181FB01E65BFE4F5B
:104FD000808190E004C080E090E020E030E0FA01C1
:104FE00031832083089580916602843011F081E03E
:104FF000089582E0089580911B02811102C00C94F3
:10500000F327089580E189BD82E189BD09B400FEDE
:10501000FDCF8091D8008F7D8093D8008091E000F3
:1050200082608093E0008091E00081FDFCCF0895D4
:10503000CF92DF92EF92FF920F931F93CF93DF9364
:10504000EC018B016A010E947B29811133C0C114DC
:10505000D10439F0F60180819181081B190BC80F2A
:10506000D91FE12CF12C0115110519F18091E800EF
:1050700085FD16C08091E8008E778093E800C1140A
:10508000D10449F0F60180819181E80EF91EF18288
:10509000E08285E00FC00E947B29882321F30AC0AB
:1050A00089918093F10001501109FFEFEF1AFF0A77
:1050B000DACF80E0DF91CF911F910F91FF90EF90B9
:1050C000DF90CF90089520916D0230916E022617E7
:1050D000370748F06115710539F42091E8002E7703
:1050E0002093E80001C0B90140E061157105A9F104
:1050F00020916602222309F443C0253009F442C0FE
:105100002091E80023FD40C02091E80022FD32C03C
:105110002091E80020FFE9CF4091F3002091F200B8
:1051200030E0342BFC01CF016115710559F02830B6
:10513000310540F481918093F100615071092F5F36
:105140003F4FF1CF41E02830310509F040E0209198
:10515000E8002E772093E800C8CF4111C9CF0AC0DC
:1051600080916602882361F0853061F08091E800CB
:1051700083FD0AC08091E80082FFF2CF80E00895AD
:1051800082E0089583E0089581E0089520916D0202
:1051900030916E022617370748F06115710539F412
:1051A0002091E8002E772093E80001C0B901FC01AE
:1051B00020E06115710591F180916602882309F460
:1051C00040C0853009F43FC08091E80083FD3DC0B8
:1051D0008091E80082FD2FC08091E80080FFE9CF38
:1051E0002091F3008091F20090E0922B61157105FF
:1051F00059F08830910540F424912093F1003196C4
:10520000615071090196F2CF21E0089709F020E082
:105210008091E8008E778093E800CBCF2111CCCF2E
:105220000AC080916602882361F0853061F0809128
:10523000E80083FD0AC08091E80082FFF2CF80E0A1
:10524000089582E0089583E0089581E00895982FFD
:10525000973058F59093E900981739F07091EC0069
:105260002091ED005091F00003C0242F762F50E0E4
:1052700021FF19C03091EB003E7F3093EB0030915D
:10528000ED003D7F3093ED003091EB0031603093C5
:10529000EB007093EC002093ED005093F000209110
:1052A000EE0027FF07C09F5FD3CF8F708093E90088
:1052B00081E0089580E008958091670287FF11C022
:1052C0008091E80082FD05C0809166028111F8CFCF
:1052D00011C08091E8008B770BC080916602882313
:1052E00049F08091E80080FFF8CF8091E8008E7748
:1052F0008093E80008952091E4003091E50095E660
:105300004091EC00842F817040FF22C08091E80022
:1053100080FD1CC080916602882391F0853091F059
:105320008091EB0085FD10C04091E4005091E500B4
:105330004217530729F39A01915011F784E0089519
:1053400082E0089583E0089581E0089580E0089563
:105350004091E80042FFDECF08950E941B2A0E9480
:10536000232AE0EEF0E0808181608083E8EDF0E0C8
:1053700080818F77808319BCA7EDB0E08C918E7F00
:105380008C9380818F7E80831092650208950F93A5
:105390001F93CF93DF930E941B2A0E94232AC8EDFC
:1053A000D0E088818F77888388818068888388812E
:1053B0008F7D888319BC109266021092620210924F
:1053C00064021092630200EE10E0F80180818B7F8E
:1053D000808388818160888342E060E080E00E9471
:1053E0002729E1EEF0E080818E7F8083E2EEF0E01D
:1053F000808181608083808188608083F8018081E2
:105400008E7F8083888180618883DF91CF911F9117
:105410000F910895E8EDF0E080818F7E8083E7EDC5
:10542000F0E080818160808384E082BF81E08093AE
:1054300065020C94C729E8EDF0E080818E7F8083BF
:105440001092E20008951092DA001092E10008959F
:105450001F920F920FB60F9211242F933F934F93E9
:105460005F936F937F938F939F93AF93BF93EF93CC
:10547000FF938091E10082FF0BC08091E20082FFE8
:1054800007C08091E1008B7F8093E1000E943B2662
:105490008091DA0080FF1FC08091D80080FF1BC080
:1054A0008091DA008E7F8093DA008091D90080FFAE
:1054B0000DC080E189BD82E189BD09B400FEFDCF48
:1054C00081E0809366020E94142605C019BC1092E8
:1054D00066020E9426268091E10080FF19C080911B
:1054E000E20080FF15C08091E2008E7F8093E20091
:1054F0008091E20080618093E2008091D800806218
:105500008093D80019BC85E0809366020E94312602
:105510008091E10084FF30C08091E20084FF2CC0C4
:1055200080E189BD82E189BD09B400FEFDCF809193
:10553000D8008F7D8093D8008091E1008F7E80938A
:10554000E1008091E2008F7E8093E2008091E20092
:1055500081608093E20080916202882311F084E0F0
:1055600007C08091E30087FD02C081E001C083E0B5
:10557000809366020E9435268091E10083FF29C056
:105580008091E20083FF25C08091E100877F8093B6
:10559000E10082E080936602109262028091E10055
:1055A0008E7F8093E1008091E2008E7F8093E20005
:1055B0008091E20080618093E20042E060E080E060
:1055C0000E9427298091F00088608093F0000E945B
:1055D0002D26FF91EF91BF91AF919F918F917F9178
:1055E0006F915F914F913F912F910F900FBE0F9050
:1055F0001F9018951F920F920FB60F9211242F93A0
:105600003F934F935F936F937F938F939F93AF934A
:10561000BF93CF93DF93EF93FF93C091E900CF70D7
:105620008091EC00D82FD17080FDD0E81092E90075
:105630008091F000877F8093F00078940E943E2B49
:105640001092E9008091F00088608093F000CD2BEB
:10565000CF70C093E900FF91EF91DF91CF91BF919F
:10566000AF919F918F917F916F915F914F913F91FA
:105670002F910F900FBE0F901F9018951F93CF93EF
:10568000DF93CDB7DEB7AA970FB6F894DEBF0FBE93
:10569000CDBFE7E6F2E088E08E0F9091F1009193A4
:1056A0008E13FBCF0E948B268091E80083FF28C1D8
:1056B0008091670290916802492F50E04A3051056D
:1056C00008F01EC1FA01E857FF4F0C94052D8038F1
:1056D00021F0823809F014C108C0809163029091D2
:1056E0006402992389F082600FC080916B028F70F1
:1056F000873008F005C18093E9008091EB0085FBBD
:10570000882780F91092E9009091E800977F9093A4
:10571000E8008093F1001092F100D0C0282F2D7F77
:1057200009F0EEC0882319F0823061F0E9C0809161
:105730006902813009F0E4C0933009F080E0809381
:1057400064022EC08091690281112AC080916B028F
:105750008F702FEF280F263008F0D2C08093E90019
:105760002091EB0020FF1CC0933021F48091EB00CE
:10577000806214C09091EB0090619093EB0021E067
:1057800030E0A90102C0440F551F8A95E2F740930B
:10579000EA001092EA008091EB0088608093EB00B1
:1057A0001092E9008091E800877F8093E8000E94D2
:1057B0005C29A6C08111A4C0109169021F77809155
:1057C000E3008078812B8093E3008091E800877F5D
:1057D0008093E8000E945C298091E80080FFFCCF64
:1057E0008091E30080688093E300111102C082E0A1
:1057F00001C083E08093660283C08058823008F045
:105800007FC08091690290916A028C3D53E09507B8
:1058100079F583E08A838AE289834FB7F894DE01C1
:10582000139620E03EE051E2E32FF0E05093570062
:10583000E49120FF03C0E295EF703F5FEF708E2F81
:1058400090E0EA3010F0C79601C0C0968D939D930A
:105850002F5F243149F74FBF8091E800877F809305
:10586000E8006AE270E0CE0101960E94632815C04C
:1058700060916B0270916C02AE014F5F5F4F0E94AE
:105880009327BC01892BE1F19091E800977F9093D9
:10589000E80089819A810E94C6288091E8008B7770
:1058A0008093E8002DC0803859F58091E800877F0B
:1058B0008093E800809162028093F1008091E8007B
:1058C0008E7773CF81111CC0909169029230C0F421
:1058D0008091E800877F8093E800909362020E94A5
:1058E0005C2980916202811106C08091E30087FDEE
:1058F00002C081E001C084E0809366020E947C26A1
:105900008091E80083FF0AC08091E800877F809340
:10591000E8008091EB0080628093EB00AA960FB6BE
:10592000F894DEBF0FBECDBFDF91CF911F910895D8
:10593000CF93809166028823A1F0C091E900CF70D7
:105940009091EC00892F817090FD80E8C82B109217
:10595000E9008091E80083FD0E943E2BCF70C09348
:10596000E900CF910895DB018F939F930E941A2D38
:10597000BF91AF91A29F800D911DA39F900DB29FEB
:10598000900D11240895991B79E004C0991F961772
:1059900008F0961B881F7A95C9F780950895AA1B71
:1059A000BB1B51E107C0AA1FBB1FA617B70710F00A
:1059B000A61BB70B881F991F5A95A9F7809590953C
:1059C000BC01CD010895A1E21A2EAA1BBB1BFD014B
:1059D0000DC0AA1FBB1FEE1FFF1FA217B307E407CE
:1059E000F50720F0A21BB30BE40BF50B661F771F26
:1059F000881F991F1A9469F7609570958095909506
:105A00009B01AC01BD01CF010895EE0FFF1F059072
:105A1000F491E02D0994A29FB001B39FC001A39F10
:105A2000700D811D1124911DB29F700D811D1124D7
:105A3000911D08950E940B2DA59F900DB49F900D70
:105A4000A49F800D911D11240895F999FECF92BD58
:105A500081BDF89A992780B50895A6E1B0E044E0A9
:105A600050E00C945F2DA8E1B0E042E050E00C94CF
:105A70005F2D262FF999FECF92BD81BDF89A01972F
:105A800000B4021639F01FBA20BD0FB6F894FA9A86
:105A9000F99A0FBE08950396272F0E943A2D0E946F
:105AA000392D252F0E943A2D242F0C943A2D019642
:105AB000272F0E943A2D0C94392DDC01CB01FC01DB
:105AC000F999FECF06C0F2BDE1BDF89A319600B457
:0E5AD0000D9241505040B8F70895F894FFCF62
